{
  "contractName": "Lottery",
  "abi": [
    {
      "inputs": [
        {
          "internalType": "uint256",
          "name": "_prizePerEntry",
          "type": "uint256"
        },
        {
          "internalType": "address",
          "name": "_governance",
          "type": "address"
        }
      ],
      "stateMutability": "nonpayable",
      "type": "constructor"
    },
    {
      "anonymous": false,
      "inputs": [
        {
          "indexed": true,
          "internalType": "bytes32",
          "name": "id",
          "type": "bytes32"
        }
      ],
      "name": "ChainlinkCancelled",
      "type": "event"
    },
    {
      "anonymous": false,
      "inputs": [
        {
          "indexed": true,
          "internalType": "bytes32",
          "name": "id",
          "type": "bytes32"
        }
      ],
      "name": "ChainlinkFulfilled",
      "type": "event"
    },
    {
      "anonymous": false,
      "inputs": [
        {
          "indexed": true,
          "internalType": "bytes32",
          "name": "id",
          "type": "bytes32"
        }
      ],
      "name": "ChainlinkRequested",
      "type": "event"
    },
    {
      "anonymous": false,
      "inputs": [
        {
          "indexed": false,
          "internalType": "address",
          "name": "currentUser",
          "type": "address"
        },
        {
          "indexed": false,
          "internalType": "uint256",
          "name": "eValue",
          "type": "uint256"
        },
        {
          "indexed": false,
          "internalType": "uint32[]",
          "name": "numbers",
          "type": "uint32[]"
        }
      ],
      "name": "LogBuy",
      "type": "event"
    },
    {
      "anonymous": false,
      "inputs": [
        {
          "indexed": false,
          "internalType": "address",
          "name": "currentUser",
          "type": "address"
        },
        {
          "indexed": false,
          "internalType": "uint32",
          "name": "drawNo",
          "type": "uint32"
        },
        {
          "indexed": false,
          "internalType": "uint256",
          "name": "reward",
          "type": "uint256"
        }
      ],
      "name": "LogClaim",
      "type": "event"
    },
    {
      "anonymous": false,
      "inputs": [
        {
          "indexed": true,
          "internalType": "address",
          "name": "previousOwner",
          "type": "address"
        },
        {
          "indexed": true,
          "internalType": "address",
          "name": "newOwner",
          "type": "address"
        }
      ],
      "name": "OwnershipTransferred",
      "type": "event"
    },
    {
      "inputs": [],
      "name": "ORACLE_PAYMENT",
      "outputs": [
        {
          "internalType": "uint256",
          "name": "",
          "type": "uint256"
        }
      ],
      "stateMutability": "view",
      "type": "function",
      "constant": true
    },
    {
      "inputs": [
        {
          "internalType": "address",
          "name": "",
          "type": "address"
        },
        {
          "internalType": "uint32",
          "name": "",
          "type": "uint32"
        }
      ],
      "name": "claims",
      "outputs": [
        {
          "internalType": "bool",
          "name": "",
          "type": "bool"
        }
      ],
      "stateMutability": "view",
      "type": "function",
      "constant": true
    },
    {
      "inputs": [],
      "name": "drawNo",
      "outputs": [
        {
          "internalType": "uint32",
          "name": "",
          "type": "uint32"
        }
      ],
      "stateMutability": "view",
      "type": "function",
      "constant": true
    },
    {
      "inputs": [
        {
          "internalType": "uint32",
          "name": "",
          "type": "uint32"
        }
      ],
      "name": "draws",
      "outputs": [
        {
          "internalType": "enum Lottery.LOTTERY_STATE",
          "name": "state",
          "type": "uint8"
        },
        {
          "internalType": "uint256",
          "name": "rewards",
          "type": "uint256"
        }
      ],
      "stateMutability": "view",
      "type": "function",
      "constant": true
    },
    {
      "inputs": [
        {
          "internalType": "address",
          "name": "",
          "type": "address"
        },
        {
          "internalType": "uint32",
          "name": "",
          "type": "uint32"
        },
        {
          "internalType": "uint256",
          "name": "",
          "type": "uint256"
        },
        {
          "internalType": "uint256",
          "name": "",
          "type": "uint256"
        }
      ],
      "name": "entries",
      "outputs": [
        {
          "internalType": "uint64",
          "name": "",
          "type": "uint64"
        }
      ],
      "stateMutability": "view",
      "type": "function",
      "constant": true
    },
    {
      "inputs": [],
      "name": "owner",
      "outputs": [
        {
          "internalType": "address",
          "name": "",
          "type": "address"
        }
      ],
      "stateMutability": "view",
      "type": "function",
      "constant": true
    },
    {
      "inputs": [],
      "name": "prizePerEntry",
      "outputs": [
        {
          "internalType": "uint256",
          "name": "",
          "type": "uint256"
        }
      ],
      "stateMutability": "view",
      "type": "function",
      "constant": true
    },
    {
      "inputs": [],
      "name": "renounceOwnership",
      "outputs": [],
      "stateMutability": "nonpayable",
      "type": "function"
    },
    {
      "inputs": [
        {
          "internalType": "address",
          "name": "newOwner",
          "type": "address"
        }
      ],
      "name": "transferOwnership",
      "outputs": [],
      "stateMutability": "nonpayable",
      "type": "function"
    },
    {
      "inputs": [
        {
          "internalType": "uint256",
          "name": "_prizePerEntry",
          "type": "uint256"
        }
      ],
      "name": "setPrice",
      "outputs": [],
      "stateMutability": "nonpayable",
      "type": "function"
    },
    {
      "inputs": [
        {
          "internalType": "address",
          "name": "_governance",
          "type": "address"
        }
      ],
      "name": "setGovernance",
      "outputs": [],
      "stateMutability": "nonpayable",
      "type": "function"
    },
    {
      "inputs": [
        {
          "internalType": "uint32[]",
          "name": "numbers",
          "type": "uint32[]"
        }
      ],
      "name": "buy",
      "outputs": [],
      "stateMutability": "payable",
      "type": "function",
      "payable": true
    },
    {
      "inputs": [
        {
          "internalType": "uint32",
          "name": "_drawNo",
          "type": "uint32"
        }
      ],
      "name": "claim",
      "outputs": [
        {
          "internalType": "uint256",
          "name": "amount",
          "type": "uint256"
        }
      ],
      "stateMutability": "nonpayable",
      "type": "function"
    },
    {
      "inputs": [
        {
          "internalType": "uint32",
          "name": "_drawNo",
          "type": "uint32"
        }
      ],
      "name": "getResults",
      "outputs": [
        {
          "internalType": "uint256[]",
          "name": "results",
          "type": "uint256[]"
        }
      ],
      "stateMutability": "view",
      "type": "function",
      "constant": true
    },
    {
      "inputs": [],
      "name": "startNewLottery",
      "outputs": [],
      "stateMutability": "nonpayable",
      "type": "function"
    },
    {
      "inputs": [
        {
          "internalType": "bytes32",
          "name": "_requestId",
          "type": "bytes32"
        }
      ],
      "name": "fulfillAlarm",
      "outputs": [],
      "stateMutability": "nonpayable",
      "type": "function"
    },
    {
      "inputs": [
        {
          "internalType": "uint256",
          "name": "_number",
          "type": "uint256"
        }
      ],
      "name": "updateDrawNumbers",
      "outputs": [],
      "stateMutability": "nonpayable",
      "type": "function"
    }
  ],
  "bytecode": "0x6080604052600160045567016345785d8a0000600b55600c80546001600160a01b031916737afe1118ea78c1eae84ca8fee5c65bc76ccf879e1790557f3466666634376333393832623462616262613661376464363934633962323034600d553480156200006c57600080fd5b50604051620023cd380380620023cd8339810160408190526200008f91620004f7565b60006200009b620003db565b600680546001600160a01b0319166001600160a01b038316908117909155604051919250906000907f8be0079c531659141344cd1fd0a4f28419497f9722a3daafe3b4186f6b6457e0908290a3506009829055600e80546001600160a01b0319166001600160a01b0383811691909117918290556040805163025f5ceb60e21b81529051929091169163097d73ac91600480820192602092909190829003018186803b1580156200014b57600080fd5b505afa15801562000160573d6000803e3d6000fd5b505050506040513d601f19601f820116820180604052508101906200018691906200040e565b600f80546001600160a01b0319166001600160a01b03928316179055600e546040805163ccbac9f560e01b81529051919092169163ccbac9f5916004808301926020929190829003018186803b158015620001e057600080fd5b505afa158015620001f5573d6000803e3d6000fd5b505050506040513d601f19601f820116820180604052508101906200021b91906200040e565b601080546001600160a01b0319166001600160a01b03928316179055600f546040805163187fc7c560e31b81529051919092169163c3fe3e28916004808301926020929190829003018186803b1580156200027557600080fd5b505afa1580156200028a573d6000803e3d6000fd5b505050506040513d601f19601f82011682018060405250810190620002b0919062000433565b6011819055600f54604051637abcfc4160e11b81526001600160a01b039091169163f579f88291620002e6919060040162000526565b6101806040518083038186803b1580156200030057600080fd5b505afa15801562000315573d6000803e3d6000fd5b505050506040513d601f19601f820116820180604052508101906200033b91906200044c565b60a00151601255600f54601154604051637abcfc4160e11b81526001600160a01b039092169163f579f88291620003759160040162000526565b6101806040518083038186803b1580156200038f57600080fd5b505afa158015620003a4573d6000803e3d6000fd5b505050506040513d601f19601f82011682018060405250810190620003ca91906200044c565b610100015160135550620005569050565b3390565b80516001600160a01b0381168114620003f757600080fd5b92915050565b80518015158114620003f757600080fd5b60006020828403121562000420578081fd5b6200042c8383620003df565b9392505050565b60006020828403121562000445578081fd5b5051919050565b600061018080838503121562000460578182fd5b6200046b816200052f565b9050825181526020830151602082015260408301516040820152606083015160608201526080830151608082015260a083015160a082015260c083015160c082015260e083015160e0820152610100808401518183015250610120620004d485828601620003fd565b908201526101408381015190820152610160928301519281019290925250919050565b600080604083850312156200050a578081fd5b825191506200051d8460208501620003df565b90509250929050565b90815260200190565b6040518181016001600160401b03811182821017156200054e57600080fd5b604052919050565b611e6780620005666000396000f3fe6080604052600436106100fd5760003560e01c806391b7f5ed11610095578063c1e56a8e11610064578063c1e56a8e146102a5578063d2a3f511146102ba578063e9f8958f146102da578063ec47997c14610307578063f2fde38b1461031a576100fd565b806391b7f5ed14610230578063a1fd4b3414610250578063ab033ea914610265578063b62c06aa14610285576100fd565b806345872979116100d157806345872979146101b55780635727cb59146101e2578063715018a6146101f95780638da5cb5b1461020e576100fd565b8062a3ddea1461010257806304951891146101385780630ae288071461016557806325777bf814610187575b600080fd5b34801561010e57600080fd5b5061012261011d36600461195b565b61033a565b60405161012f9190611b13565b60405180910390f35b34801561014457600080fd5b5061015861015336600461195b565b6105cf565b60405161012f9190611dd8565b34801561017157600080fd5b5061017a610793565b60405161012f9190611de1565b34801561019357600080fd5b506101a76101a236600461195b565b61079f565b60405161012f929190611b62565b3480156101c157600080fd5b506101d56101d0366004611858565b6107be565b60405161012f9190611df2565b3480156101ee57600080fd5b506101f761082b565b005b34801561020557600080fd5b506101f76109b9565b34801561021a57600080fd5b50610223610a38565b60405161012f91906119e4565b34801561023c57600080fd5b506101f761024b36600461192b565b610a47565b34801561025c57600080fd5b50610158610a81565b34801561027157600080fd5b506101f76102803660046117eb565b610a87565b34801561029157600080fd5b506101f76102a036600461192b565b610ade565b3480156102b157600080fd5b50610158610c4f565b3480156102c657600080fd5b506101f76102d536600461192b565b610c55565b3480156102e657600080fd5b506102fa6102f5366004611823565b610eb8565b60405161012f9190611b57565b6101f761031536600461189c565b610ed8565b34801561032657600080fd5b506101f76103353660046117eb565b610fa8565b33600090815260076020908152604080832063ffffffff851684529091528120546060915b818163ffffffff1610156105c8576000805b6012548163ffffffff1610156104675760005b6012548163ffffffff16101561045e5763ffffffff80881660009081526014602052604090206002018054909183169081106103bc57fe5b600091825260208083206008830401543384526007808352604080862063ffffffff8e8116885294529094208054949093166004026101000a900481169290871690811061040657fe5b906000526020600020018363ffffffff168154811061042157fe5b6000918252602090912060048204015460039091166008026101000a900467ffffffffffffffff161415610456576001909201915b600101610384565b50600101610371565b506000805b6013548163ffffffff1610156105625760005b6013548163ffffffff1610156105595763ffffffff80891660009081526014602052604090206002018054909183169081106104b757fe5b600091825260208083206008830401543384526007808352604080862063ffffffff8f8116885294529094208054949093166004026101000a900481169290881690811061050157fe5b906000526020600020018363ffffffff168154811061051c57fe5b6000918252602090912060048204015460039091166008026101000a900467ffffffffffffffff161415610551576001909201915b60010161047f565b5060010161046c565b50600061056f838361105f565b905063ffffffff8116156105bd5763ffffffff80881660009081526014602052604090206001015460649183160204868563ffffffff16815181106105b057fe5b6020026020010181815250505b50505060010161035f565b5050919050565b60008063ffffffff831660009081526014602052604090205460ff1660028111156105f657fe5b1461061c5760405162461bcd60e51b815260040161061390611bc0565b60405180910390fd5b336000908152600a6020908152604080832060085463ffffffff16845290915290205460ff161515600114156106645760405162461bcd60e51b815260040161061390611cfc565b606061066f8361033a565b905060008151116106925760405162461bcd60e51b815260040161061390611cdc565b60005b81518163ffffffff1610156106f9576064828263ffffffff16815181106106b857fe5b6020026020010151601460008763ffffffff1663ffffffff1681526020019081526020016000206001015402816106eb57fe5b049290920191600101610695565b50604051339083156108fc029084906000818181858888f19350505050158015610727573d6000803e3d6000fd5b50336000818152600a6020908152604080832063ffffffff8816845290915290819020805460ff19166001179055517ff2084191b01c03730d7c553c24eeefee4958ca9bb48ce1d687466c35de3bf1cf916107859186908690611a5d565b60405180910390a150919050565b60085463ffffffff1681565b6014602052600090815260409020805460019091015460ff9091169082565b600760205283600052604060002060205282600052604060002082815481106107e357fe5b9060005260206000200181815481106107f857fe5b90600052602060002090600491828204019190066008029350935050509054906101000a900467ffffffffffffffff1681565b610833611154565b6006546001600160a01b039081169116146108605760405162461bcd60e51b815260040161061390611ca7565b60085463ffffffff1660009081526014602052604081205460ff16600281111561088657fe5b146108a35760405162461bcd60e51b815260040161061390611dae565b60085463ffffffff166000908152601460205260409020805460ff191660011790556108cd6116ab565b600d546108e29030635b16035560e11b611158565b90506000600f60009054906101000a90046001600160a01b03166001600160a01b0316630fb5a6b46040518163ffffffff1660e01b815260040160206040518083038186803b15801561093457600080fd5b505afa158015610948573d6000803e3d6000fd5b505050506040513d601f19601f8201168201806040525081019061096c9190611943565b6040805180820190915260058152641d5b9d1a5b60da1b602082015290915061099990839042840161117d565b600c54600b546109b4916001600160a01b031690849061119b565b505050565b6109c1611154565b6006546001600160a01b039081169116146109ee5760405162461bcd60e51b815260040161061390611ca7565b6006546040516000916001600160a01b0316907f8be0079c531659141344cd1fd0a4f28419497f9722a3daafe3b4186f6b6457e0908390a3600680546001600160a01b0319169055565b6006546001600160a01b031690565b610a4f611154565b6006546001600160a01b03908116911614610a7c5760405162461bcd60e51b815260040161061390611ca7565b600955565b600b5481565b610a8f611154565b6006546001600160a01b03908116911614610abc5760405162461bcd60e51b815260040161061390611ca7565b600e80546001600160a01b0319166001600160a01b0392909216919091179055565b60008181526005602052604090205481906001600160a01b03163314610b165760405162461bcd60e51b815260040161061390611d66565b60008181526005602052604080822080546001600160a01b03191690555182917f7cc135e0cebb02c3480ae5d74d377283180a2601f8f644edf7987b009316c63a91a2600160085463ffffffff1660009081526014602052604090205460ff166002811115610b8157fe5b14610b9e5760405162461bcd60e51b815260040161061390611dae565b6008805463ffffffff90811660009081526014602052604090819020805460ff1916600217905560105492549051632cdc85e960e21b81526001600160a01b039093169263b37217a492610bfd92479116434201010190600401611dd8565b602060405180830381600087803b158015610c1757600080fd5b505af1158015610c2b573d6000803e3d6000fd5b505050506040513d601f19601f820116820180604052508101906109b49190611943565b60095481565b600e60009054906101000a90046001600160a01b03166001600160a01b031663ccbac9f56040518163ffffffff1660e01b815260040160206040518083038186803b158015610ca357600080fd5b505afa158015610cb7573d6000803e3d6000fd5b505050506040513d601f19601f82011682018060405250810190610cdb9190611807565b6001600160a01b0316336001600160a01b031614610d0b5760405162461bcd60e51b815260040161061390611c2f565b600260085463ffffffff1660009081526014602052604090205460ff166002811115610d3357fe5b14610d505760405162461bcd60e51b815260040161061390611d25565b60008111610d705760405162461bcd60e51b815260040161061390611c81565b6008805463ffffffff908116600090815260146020526040808220805460ff191690559254909116815290812047600191909101555b6012548163ffffffff161015610e1d5760085463ffffffff1660009081526014602052604090206002016064838254600181018455600093845260209093206008840401805460079094166004026101000a63ffffffff818102199095169390920690931602179055606482049150600101610da6565b5060005b6013548163ffffffff161015610e985760085463ffffffff1660009081526014602052604090206002016064838254600181018455600093845260209093206008840401805460079094166004026101000a63ffffffff818102199095169390920690931602179055606482049150600101610e21565b50506008805463ffffffff8082166001011663ffffffff19909116179055565b600a60209081526000928352604080842090915290825290205460ff1681565b600954341015610efa5760405162461bcd60e51b815260040161061390611c58565b600160085463ffffffff1660009081526014602052604090205460ff166002811115610f2257fe5b14610f2c57600080fd5b33600090815260076020908152604080832060085463ffffffff1684528252822080546001810182559083529120610f66910183836116e0565b507f45763adba85488ea16a1a3f2a5f44c7c20080d06edf28072acde46addd934ae033348484604051610f9c94939291906119f8565b60405180910390a15050565b610fb0611154565b6006546001600160a01b03908116911614610fdd5760405162461bcd60e51b815260040161061390611ca7565b6001600160a01b0381166110035760405162461bcd60e51b815260040161061390611b7a565b6006546040516001600160a01b038084169216907f8be0079c531659141344cd1fd0a4f28419497f9722a3daafe3b4186f6b6457e090600090a3600680546001600160a01b0319166001600160a01b0392909216919091179055565b60008263ffffffff166007141561108b578163ffffffff16600114156110875750602361108b565b5060025b8263ffffffff16600614156110b5578163ffffffff16600114156110b1575060016110b5565b5060025b8263ffffffff16600514156110df578163ffffffff16600114156110db575060026110df565b5060075b8263ffffffff1660041480156110fb57508163ffffffff166001145b156111045750600a5b8263ffffffff16600314801561112057508163ffffffff166001145b156111295750600f5b8263ffffffff16600214801561114557508163ffffffff166001145b1561114e5750601a5b92915050565b3390565b6111606116ab565b6111686116ab565b611174818686866112da565b95945050505050565b608083015161118c9083611317565b60808301516109b4908261132e565b6000306004546040516020016111b29291906119c2565b60408051808303601f19018152918152815160209283012060045460608701526000818152600590935281832080546001600160a01b0319166001600160a01b038916179055905190925082917fb5e6e01e79f91267dc17b4e6314d5d4d03593d2ceee0fbb452b750bd70ea5af991a26002546001600160a01b0316634000aea0858461123e8761133e565b6040518463ffffffff1660e01b815260040161125c93929190611aec565b602060405180830381600087803b15801561127657600080fd5b505af115801561128a573d6000803e3d6000fd5b505050506040513d601f19601f820116820180604052508101906112ae919061190b565b6112ca5760405162461bcd60e51b815260040161061390611bec565b6004805460010190559392505050565b6112e26116ab565b6112f285608001516101006113ba565b50509183526001600160a01b031660208301526001600160e01b031916604082015290565b61132482600383516113f4565b6109b482826114ce565b61133a826000836113f4565b5050565b6060634042994660e01b60008084600001518560200151866040015187606001516001896080015160000151604051602401611381989796959493929190611a84565b60408051601f198184030181529190526020810180516001600160e01b03166001600160e01b0319909316929092179091529050919050565b6113c261179d565b60208206156113d75760208206602003820191505b506020828101829052604080518085526000815290920101905290565b601781116114155761140f8360e0600585901b1683176114ef565b506109b4565b60ff811161143f57611432836018611fe0600586901b16176114ef565b5061140f83826001611507565b61ffff811161146a5761145d836019611fe0600586901b16176114ef565b5061140f83826002611507565b63ffffffff81116114975761148a83601a611fe0600586901b16176114ef565b5061140f83826004611507565b67ffffffffffffffff81116109b4576114bb83601b611fe0600586901b16176114ef565b506114c883826008611507565b50505050565b6114d661179d565b6114e883846000015151848551611528565b9392505050565b6114f761179d565b6114e883846000015151846115d4565b61150f61179d565b61152084856000015151858561161f565b949350505050565b61153061179d565b825182111561153e57600080fd5b846020015182850111156115685761156885611560876020015187860161167d565b600202611694565b6000808651805187602083010193508088870111156115875787860182525b505050602084015b602084106115ae5780518252601f19909301926020918201910161158f565b51815160001960208690036101000a019081169019919091161790525083949350505050565b6115dc61179d565b836020015183106115f8576115f8848560200151600202611694565b835180516020858301018481535080851415611615576001810182525b5093949350505050565b61162761179d565b846020015184830111156116445761164485858401600202611694565b60006001836101000a0390508551838682010185831982511617815250805184870111156116725783860181525b509495945050505050565b60008183111561168e57508161114e565b50919050565b81516116a083836113ba565b506114c883826114ce565b6040805160a0810182526000808252602082018190529181018290526060810191909152608081016116db61179d565b905290565b8280548282559060005260206000209060030160049004810192821561178d5791602002820160005b8382111561175757833563ffffffff1683826101000a81548167ffffffffffffffff021916908363ffffffff1602179055509260200192600801602081600701049283019260010302611709565b801561178b5782816101000a81549067ffffffffffffffff0219169055600801602081600701049283019260010302611757565b505b506117999291506117b7565b5090565b604051806040016040528060608152602001600081525090565b5b8082111561179957805467ffffffffffffffff191681556001016117b8565b803563ffffffff8116811461114e57600080fd5b6000602082840312156117fc578081fd5b81356114e881611e07565b600060208284031215611818578081fd5b81516114e881611e07565b60008060408385031215611835578081fd5b823561184081611e07565b915061184f84602085016117d7565b90509250929050565b6000806000806080858703121561186d578182fd5b843561187881611e07565b935061188786602087016117d7565b93969395505050506040820135916060013590565b600080602083850312156118ae578182fd5b823567ffffffffffffffff808211156118c5578384fd5b818501915085601f8301126118d8578384fd5b8135818111156118e6578485fd5b86602080830285010111156118f9578485fd5b60209290920196919550909350505050565b60006020828403121561191c578081fd5b815180151581146114e8578182fd5b60006020828403121561193c578081fd5b5035919050565b600060208284031215611954578081fd5b5051919050565b60006020828403121561196c578081fd5b81356114e881611e1f565b60008151808452815b8181101561199c57602081850181015186830182015201611980565b818111156119ad5782602083870101525b50601f01601f19169290920160200192915050565b60609290921b6bffffffffffffffffffffffff19168252601482015260340190565b6001600160a01b0391909116815260200190565b6001600160a01b038516815260208082018590526060604083018190528201839052600090849060808401835b86811015611a50578335611a3881611e1f565b63ffffffff1682529282019290820190600101611a25565b5098975050505050505050565b6001600160a01b0393909316835263ffffffff919091166020830152604082015260600190565b6001600160a01b0389811682526020820189905260408201889052861660608201526001600160e01b03198516608082015260a0810184905260c0810183905261010060e08201819052600090611add83820185611977565b9b9a5050505050505050505050565b600060018060a01b0385168252836020830152606060408301526111746060830184611977565b6020808252825182820181905260009190848201906040850190845b81811015611b4b57835183529284019291840191600101611b2f565b50909695505050505050565b901515815260200190565b6040810160038410611b7057fe5b9281526020015290565b60208082526026908201527f4f776e61626c653a206e6577206f776e657220697320746865207a65726f206160408201526564647265737360d01b606082015260800190565b602080825260129082015271191c985dcb5a5ccb5b9bdd0b58db1bdcd95960721b604082015260600190565b60208082526023908201527f756e61626c6520746f207472616e73666572416e6443616c6c20746f206f7261604082015262636c6560e81b606082015260800190565b6020808252600f908201526e696e76616c69642d6164647265737360881b604082015260600190565b6020808252600f908201526e3732b2b216b6b7b93296b2ba3432b960891b604082015260600190565b6020808252600c908201526b3bb937b73396b73ab6b132b960a11b604082015260600190565b6020808252818101527f4f776e61626c653a2063616c6c6572206973206e6f7420746865206f776e6572604082015260600190565b602080825260069082015265373796bbb4b760d11b604082015260600190565b6020808252600f908201526e185b1c9958591e4b58db185a5b5959608a1b604082015260600190565b60208082526021908201527f6c6f74746572792d6e6f742d67657474696e672d72616e646f6d2d6e756d62656040820152603960f91b606082015260800190565b60208082526028908201527f536f75726365206d75737420626520746865206f7261636c65206f6620746865604082015267081c995c5d595cdd60c21b606082015260800190565b60208082526010908201526f3637ba3a32b93c96b737ba16b7b832b760811b604082015260600190565b90815260200190565b63ffffffff91909116815260200190565b67ffffffffffffffff91909116815260200190565b6001600160a01b0381168114611e1c57600080fd5b50565b63ffffffff81168114611e1c57600080fdfea26469706673582212205dff04de9a911ee3fa294f600f7825ac9018860e35c573e1f1288b4546df897a64736f6c634300060c0033",
  "immutableReferences": {},
  "source": "pragma solidity 0.6.12;\npragma experimental ABIEncoderV2;\n\nimport \"@chainlink/contracts/src/v0.6/ChainlinkClient.sol\";\nimport \"@openzeppelin/contracts/access/Ownable.sol\";\n\ninterface IMagayoOracle {\n  function game() external view returns (bytes32);\n\n  function duration() external view returns (uint256);\n\n  function games(bytes32 _game) external view returns (Game memory);\n\n  struct Game {\n    bytes32 name;\n    bytes32 country;\n    bytes32 state;\n    uint256 mainMin;\n    uint256 mainMax;\n    uint256 mainDrawn;\n    uint256 bonusMin;\n    uint256 bonusMax;\n    uint256 bonusDrawn;\n    bool sameBalls;\n    uint256 digits;\n    uint256 drawn;\n  }\n}\n\ninterface IRandomNumber {\n  function getRandomNumber(uint256 userProvidedSeed)\n    external\n    returns (bytes32 requestId);\n}\n\ninterface IGovernance {\n  function randomNumber() external view returns (address);\n\n  function magayoOracle() external view returns (address);\n}\n\ncontract Lottery is ChainlinkClient, Ownable {\n  mapping(address => mapping(uint32 => uint64[][])) public entries;\n  uint32 public drawNo;\n  uint256 public prizePerEntry;\n  enum LOTTERY_STATE {CLOSED, OPEN, GETTING_RANDOMNUMBER}\n  //  mapping (address => mapping(uint16 => Reward[])) results;\n\n  mapping(address => mapping(uint32 => bool)) public claims;\n\n  // Rinkeby\n  uint256 public ORACLE_PAYMENT = 0.1 * 10**18;\n  address CHAINLINK_ALARM_ORACLE = 0x7AFe1118Ea78C1eae84ca8feE5C65Bc76CcF879e;\n  bytes32 CHAINLINK_ALARM_JOB_ID = \"4fff47c3982b4babba6a7dd694c9b204\";\n  IGovernance iGovernance;\n  IMagayoOracle iMagayoOracle;\n  IRandomNumber iRandomNumber;\n  bytes32 game;\n  uint256 mainDrawn;\n  uint256 bonusDrawn;\n\n  struct Draw {\n    LOTTERY_STATE state;\n    uint256 rewards;\n    uint32[] numbers;\n  }\n\n  mapping(uint32 => Draw) public draws;\n\n  event LogBuy(address currentUser, uint256 eValue, uint32[] numbers);\n  event LogClaim(address currentUser, uint32 drawNo, uint256 reward);\n\n  constructor(uint256 _prizePerEntry, address _governance) public {\n    prizePerEntry = _prizePerEntry;\n    iGovernance = IGovernance(_governance);\n    iMagayoOracle = IMagayoOracle(iGovernance.magayoOracle());\n    iRandomNumber = IRandomNumber(iGovernance.randomNumber());\n    game = iMagayoOracle.game();\n    mainDrawn = iMagayoOracle.games(game).mainDrawn;\n    bonusDrawn = iMagayoOracle.games(game).bonusDrawn;\n  }\n\n  function setPrice(uint256 _prizePerEntry) external onlyOwner {\n    prizePerEntry = _prizePerEntry;\n  }\n\n  function setGovernance(address _governance) external onlyOwner {\n    iGovernance = IGovernance(_governance);\n  }\n\n  function buy(uint32[] calldata numbers) external payable {\n    require(msg.value >= prizePerEntry, \"need-more-ether\");\n    require(draws[drawNo].state == LOTTERY_STATE.OPEN);\n    entries[msg.sender][drawNo].push(numbers);\n    emit LogBuy(msg.sender, msg.value, numbers);\n  }\n\n  function claim(uint32 _drawNo) external returns(uint256 amount) {\n    require (draws[_drawNo].state == LOTTERY_STATE.CLOSED, \"draw-is-not-closed\");\n    require (claims[msg.sender][drawNo] != true, \"already-claimed\");\n    uint256[] memory results = getResults(_drawNo);\n    require(results.length > 0, \"no-win\");\n    for(uint32 i = 0; i < results.length; i++){\n      amount += draws[_drawNo].rewards * results[i] / 100;\n    }\n    msg.sender.transfer(amount);\n    claims[msg.sender][_drawNo] = true;\n    emit LogClaim(msg.sender, _drawNo, amount);\n  }\n\n  function getResults(uint32 _drawNo) public view returns (uint256[] memory results){\n    uint256 tickets = entries[msg.sender][_drawNo].length;\n    for (uint32 i = 0; i < tickets; i++){\n      uint32 mainWinning = 0;\n      for (uint32 j = 0; j < mainDrawn; j++){\n        for(uint32 k = 0; k < mainDrawn; k++){\n          if(entries[msg.sender][_drawNo][i][j] == draws[_drawNo].numbers[k]){\n            mainWinning++;\n          }\n        }\n      }\n      uint32 bonusWinning = 0;\n      for (uint32 j = 0; j < bonusDrawn; j++){\n        for(uint32 k = 0; k < bonusDrawn; k++){\n          if(entries[msg.sender][_drawNo][i][j] == draws[_drawNo].numbers[k]){\n            bonusWinning++;\n          }\n        }\n      }\n      uint32 prizeDistribution = calculatePrize(mainWinning, bonusWinning);\n      if(prizeDistribution > 0){\n        results[i] = prizeDistribution * draws[_drawNo].rewards / 100;\n      }\n    }\n  }\n\n  function calculatePrize(uint32 mainWinning, uint32 bonusWinning) internal view returns(uint32 prizeDistribution){\n    if(mainWinning == 7){\n      if(bonusWinning == 1){\n        prizeDistribution = 35;\n      }\n      else{\n        prizeDistribution = 2;\n      }\n    }\n    if(mainWinning == 6){\n      if(bonusWinning == 1){\n        prizeDistribution = 1;\n      }\n      else{\n        prizeDistribution = 2;\n      }\n    }\n    if(mainWinning == 5){\n      if(bonusWinning == 1){\n        prizeDistribution = 2;\n      }\n      else{\n        prizeDistribution = 7;\n      }\n    }\n    if(mainWinning == 4 && bonusWinning == 1){\n      prizeDistribution = 10;\n    }\n    if(mainWinning == 3 && bonusWinning == 1){\n      prizeDistribution = 15;\n    }\n    if(mainWinning == 2 && bonusWinning == 1){\n      prizeDistribution = 26;\n    }\n  }\n\n  function startNewLottery() external onlyOwner {\n    require(draws[drawNo].state == LOTTERY_STATE.CLOSED, \"lottery-not-open\");\n    draws[drawNo].state = LOTTERY_STATE.OPEN;\n    Chainlink.Request memory req = buildChainlinkRequest(\n      CHAINLINK_ALARM_JOB_ID,\n      address(this),\n      this.fulfillAlarm.selector\n    );\n    uint256 duration = iMagayoOracle.duration();\n    req.addUint(\"until\", now + duration);\n    sendChainlinkRequestTo(CHAINLINK_ALARM_ORACLE, req, ORACLE_PAYMENT);\n  }\n\n  function fulfillAlarm(bytes32 _requestId)\n    external\n    recordChainlinkFulfillment(_requestId)\n  {\n    require(draws[drawNo].state == LOTTERY_STATE.OPEN, \"lottery-not-open\");\n    draws[drawNo].state = LOTTERY_STATE.GETTING_RANDOMNUMBER;\n    iRandomNumber.getRandomNumber(\n      now + block.number + drawNo + address(this).balance\n    );\n  }\n\n  function updateDrawNumbers(uint256 _number) external {\n    require(msg.sender == iGovernance.randomNumber(), \"invalid-address\");\n    require(\n      draws[drawNo].state == LOTTERY_STATE.GETTING_RANDOMNUMBER,\n      \"lottery-not-getting-random-number\"\n    );\n    require(_number > 0, \"wrong-number\");\n    draws[drawNo].state = LOTTERY_STATE.CLOSED;\n    draws[drawNo].rewards = address(this).balance;\n    for (uint32 i = 0; i < mainDrawn; i++) {\n      draws[drawNo].numbers.push(uint32(_number % 100));\n      _number = _number / 100;\n    }\n    for (uint32 i = 0; i < bonusDrawn; i++) {\n      draws[drawNo].numbers.push(uint32(_number % 100));\n      _number = _number / 100;\n    }\n    drawNo++;\n  }\n}\n",
  "sourcePath": "/Users/leckylao/Workspaces/chainlink-hack/contracts/Lottery.sol",
  "compiler": {
    "name": "solc",
    "version": "0.6.12+commit.27d51765.Emscripten.clang"
  },
  "schemaVersion": "3.2.5",
  "updatedAt": "2020-09-22T18:45:13.710Z",
  "networkType": "ethereum",
  "devdoc": {
    "kind": "dev",
    "methods": {
      "owner()": {
        "details": "Returns the address of the current owner."
      },
      "renounceOwnership()": {
        "details": "Leaves the contract without owner. It will not be possible to call `onlyOwner` functions anymore. Can only be called by the current owner. NOTE: Renouncing ownership will leave the contract without an owner, thereby removing any functionality that is only available to the owner."
      },
      "transferOwnership(address)": {
        "details": "Transfers ownership of the contract to a new account (`newOwner`). Can only be called by the current owner."
      }
    },
    "version": 1
  },
  "userdoc": {
    "kind": "user",
    "methods": {},
    "version": 1
  }
}