{
  "contractName": "Lottery",
  "abi": [
    {
      "inputs": [
        {
          "internalType": "uint256",
          "name": "_prizePerEntry",
          "type": "uint256"
        },
        {
          "internalType": "address",
          "name": "_governance",
          "type": "address"
        }
      ],
      "stateMutability": "nonpayable",
      "type": "constructor"
    },
    {
      "anonymous": false,
      "inputs": [
        {
          "indexed": true,
          "internalType": "bytes32",
          "name": "id",
          "type": "bytes32"
        }
      ],
      "name": "ChainlinkCancelled",
      "type": "event"
    },
    {
      "anonymous": false,
      "inputs": [
        {
          "indexed": true,
          "internalType": "bytes32",
          "name": "id",
          "type": "bytes32"
        }
      ],
      "name": "ChainlinkFulfilled",
      "type": "event"
    },
    {
      "anonymous": false,
      "inputs": [
        {
          "indexed": true,
          "internalType": "bytes32",
          "name": "id",
          "type": "bytes32"
        }
      ],
      "name": "ChainlinkRequested",
      "type": "event"
    },
    {
      "anonymous": false,
      "inputs": [
        {
          "indexed": false,
          "internalType": "address",
          "name": "currentUser",
          "type": "address"
        },
        {
          "indexed": false,
          "internalType": "uint256",
          "name": "eValue",
          "type": "uint256"
        },
        {
          "indexed": false,
          "internalType": "uint32[]",
          "name": "numbers",
          "type": "uint32[]"
        }
      ],
      "name": "LogBuy",
      "type": "event"
    },
    {
      "anonymous": false,
      "inputs": [
        {
          "indexed": false,
          "internalType": "address",
          "name": "currentUser",
          "type": "address"
        },
        {
          "indexed": false,
          "internalType": "uint32",
          "name": "drawNo",
          "type": "uint32"
        },
        {
          "indexed": false,
          "internalType": "uint256",
          "name": "reward",
          "type": "uint256"
        }
      ],
      "name": "LogClaim",
      "type": "event"
    },
    {
      "anonymous": false,
      "inputs": [
        {
          "indexed": false,
          "internalType": "uint32",
          "name": "drawNo",
          "type": "uint32"
        },
        {
          "indexed": false,
          "internalType": "uint256",
          "name": "duration",
          "type": "uint256"
        },
        {
          "indexed": false,
          "internalType": "uint256",
          "name": "startTime",
          "type": "uint256"
        }
      ],
      "name": "LogNewLottery",
      "type": "event"
    },
    {
      "anonymous": false,
      "inputs": [
        {
          "indexed": true,
          "internalType": "address",
          "name": "previousOwner",
          "type": "address"
        },
        {
          "indexed": true,
          "internalType": "address",
          "name": "newOwner",
          "type": "address"
        }
      ],
      "name": "OwnershipTransferred",
      "type": "event"
    },
    {
      "inputs": [],
      "name": "ORACLE_PAYMENT",
      "outputs": [
        {
          "internalType": "uint256",
          "name": "",
          "type": "uint256"
        }
      ],
      "stateMutability": "view",
      "type": "function"
    },
    {
      "inputs": [
        {
          "internalType": "address",
          "name": "",
          "type": "address"
        },
        {
          "internalType": "uint32",
          "name": "",
          "type": "uint32"
        }
      ],
      "name": "claims",
      "outputs": [
        {
          "internalType": "bool",
          "name": "",
          "type": "bool"
        }
      ],
      "stateMutability": "view",
      "type": "function"
    },
    {
      "inputs": [],
      "name": "drawNo",
      "outputs": [
        {
          "internalType": "uint32",
          "name": "",
          "type": "uint32"
        }
      ],
      "stateMutability": "view",
      "type": "function"
    },
    {
      "inputs": [
        {
          "internalType": "uint32",
          "name": "",
          "type": "uint32"
        }
      ],
      "name": "draws",
      "outputs": [
        {
          "internalType": "enum Lottery.LOTTERY_STATE",
          "name": "state",
          "type": "uint8"
        },
        {
          "internalType": "uint256",
          "name": "rewards",
          "type": "uint256"
        }
      ],
      "stateMutability": "view",
      "type": "function"
    },
    {
      "inputs": [],
      "name": "duration",
      "outputs": [
        {
          "internalType": "uint256",
          "name": "",
          "type": "uint256"
        }
      ],
      "stateMutability": "view",
      "type": "function"
    },
    {
      "inputs": [
        {
          "internalType": "address",
          "name": "",
          "type": "address"
        },
        {
          "internalType": "uint32",
          "name": "",
          "type": "uint32"
        },
        {
          "internalType": "uint256",
          "name": "",
          "type": "uint256"
        },
        {
          "internalType": "uint256",
          "name": "",
          "type": "uint256"
        }
      ],
      "name": "entries",
      "outputs": [
        {
          "internalType": "uint64",
          "name": "",
          "type": "uint64"
        }
      ],
      "stateMutability": "view",
      "type": "function"
    },
    {
      "inputs": [],
      "name": "owner",
      "outputs": [
        {
          "internalType": "address",
          "name": "",
          "type": "address"
        }
      ],
      "stateMutability": "view",
      "type": "function"
    },
    {
      "inputs": [],
      "name": "prizePerEntry",
      "outputs": [
        {
          "internalType": "uint256",
          "name": "",
          "type": "uint256"
        }
      ],
      "stateMutability": "view",
      "type": "function"
    },
    {
      "inputs": [],
      "name": "renounceOwnership",
      "outputs": [],
      "stateMutability": "nonpayable",
      "type": "function"
    },
    {
      "inputs": [],
      "name": "startTime",
      "outputs": [
        {
          "internalType": "uint256",
          "name": "",
          "type": "uint256"
        }
      ],
      "stateMutability": "view",
      "type": "function"
    },
    {
      "inputs": [
        {
          "internalType": "address",
          "name": "newOwner",
          "type": "address"
        }
      ],
      "name": "transferOwnership",
      "outputs": [],
      "stateMutability": "nonpayable",
      "type": "function"
    },
    {
      "inputs": [
        {
          "internalType": "uint256",
          "name": "_prizePerEntry",
          "type": "uint256"
        }
      ],
      "name": "setPrice",
      "outputs": [],
      "stateMutability": "nonpayable",
      "type": "function"
    },
    {
      "inputs": [
        {
          "internalType": "address",
          "name": "_governance",
          "type": "address"
        }
      ],
      "name": "setGovernance",
      "outputs": [],
      "stateMutability": "nonpayable",
      "type": "function"
    },
    {
      "inputs": [
        {
          "internalType": "uint32",
          "name": "_drawNo",
          "type": "uint32"
        }
      ],
      "name": "getEntries",
      "outputs": [
        {
          "internalType": "uint64[]",
          "name": "numbers",
          "type": "uint64[]"
        }
      ],
      "stateMutability": "view",
      "type": "function"
    },
    {
      "inputs": [
        {
          "internalType": "uint32",
          "name": "_drawNo",
          "type": "uint32"
        }
      ],
      "name": "getDrawState",
      "outputs": [
        {
          "internalType": "enum Lottery.LOTTERY_STATE",
          "name": "",
          "type": "uint8"
        }
      ],
      "stateMutability": "view",
      "type": "function"
    },
    {
      "inputs": [
        {
          "internalType": "uint32",
          "name": "_drawNo",
          "type": "uint32"
        }
      ],
      "name": "getDrawRewards",
      "outputs": [
        {
          "internalType": "uint256",
          "name": "",
          "type": "uint256"
        }
      ],
      "stateMutability": "view",
      "type": "function"
    },
    {
      "inputs": [
        {
          "internalType": "uint32",
          "name": "_drawNo",
          "type": "uint32"
        }
      ],
      "name": "getDrawNumbers",
      "outputs": [
        {
          "internalType": "uint32[]",
          "name": "",
          "type": "uint32[]"
        }
      ],
      "stateMutability": "view",
      "type": "function"
    },
    {
      "inputs": [
        {
          "internalType": "uint32[]",
          "name": "numbers",
          "type": "uint32[]"
        }
      ],
      "name": "buy",
      "outputs": [],
      "stateMutability": "payable",
      "type": "function"
    },
    {
      "inputs": [
        {
          "internalType": "uint32",
          "name": "_drawNo",
          "type": "uint32"
        }
      ],
      "name": "claim",
      "outputs": [
        {
          "internalType": "uint256",
          "name": "amount",
          "type": "uint256"
        }
      ],
      "stateMutability": "nonpayable",
      "type": "function"
    },
    {
      "inputs": [
        {
          "internalType": "uint32",
          "name": "_drawNo",
          "type": "uint32"
        }
      ],
      "name": "getResults",
      "outputs": [
        {
          "internalType": "uint256[]",
          "name": "results",
          "type": "uint256[]"
        }
      ],
      "stateMutability": "view",
      "type": "function"
    },
    {
      "inputs": [
        {
          "internalType": "uint256",
          "name": "_duration",
          "type": "uint256"
        }
      ],
      "name": "startNewLottery",
      "outputs": [],
      "stateMutability": "nonpayable",
      "type": "function"
    },
    {
      "inputs": [],
      "name": "startNewLottery",
      "outputs": [],
      "stateMutability": "nonpayable",
      "type": "function"
    },
    {
      "inputs": [
        {
          "internalType": "bytes32",
          "name": "_requestId",
          "type": "bytes32"
        }
      ],
      "name": "fulfillAlarm",
      "outputs": [],
      "stateMutability": "nonpayable",
      "type": "function"
    },
    {
      "inputs": [
        {
          "internalType": "uint256",
          "name": "_number",
          "type": "uint256"
        }
      ],
      "name": "updateDrawNumbers",
      "outputs": [],
      "stateMutability": "nonpayable",
      "type": "function"
    }
  ],
  "bytecode": "0x6080604052600160045567016345785d8a0000600d55600e80546001600160a01b031916737afe1118ea78c1eae84ca8fee5c65bc76ccf879e1790557f3466666634376333393832623462616262613661376464363934633962323034600f553480156200006c57600080fd5b5060405162002c3f38038062002c3f8339810160408190526200008f9162000803565b60006200009b62000630565b600680546001600160a01b0319166001600160a01b038316908117909155604051919250906000907f8be0079c531659141344cd1fd0a4f28419497f9722a3daafe3b4186f6b6457e0908290a350620000f362000634565b6009829055601080546001600160a01b0319166001600160a01b0383811691909117918290556040805163025f5ceb60e21b81529051929091169163097d73ac91600480820192602092909190829003018186803b1580156200015557600080fd5b505afa1580156200016a573d6000803e3d6000fd5b505050506040513d601f19601f820116820180604052508101906200019091906200071a565b601180546001600160a01b0319166001600160a01b039283161790556010546040805163ccbac9f560e01b81529051919092169163ccbac9f5916004808301926020929190829003018186803b158015620001ea57600080fd5b505afa158015620001ff573d6000803e3d6000fd5b505050506040513d601f19601f820116820180604052508101906200022591906200071a565b601280546001600160a01b0319166001600160a01b039283161790556011546040805163187fc7c560e31b81529051919092169163c3fe3e28916004808301926020929190829003018186803b1580156200027f57600080fd5b505afa15801562000294573d6000803e3d6000fd5b505050506040513d601f19601f82011682018060405250810190620002ba91906200073f565b6013819055601154604051637abcfc4160e11b81526001600160a01b039091169163f579f88291620002f0919060040162000832565b6101806040518083038186803b1580156200030a57600080fd5b505afa1580156200031f573d6000803e3d6000fd5b505050506040513d601f19601f8201168201806040525081019062000345919062000758565b60600151601455601154601354604051637abcfc4160e11b81526001600160a01b039092169163f579f882916200037f9160040162000832565b6101806040518083038186803b1580156200039957600080fd5b505afa158015620003ae573d6000803e3d6000fd5b505050506040513d601f19601f82011682018060405250810190620003d4919062000758565b60800151601555601154601354604051637abcfc4160e11b81526001600160a01b039092169163f579f882916200040e9160040162000832565b6101806040518083038186803b1580156200042857600080fd5b505afa1580156200043d573d6000803e3d6000fd5b505050506040513d601f19601f8201168201806040525081019062000463919062000758565b60a00151601655601154601354604051637abcfc4160e11b81526001600160a01b039092169163f579f882916200049d9160040162000832565b6101806040518083038186803b158015620004b757600080fd5b505afa158015620004cc573d6000803e3d6000fd5b505050506040513d601f19601f82011682018060405250810190620004f2919062000758565b60c00151601755601154601354604051637abcfc4160e11b81526001600160a01b039092169163f579f882916200052c9160040162000832565b6101806040518083038186803b1580156200054657600080fd5b505afa1580156200055b573d6000803e3d6000fd5b505050506040513d601f19601f8201168201806040525081019062000581919062000758565b60e00151601855601154601354604051637abcfc4160e11b81526001600160a01b039092169163f579f88291620005bb9160040162000832565b6101806040518083038186803b158015620005d557600080fd5b505afa158015620005ea573d6000803e3d6000fd5b505050506040513d601f19601f8201168201806040525081019062000610919062000758565b610100015160195550506008805463ffffffff1916600117905562000862565b3390565b620006c773c89bd4e1632d3a43cb03aaad5262cbe4038bc5716001600160a01b03166338cc48316040518163ffffffff1660e01b815260040160206040518083038186803b1580156200068657600080fd5b505afa1580156200069b573d6000803e3d6000fd5b505050506040513d601f19601f82011682018060405250810190620006c191906200071a565b620006c9565b565b600280546001600160a01b0319166001600160a01b0392909216919091179055565b80516001600160a01b03811681146200070357600080fd5b92915050565b805180151581146200070357600080fd5b6000602082840312156200072c578081fd5b620007388383620006eb565b9392505050565b60006020828403121562000751578081fd5b5051919050565b60006101808083850312156200076c578182fd5b62000777816200083b565b9050825181526020830151602082015260408301516040820152606083015160608201526080830151608082015260a083015160a082015260c083015160c082015260e083015160e0820152610100808401518183015250610120620007e08582860162000709565b908201526101408381015190820152610160928301519281019290925250919050565b6000806040838503121562000816578081fd5b82519150620008298460208501620006eb565b90509250929050565b90815260200190565b6040518181016001600160401b03811182821017156200085a57600080fd5b604052919050565b6123cd80620008726000396000f3fe60806040526004361061014a5760003560e01c80638da5cb5b116100b6578063d2a3f5111161006f578063d2a3f5111461039e578063e97e8144146103be578063e9f8958f146103eb578063ec47997c14610418578063f2fde38b1461042b578063f6a2a0311461044b5761014a565b80638da5cb5b146102f257806391b7f5ed14610314578063a1fd4b3414610334578063ab033ea914610349578063b62c06aa14610369578063c1e56a8e146103895761014a565b8063458729791161010857806345872979146102375780634edf7a95146102645780634ee2bcaa146102865780635727cb59146102b3578063715018a6146102c857806378e97925146102dd5761014a565b8062a3ddea1461014f57806304951891146101855780630ae28807146101b25780630fb5a6b4146101d457806325777bf8146101e957806341c72bdd14610217575b600080fd5b34801561015b57600080fd5b5061016f61016a366004611dc0565b610478565b60405161017c9190611f78565b60405180910390f35b34801561019157600080fd5b506101a56101a0366004611dc0565b610722565b60405161017c9190612320565b3480156101be57600080fd5b506101c76108e6565b60405161017c9190612329565b3480156101e057600080fd5b506101a56108f2565b3480156101f557600080fd5b50610209610204366004611dc0565b6108f8565b60405161017c92919061205b565b34801561022357600080fd5b506101a5610232366004611dc0565b610917565b34801561024357600080fd5b50610257610252366004611cbd565b610932565b60405161017c9190612358565b34801561027057600080fd5b5061028461027f366004611d90565b61099f565b005b34801561029257600080fd5b506102a66102a1366004611dc0565b610af7565b60405161017c9190611fbc565b3480156102bf57600080fd5b50610284610b8f565b3480156102d457600080fd5b50610284610cf6565b3480156102e957600080fd5b506101a5610d75565b3480156102fe57600080fd5b50610307610d7b565b60405161017c9190611e49565b34801561032057600080fd5b5061028461032f366004611d90565b610d8a565b34801561034057600080fd5b506101a5610dc4565b34801561035557600080fd5b50610284610364366004611c50565b610dca565b34801561037557600080fd5b50610284610384366004611d90565b610e21565b34801561039557600080fd5b506101a5610f97565b3480156103aa57600080fd5b506102846103b9366004611d90565b610f9d565b3480156103ca57600080fd5b506103de6103d9366004611dc0565b611224565b60405161017c9190612047565b3480156103f757600080fd5b5061040b610406366004611c88565b61123f565b60405161017c919061203c565b610284610426366004611d01565b61125f565b34801561043757600080fd5b50610284610446366004611c50565b611323565b34801561045757600080fd5b5061046b610466366004611dc0565b6113da565b60405161017c9190611ffa565b33600090815260076020908152604080832063ffffffff851684529091528120546060915b818163ffffffff16101561071b5763ffffffff84166000908152601a602052604090206002015415610713576000805b6016548163ffffffff1610156105c35760005b6016548163ffffffff1610156105ba5763ffffffff8088166000908152601a6020526040902060020180549091831690811061051857fe5b600091825260208083206008830401543384526007808352604080862063ffffffff8e8116885294529094208054949093166004026101000a900481169290871690811061056257fe5b906000526020600020018363ffffffff168154811061057d57fe5b6000918252602090912060048204015460039091166008026101000a900467ffffffffffffffff1614156105b2576001909201915b6001016104e0565b506001016104cd565b506016546000905b601954601654018110156106b4576016545b601954601654018110156106ab5763ffffffff88166000908152601a6020526040902060020180548290811061060f57fe5b600091825260208083206008830401543384526007808352604080862063ffffffff8f8116885294529094208054949093166004026101000a900481169290881690811061065957fe5b90600052602060002001838154811061066e57fe5b6000918252602090912060048204015460039091166008026101000a900467ffffffffffffffff1614156106a3576001909201915b6001016105dd565b506001016105cb565b5060006106c183836114ca565b905063ffffffff81161561070f5763ffffffff8088166000908152601a602052604090206001015460649183160204868563ffffffff168151811061070257fe5b6020026020010181815250505b5050505b60010161049d565b5050919050565b60008063ffffffff83166000908152601a602052604090205460ff16600281111561074957fe5b1461076f5760405162461bcd60e51b8152600401610766906120b9565b60405180910390fd5b336000908152600c6020908152604080832060085463ffffffff16845290915290205460ff161515600114156107b75760405162461bcd60e51b815260040161076690612244565b60606107c283610478565b905060008151116107e55760405162461bcd60e51b815260040161076690612224565b60005b81518163ffffffff16101561084c576064828263ffffffff168151811061080b57fe5b6020026020010151601a60008763ffffffff1663ffffffff16815260200190815260200160002060010154028161083e57fe5b0492909201916001016107e8565b50604051339083156108fc029084906000818181858888f1935050505015801561087a573d6000803e3d6000fd5b50336000818152600c6020908152604080832063ffffffff8816845290915290819020805460ff19166001179055517ff2084191b01c03730d7c553c24eeefee4958ca9bb48ce1d687466c35de3bf1cf916108d89186908690611ec2565b60405180910390a150919050565b60085463ffffffff1681565b600a5481565b601a602052600090815260409020805460019091015460ff9091169082565b63ffffffff166000908152601a602052604090206001015490565b6007602052836000526040600020602052826000526040600020828154811061095757fe5b90600052602060002001818154811061096c57fe5b90600052602060002090600491828204019190066008029350935050509054906101000a900467ffffffffffffffff1681565b6109a76115bf565b6006546001600160a01b039081169116146109d45760405162461bcd60e51b8152600401610766906121ef565b60085463ffffffff166000908152601a602052604081205460ff1660028111156109fa57fe5b14610a175760405162461bcd60e51b8152600401610766906122f6565b60085463ffffffff166000908152601a60205260409020805460ff19166001179055610a41611b10565b600f54610a569030635b16035560e11b6115c3565b600a83905542600b8190556040805180820190915260058152641d5b9d1a5b60da1b6020820152919250610a8d91839185016115e8565b600e54600d54610aa8916001600160a01b0316908390611606565b50600854600a54600b546040517f4f140cda2ccb7e98fc2df63fb64d9143ce40c30f3331da47c9bae150d9dec9e993610aeb9363ffffffff90911692909161233a565b60405180910390a15050565b63ffffffff81166000908152601a6020908152604091829020600201805483518184028101840190945280845260609392830182828015610b8357602002820191906000526020600020906000905b82829054906101000a900463ffffffff1663ffffffff1681526020019060040190602082600301049283019260010382029150808411610b465790505b50505050509050919050565b60085463ffffffff166000908152601a602052604081205460ff166002811115610bb557fe5b14610bd25760405162461bcd60e51b8152600401610766906122f6565b603c600a541015610bf55760405162461bcd60e51b815260040161076690612128565b62093a80600a541115610c1a5760405162461bcd60e51b815260040161076690612150565b60085463ffffffff166000908152601a60205260409020805460ff19166001179055610c44611b10565b600f54610c599030635b16035560e11b6115c3565b42600b8190556040805180820190915260058152641d5b9d1a5b60da1b6020820152600a54929350610c8d928492016115e8565b600e54600d54610ca8916001600160a01b0316908390611606565b50600854600a54600b546040517f4f140cda2ccb7e98fc2df63fb64d9143ce40c30f3331da47c9bae150d9dec9e993610ceb9363ffffffff90911692909161233a565b60405180910390a150565b610cfe6115bf565b6006546001600160a01b03908116911614610d2b5760405162461bcd60e51b8152600401610766906121ef565b6006546040516000916001600160a01b0316907f8be0079c531659141344cd1fd0a4f28419497f9722a3daafe3b4186f6b6457e0908390a3600680546001600160a01b0319169055565b600b5481565b6006546001600160a01b031690565b610d926115bf565b6006546001600160a01b03908116911614610dbf5760405162461bcd60e51b8152600401610766906121ef565b600955565b600d5481565b610dd26115bf565b6006546001600160a01b03908116911614610dff5760405162461bcd60e51b8152600401610766906121ef565b601080546001600160a01b0319166001600160a01b0392909216919091179055565b60008181526005602052604090205481906001600160a01b03163314610e595760405162461bcd60e51b8152600401610766906122ae565b60008181526005602052604080822080546001600160a01b03191690555182917f7cc135e0cebb02c3480ae5d74d377283180a2601f8f644edf7987b009316c63a91a2600160085463ffffffff166000908152601a602052604090205460ff166002811115610ec457fe5b14610ee15760405162461bcd60e51b8152600401610766906122f6565b6008805463ffffffff9081166000908152601a602052604090819020805460ff1916600217905560125492549051632cdc85e960e21b81526001600160a01b039093169263b37217a492610f4092479116434201010190600401612320565b602060405180830381600087803b158015610f5a57600080fd5b505af1158015610f6e573d6000803e3d6000fd5b505050506040513d601f19601f82011682018060405250810190610f929190611da8565b505050565b60095481565b601060009054906101000a90046001600160a01b03166001600160a01b031663ccbac9f56040518163ffffffff1660e01b815260040160206040518083038186803b158015610feb57600080fd5b505afa158015610fff573d6000803e3d6000fd5b505050506040513d601f19601f820116820180604052508101906110239190611c6c565b6001600160a01b0316336001600160a01b0316146110535760405162461bcd60e51b815260040161076690612177565b600260085463ffffffff166000908152601a602052604090205460ff16600281111561107b57fe5b146110985760405162461bcd60e51b81526004016107669061226d565b600081116110b85760405162461bcd60e51b8152600401610766906121c9565b6008805463ffffffff9081166000908152601a6020526040808220805460ff191690559254909116815290812047600191909101555b6016548163ffffffff1610156111775760085463ffffffff166000908152601a6020526040902060145460155460029092019103600101838161112d57fe5b8254600181018455600093845260209093206008840401805460079094166004026101000a63ffffffff8181021990951693909206909316021790556064820491506001016110ee565b5060005b6019548163ffffffff1610156112045760085463ffffffff166000908152601a602052604090206017546018546002909201910360010183816111ba57fe5b8254600181018455600093845260209093206008840401805460079094166004026101000a63ffffffff81810219909516939092069093160217905560648204915060010161117b565b50506008805463ffffffff8082166001011663ffffffff19909116179055565b63ffffffff166000908152601a602052604090205460ff1690565b600c60209081526000928352604080842090915290825290205460ff1681565b6009543410156112815760405162461bcd60e51b8152600401610766906121a0565b600160085463ffffffff166000908152601a602052604090205460ff1660028111156112a957fe5b146112b357600080fd5b33600090815260076020908152604080832060085463ffffffff16845282528220805460018101825590835291206112ed91018383611b45565b507f45763adba85488ea16a1a3f2a5f44c7c20080d06edf28072acde46addd934ae033348484604051610aeb9493929190611e5d565b61132b6115bf565b6006546001600160a01b039081169116146113585760405162461bcd60e51b8152600401610766906121ef565b6001600160a01b03811661137e5760405162461bcd60e51b815260040161076690612073565b6006546040516001600160a01b038084169216907f8be0079c531659141344cd1fd0a4f28419497f9722a3daafe3b4186f6b6457e090600090a3600680546001600160a01b0319166001600160a01b0392909216919091179055565b33600090815260076020908152604080832063ffffffff8516845290915290205460609080156114c45733600090815260076020908152604080832063ffffffff8716845290915290208054600019830190811061143457fe5b906000526020600020018054806020026020016040519081016040528092919081815260200182805480156114bc57602002820191906000526020600020906000905b82829054906101000a900467ffffffffffffffff1667ffffffffffffffff16815260200190600801906020826007010492830192600103820291508084116114775790505b505050505091505b50919050565b60008263ffffffff16600714156114f6578163ffffffff16600114156114f2575060236114f6565b5060025b8263ffffffff1660061415611520578163ffffffff166001141561151c57506001611520565b5060025b8263ffffffff166005141561154a578163ffffffff16600114156115465750600261154a565b5060075b8263ffffffff16600414801561156657508163ffffffff166001145b1561156f5750600a5b8263ffffffff16600314801561158b57508163ffffffff166001145b156115945750600f5b8263ffffffff1660021480156115b057508163ffffffff166001145b156115b95750601a5b92915050565b3390565b6115cb611b10565b6115d3611b10565b6115df81868686611745565b95945050505050565b60808301516115f79083611782565b6080830151610f929082611799565b60003060045460405160200161161d929190611e27565b60408051808303601f19018152918152815160209283012060045460608701526000818152600590935281832080546001600160a01b0319166001600160a01b038916179055905190925082917fb5e6e01e79f91267dc17b4e6314d5d4d03593d2ceee0fbb452b750bd70ea5af991a26002546001600160a01b0316634000aea085846116a9876117a9565b6040518463ffffffff1660e01b81526004016116c793929190611f51565b602060405180830381600087803b1580156116e157600080fd5b505af11580156116f5573d6000803e3d6000fd5b505050506040513d601f19601f820116820180604052508101906117199190611d70565b6117355760405162461bcd60e51b8152600401610766906120e5565b6004805460010190559392505050565b61174d611b10565b61175d8560800151610100611825565b50509183526001600160a01b031660208301526001600160e01b031916604082015290565b61178f826003835161185f565b610f928282611939565b6117a58260008361185f565b5050565b6060634042994660e01b600080846000015185602001518660400151876060015160018960800151600001516040516024016117ec989796959493929190611ee9565b60408051601f198184030181529190526020810180516001600160e01b03166001600160e01b0319909316929092179091529050919050565b61182d611c02565b60208206156118425760208206602003820191505b506020828101829052604080518085526000815290920101905290565b601781116118805761187a8360e0600585901b16831761195a565b50610f92565b60ff81116118aa5761189d836018611fe0600586901b161761195a565b5061187a83826001611972565b61ffff81116118d5576118c8836019611fe0600586901b161761195a565b5061187a83826002611972565b63ffffffff8111611902576118f583601a611fe0600586901b161761195a565b5061187a83826004611972565b67ffffffffffffffff8111610f925761192683601b611fe0600586901b161761195a565b5061193383826008611972565b50505050565b611941611c02565b61195383846000015151848551611993565b9392505050565b611962611c02565b6119538384600001515184611a3f565b61197a611c02565b61198b848560000151518585611a8a565b949350505050565b61199b611c02565b82518211156119a957600080fd5b846020015182850111156119d3576119d3856119cb8760200151878601611ae8565b600202611af9565b6000808651805187602083010193508088870111156119f25787860182525b505050602084015b60208410611a195780518252601f1990930192602091820191016119fa565b51815160001960208690036101000a019081169019919091161790525083949350505050565b611a47611c02565b83602001518310611a6357611a63848560200151600202611af9565b835180516020858301018481535080851415611a80576001810182525b5093949350505050565b611a92611c02565b84602001518483011115611aaf57611aaf85858401600202611af9565b60006001836101000a039050855183868201018583198251161781525080518487011115611add5783860181525b509495945050505050565b6000818311156114c45750816115b9565b8151611b058383611825565b506119338382611939565b6040805160a081018252600080825260208201819052918101829052606081019190915260808101611b40611c02565b905290565b82805482825590600052602060002090600301600490048101928215611bf25791602002820160005b83821115611bbc57833563ffffffff1683826101000a81548167ffffffffffffffff021916908363ffffffff1602179055509260200192600801602081600701049283019260010302611b6e565b8015611bf05782816101000a81549067ffffffffffffffff0219169055600801602081600701049283019260010302611bbc565b505b50611bfe929150611c1c565b5090565b604051806040016040528060608152602001600081525090565b5b80821115611bfe57805467ffffffffffffffff19168155600101611c1d565b803563ffffffff811681146115b957600080fd5b600060208284031215611c61578081fd5b81356119538161236d565b600060208284031215611c7d578081fd5b81516119538161236d565b60008060408385031215611c9a578081fd5b8235611ca58161236d565b9150611cb48460208501611c3c565b90509250929050565b60008060008060808587031215611cd2578182fd5b8435611cdd8161236d565b9350611cec8660208701611c3c565b93969395505050506040820135916060013590565b60008060208385031215611d13578182fd5b823567ffffffffffffffff80821115611d2a578384fd5b818501915085601f830112611d3d578384fd5b813581811115611d4b578485fd5b8660208083028501011115611d5e578485fd5b60209290920196919550909350505050565b600060208284031215611d81578081fd5b81518015158114611953578182fd5b600060208284031215611da1578081fd5b5035919050565b600060208284031215611db9578081fd5b5051919050565b600060208284031215611dd1578081fd5b813561195381612385565b60008151808452815b81811015611e0157602081850181015186830182015201611de5565b81811115611e125782602083870101525b50601f01601f19169290920160200192915050565b60609290921b6bffffffffffffffffffffffff19168252601482015260340190565b6001600160a01b0391909116815260200190565b6001600160a01b038516815260208082018590526060604083018190528201839052600090849060808401835b86811015611eb5578335611e9d81612385565b63ffffffff1682529282019290820190600101611e8a565b5098975050505050505050565b6001600160a01b0393909316835263ffffffff919091166020830152604082015260600190565b6001600160a01b0389811682526020820189905260408201889052861660608201526001600160e01b03198516608082015260a0810184905260c0810183905261010060e08201819052600090611f4283820185611ddc565b9b9a5050505050505050505050565b600060018060a01b0385168252836020830152606060408301526115df6060830184611ddc565b6020808252825182820181905260009190848201906040850190845b81811015611fb057835183529284019291840191600101611f94565b50909695505050505050565b6020808252825182820181905260009190848201906040850190845b81811015611fb057835163ffffffff1683529284019291840191600101611fd8565b6020808252825182820181905260009190848201906040850190845b81811015611fb057835167ffffffffffffffff1683529284019291840191600101612016565b901515815260200190565b602081016003831061205557fe5b91905290565b604081016003841061206957fe5b9281526020015290565b60208082526026908201527f4f776e61626c653a206e6577206f776e657220697320746865207a65726f206160408201526564647265737360d01b606082015260800190565b602080825260129082015271191c985dcb5a5ccb5b9bdd0b58db1bdcd95960721b604082015260600190565b60208082526023908201527f756e61626c6520746f207472616e73666572416e6443616c6c20746f206f7261604082015262636c6560e81b606082015260800190565b6020808252600e908201526d1d1a5b594b5d1bdbcb5cda1bdc9d60921b604082015260600190565b6020808252600d908201526c74696d652d746f6f2d6c6f6e6760981b604082015260600190565b6020808252600f908201526e696e76616c69642d6164647265737360881b604082015260600190565b6020808252600f908201526e3732b2b216b6b7b93296b2ba3432b960891b604082015260600190565b6020808252600c908201526b3bb937b73396b73ab6b132b960a11b604082015260600190565b6020808252818101527f4f776e61626c653a2063616c6c6572206973206e6f7420746865206f776e6572604082015260600190565b602080825260069082015265373796bbb4b760d11b604082015260600190565b6020808252600f908201526e185b1c9958591e4b58db185a5b5959608a1b604082015260600190565b60208082526021908201527f6c6f74746572792d6e6f742d67657474696e672d72616e646f6d2d6e756d62656040820152603960f91b606082015260800190565b60208082526028908201527f536f75726365206d75737420626520746865206f7261636c65206f6620746865604082015267081c995c5d595cdd60c21b606082015260800190565b60208082526010908201526f3637ba3a32b93c96b737ba16b7b832b760811b604082015260600190565b90815260200190565b63ffffffff91909116815260200190565b63ffffffff9390931683526020830191909152604082015260600190565b67ffffffffffffffff91909116815260200190565b6001600160a01b038116811461238257600080fd5b50565b63ffffffff8116811461238257600080fdfea2646970667358221220660b8c86bf2b1b2c12bc9728ba0995ed9c87103c49f2d68d68d8a4d62555d36264736f6c634300060c0033",
  "immutableReferences": {},
  "source": "// SPDX-License-Identifier: UNLICENSED\npragma experimental ABIEncoderV2;\npragma solidity 0.6.12;\n\nimport \"@chainlink/contracts/src/v0.6/ChainlinkClient.sol\";\nimport \"@openzeppelin/contracts/access/Ownable.sol\";\n\ninterface IMagayoOracle {\n  function game() external view returns (bytes32);\n\n  function duration() external view returns (uint256);\n\n  function games(bytes32 _game) external view returns (Game memory);\n\n  struct Game {\n    bytes32 name;\n    bytes32 country;\n    bytes32 state;\n    uint256 mainMin;\n    uint256 mainMax;\n    uint256 mainDrawn;\n    uint256 bonusMin;\n    uint256 bonusMax;\n    uint256 bonusDrawn;\n    bool sameBalls;\n    uint256 digits;\n    uint256 drawn;\n  }\n}\n\ninterface IRandomNumber {\n  function getRandomNumber(uint256 userProvidedSeed)\n    external\n    returns (bytes32 requestId);\n}\n\ninterface IGovernance {\n  function randomNumber() external view returns (address);\n\n  function magayoOracle() external view returns (address);\n}\n\ncontract Lottery is ChainlinkClient, Ownable {\n  mapping(address => mapping(uint32 => uint64[][])) public entries;\n  uint32 public drawNo;\n  uint256 public prizePerEntry;\n  uint256 public duration;\n  uint256 public startTime;\n  enum LOTTERY_STATE {CLOSED, OPEN, GETTING_RANDOMNUMBER}\n  //  mapping (address => mapping(uint16 => Reward[])) results;\n\n  mapping(address => mapping(uint32 => bool)) public claims;\n\n  // Rinkeby\n  uint256 public ORACLE_PAYMENT = 0.1 * 10**18;\n  address CHAINLINK_ALARM_ORACLE = 0x7AFe1118Ea78C1eae84ca8feE5C65Bc76CcF879e;\n  bytes32 CHAINLINK_ALARM_JOB_ID = \"4fff47c3982b4babba6a7dd694c9b204\";\n  IGovernance iGovernance;\n  IMagayoOracle iMagayoOracle;\n  IRandomNumber iRandomNumber;\n  bytes32 game;\n  uint256 mainMin;\n  uint256 mainMax;\n  uint256 mainDrawn;\n  uint256 bonusMin;\n  uint256 bonusMax;\n  uint256 bonusDrawn;\n\n  struct Draw {\n    LOTTERY_STATE state;\n    uint256 rewards;\n    uint32[] numbers;\n  }\n\n  mapping(uint32 => Draw) public draws;\n\n  event LogBuy(address currentUser, uint256 eValue, uint32[] numbers);\n  event LogClaim(address currentUser, uint32 drawNo, uint256 reward);\n  event LogNewLottery(uint32 drawNo, uint256 duration, uint256 startTime);\n\n  constructor(uint256 _prizePerEntry, address _governance) public {\n    setPublicChainlinkToken();\n    prizePerEntry = _prizePerEntry;\n    iGovernance = IGovernance(_governance);\n    iMagayoOracle = IMagayoOracle(iGovernance.magayoOracle());\n    iRandomNumber = IRandomNumber(iGovernance.randomNumber());\n    game = iMagayoOracle.game();\n    mainMin = iMagayoOracle.games(game).mainMin;\n    mainMax = iMagayoOracle.games(game).mainMax;\n    mainDrawn = iMagayoOracle.games(game).mainDrawn;\n    bonusMin = iMagayoOracle.games(game).bonusMin;\n    bonusMax = iMagayoOracle.games(game).bonusMax;\n    bonusDrawn = iMagayoOracle.games(game).bonusDrawn;\n    drawNo = 1;\n  }\n\n  function setPrice(uint256 _prizePerEntry) external onlyOwner {\n    prizePerEntry = _prizePerEntry;\n  }\n\n  function setGovernance(address _governance) external onlyOwner {\n    iGovernance = IGovernance(_governance);\n  }\n\n  function getEntries(uint32 _drawNo) external view returns(uint64[] memory numbers){\n    // Due to nested array limitation we only return the last entry\n    uint256 length = entries[msg.sender][_drawNo].length;\n    if(length > 0){\n      numbers = entries[msg.sender][_drawNo][length - 1];\n    }\n  }\n\n  function getDrawState(uint32 _drawNo) external view returns(LOTTERY_STATE){\n    return draws[_drawNo].state;\n  }\n\n  function getDrawRewards(uint32 _drawNo) external view returns(uint256){\n    return draws[_drawNo].rewards;\n  }\n\n  function getDrawNumbers(uint32 _drawNo) external view returns(uint32[] memory){\n    return draws[_drawNo].numbers;\n  }\n\n  function buy(uint32[] calldata numbers) external payable {\n    require(msg.value >= prizePerEntry, \"need-more-ether\");\n    require(draws[drawNo].state == LOTTERY_STATE.OPEN);\n    entries[msg.sender][drawNo].push(numbers);\n    emit LogBuy(msg.sender, msg.value, numbers);\n  }\n\n  function claim(uint32 _drawNo) external returns(uint256 amount) {\n    require (draws[_drawNo].state == LOTTERY_STATE.CLOSED, \"draw-is-not-closed\");\n    require (claims[msg.sender][drawNo] != true, \"already-claimed\");\n    uint256[] memory results = getResults(_drawNo);\n    require(results.length > 0, \"no-win\");\n    for(uint32 i = 0; i < results.length; i++){\n      amount += draws[_drawNo].rewards * results[i] / 100;\n    }\n    msg.sender.transfer(amount);\n    claims[msg.sender][_drawNo] = true;\n    emit LogClaim(msg.sender, _drawNo, amount);\n  }\n\n  function getResults(uint32 _drawNo) public view returns (uint256[] memory results){\n    uint256 tickets = entries[msg.sender][_drawNo].length;\n    for (uint32 i = 0; i < tickets; i++){\n      if(draws[_drawNo].numbers.length > 0){\n        uint32 mainWinning = 0;\n        for (uint32 j = 0; j < mainDrawn; j++){\n          for(uint32 k = 0; k < mainDrawn; k++){\n            if(entries[msg.sender][_drawNo][i][j] == draws[_drawNo].numbers[k]){\n              mainWinning++;\n            }\n          }\n        }\n        uint32 bonusWinning = 0;\n        for (uint256 j = mainDrawn; j < mainDrawn + bonusDrawn; j++){\n          for(uint256 k = mainDrawn; k < mainDrawn + bonusDrawn; k++){\n            if(entries[msg.sender][_drawNo][i][j] == draws[_drawNo].numbers[k]){\n              bonusWinning++;\n            }\n          }\n        }\n        uint32 prizeDistribution = calculatePrize(mainWinning, bonusWinning);\n        if(prizeDistribution > 0){\n          results[i] = prizeDistribution * draws[_drawNo].rewards / 100;\n        }\n      }\n    }\n  }\n\n  function calculatePrize(uint32 mainWinning, uint32 bonusWinning) internal view returns(uint32 prizeDistribution){\n    if(mainWinning == 7){\n      if(bonusWinning == 1){\n        prizeDistribution = 35;\n      }\n      else{\n        prizeDistribution = 2;\n      }\n    }\n    if(mainWinning == 6){\n      if(bonusWinning == 1){\n        prizeDistribution = 1;\n      }\n      else{\n        prizeDistribution = 2;\n      }\n    }\n    if(mainWinning == 5){\n      if(bonusWinning == 1){\n        prizeDistribution = 2;\n      }\n      else{\n        prizeDistribution = 7;\n      }\n    }\n    if(mainWinning == 4 && bonusWinning == 1){\n      prizeDistribution = 10;\n    }\n    if(mainWinning == 3 && bonusWinning == 1){\n      prizeDistribution = 15;\n    }\n    if(mainWinning == 2 && bonusWinning == 1){\n      prizeDistribution = 26;\n    }\n  }\n\n  function startNewLottery(uint256 _duration) external onlyOwner {\n    require(draws[drawNo].state == LOTTERY_STATE.CLOSED, \"lottery-not-open\");\n    draws[drawNo].state = LOTTERY_STATE.OPEN;\n    Chainlink.Request memory req = buildChainlinkRequest(\n      CHAINLINK_ALARM_JOB_ID,\n      address(this),\n      this.fulfillAlarm.selector\n    );\n    // Using custom duration for easy testing\n    // uint256 duration = iMagayoOracle.duration();\n    duration = _duration;\n    startTime = now;\n    req.addUint(\"until\", now + duration);\n    sendChainlinkRequestTo(CHAINLINK_ALARM_ORACLE, req, ORACLE_PAYMENT);\n    emit LogNewLottery(drawNo, duration, startTime);\n  }\n\n  function startNewLottery() external {\n    require(draws[drawNo].state == LOTTERY_STATE.CLOSED, \"lottery-not-open\");\n    // More than 1 minute\n    require(duration >= 60, \"time-too-short\");\n    // Less than 1 week\n    require(duration <= 604800, \"time-too-long\");\n    draws[drawNo].state = LOTTERY_STATE.OPEN;\n    Chainlink.Request memory req = buildChainlinkRequest(\n      CHAINLINK_ALARM_JOB_ID,\n      address(this),\n      this.fulfillAlarm.selector\n    );\n    startTime = now;\n    req.addUint(\"until\", now + duration);\n    sendChainlinkRequestTo(CHAINLINK_ALARM_ORACLE, req, ORACLE_PAYMENT);\n    emit LogNewLottery(drawNo, duration, startTime);\n  }\n\n  function fulfillAlarm(bytes32 _requestId)\n    external\n    recordChainlinkFulfillment(_requestId)\n  {\n    require(draws[drawNo].state == LOTTERY_STATE.OPEN, \"lottery-not-open\");\n    draws[drawNo].state = LOTTERY_STATE.GETTING_RANDOMNUMBER;\n    iRandomNumber.getRandomNumber(\n      now + block.number + drawNo + address(this).balance\n    );\n  }\n\n  function updateDrawNumbers(uint256 _number) external {\n    require(msg.sender == iGovernance.randomNumber(), \"invalid-address\");\n    require(\n      draws[drawNo].state == LOTTERY_STATE.GETTING_RANDOMNUMBER,\n      \"lottery-not-getting-random-number\"\n    );\n    require(_number > 0, \"wrong-number\");\n    draws[drawNo].state = LOTTERY_STATE.CLOSED;\n    draws[drawNo].rewards = address(this).balance;\n    for (uint32 i = 0; i < mainDrawn; i++) {\n      draws[drawNo].numbers.push(uint32(_number % (mainMax - mainMin + 1)));\n      _number = _number / 100;\n    }\n    for (uint32 i = 0; i < bonusDrawn; i++) {\n      draws[drawNo].numbers.push(uint32(_number % (bonusMax - bonusMin + 1)));\n      _number = _number / 100;\n    }\n    drawNo++;\n  }\n}\n",
  "sourcePath": "/Users/leckylao/Workspaces/chainlink-hack/contracts/lottery.sol",
  "compiler": {
    "name": "solc",
    "version": "0.6.12+commit.27d51765.Emscripten.clang"
  },
  "schemaVersion": "3.2.5",
  "updatedAt": "2020-09-27T06:13:53.517Z",
  "devdoc": {
    "kind": "dev",
    "methods": {
      "owner()": {
        "details": "Returns the address of the current owner."
      },
      "renounceOwnership()": {
        "details": "Leaves the contract without owner. It will not be possible to call `onlyOwner` functions anymore. Can only be called by the current owner. NOTE: Renouncing ownership will leave the contract without an owner, thereby removing any functionality that is only available to the owner."
      },
      "transferOwnership(address)": {
        "details": "Transfers ownership of the contract to a new account (`newOwner`). Can only be called by the current owner."
      }
    },
    "version": 1
  },
  "userdoc": {
    "kind": "user",
    "methods": {},
    "version": 1
  }
}