{
  "contractName": "Lottery",
  "abi": [
    {
      "inputs": [
        {
          "internalType": "uint256",
          "name": "_prizePerEntry",
          "type": "uint256"
        },
        {
          "internalType": "address",
          "name": "_governance",
          "type": "address"
        }
      ],
      "stateMutability": "nonpayable",
      "type": "constructor"
    },
    {
      "anonymous": false,
      "inputs": [
        {
          "indexed": true,
          "internalType": "bytes32",
          "name": "id",
          "type": "bytes32"
        }
      ],
      "name": "ChainlinkCancelled",
      "type": "event"
    },
    {
      "anonymous": false,
      "inputs": [
        {
          "indexed": true,
          "internalType": "bytes32",
          "name": "id",
          "type": "bytes32"
        }
      ],
      "name": "ChainlinkFulfilled",
      "type": "event"
    },
    {
      "anonymous": false,
      "inputs": [
        {
          "indexed": true,
          "internalType": "bytes32",
          "name": "id",
          "type": "bytes32"
        }
      ],
      "name": "ChainlinkRequested",
      "type": "event"
    },
    {
      "anonymous": false,
      "inputs": [
        {
          "indexed": false,
          "internalType": "address",
          "name": "currentUser",
          "type": "address"
        },
        {
          "indexed": false,
          "internalType": "uint256",
          "name": "eValue",
          "type": "uint256"
        },
        {
          "indexed": false,
          "internalType": "uint32[]",
          "name": "numbers",
          "type": "uint32[]"
        }
      ],
      "name": "LogBuy",
      "type": "event"
    },
    {
      "anonymous": false,
      "inputs": [
        {
          "indexed": false,
          "internalType": "address",
          "name": "currentUser",
          "type": "address"
        },
        {
          "indexed": false,
          "internalType": "uint32",
          "name": "drawNo",
          "type": "uint32"
        },
        {
          "indexed": false,
          "internalType": "uint256",
          "name": "reward",
          "type": "uint256"
        }
      ],
      "name": "LogClaim",
      "type": "event"
    },
    {
      "anonymous": false,
      "inputs": [
        {
          "indexed": false,
          "internalType": "uint32",
          "name": "drawNo",
          "type": "uint32"
        },
        {
          "indexed": false,
          "internalType": "uint256",
          "name": "duration",
          "type": "uint256"
        },
        {
          "indexed": false,
          "internalType": "uint256",
          "name": "startTime",
          "type": "uint256"
        }
      ],
      "name": "LogNewLottery",
      "type": "event"
    },
    {
      "anonymous": false,
      "inputs": [
        {
          "indexed": true,
          "internalType": "address",
          "name": "previousOwner",
          "type": "address"
        },
        {
          "indexed": true,
          "internalType": "address",
          "name": "newOwner",
          "type": "address"
        }
      ],
      "name": "OwnershipTransferred",
      "type": "event"
    },
    {
      "inputs": [],
      "name": "ORACLE_PAYMENT",
      "outputs": [
        {
          "internalType": "uint256",
          "name": "",
          "type": "uint256"
        }
      ],
      "stateMutability": "view",
      "type": "function",
      "constant": true
    },
    {
      "inputs": [
        {
          "internalType": "address",
          "name": "",
          "type": "address"
        },
        {
          "internalType": "uint32",
          "name": "",
          "type": "uint32"
        }
      ],
      "name": "claims",
      "outputs": [
        {
          "internalType": "bool",
          "name": "",
          "type": "bool"
        }
      ],
      "stateMutability": "view",
      "type": "function",
      "constant": true
    },
    {
      "inputs": [],
      "name": "drawNo",
      "outputs": [
        {
          "internalType": "uint32",
          "name": "",
          "type": "uint32"
        }
      ],
      "stateMutability": "view",
      "type": "function",
      "constant": true
    },
    {
      "inputs": [
        {
          "internalType": "uint32",
          "name": "",
          "type": "uint32"
        }
      ],
      "name": "draws",
      "outputs": [
        {
          "internalType": "enum Lottery.LOTTERY_STATE",
          "name": "state",
          "type": "uint8"
        },
        {
          "internalType": "uint256",
          "name": "rewards",
          "type": "uint256"
        }
      ],
      "stateMutability": "view",
      "type": "function",
      "constant": true
    },
    {
      "inputs": [],
      "name": "duration",
      "outputs": [
        {
          "internalType": "uint256",
          "name": "",
          "type": "uint256"
        }
      ],
      "stateMutability": "view",
      "type": "function",
      "constant": true
    },
    {
      "inputs": [
        {
          "internalType": "address",
          "name": "",
          "type": "address"
        },
        {
          "internalType": "uint32",
          "name": "",
          "type": "uint32"
        },
        {
          "internalType": "uint256",
          "name": "",
          "type": "uint256"
        },
        {
          "internalType": "uint256",
          "name": "",
          "type": "uint256"
        }
      ],
      "name": "entries",
      "outputs": [
        {
          "internalType": "uint64",
          "name": "",
          "type": "uint64"
        }
      ],
      "stateMutability": "view",
      "type": "function",
      "constant": true
    },
    {
      "inputs": [],
      "name": "owner",
      "outputs": [
        {
          "internalType": "address",
          "name": "",
          "type": "address"
        }
      ],
      "stateMutability": "view",
      "type": "function",
      "constant": true
    },
    {
      "inputs": [],
      "name": "prizePerEntry",
      "outputs": [
        {
          "internalType": "uint256",
          "name": "",
          "type": "uint256"
        }
      ],
      "stateMutability": "view",
      "type": "function",
      "constant": true
    },
    {
      "inputs": [],
      "name": "renounceOwnership",
      "outputs": [],
      "stateMutability": "nonpayable",
      "type": "function"
    },
    {
      "inputs": [],
      "name": "startTime",
      "outputs": [
        {
          "internalType": "uint256",
          "name": "",
          "type": "uint256"
        }
      ],
      "stateMutability": "view",
      "type": "function",
      "constant": true
    },
    {
      "inputs": [
        {
          "internalType": "address",
          "name": "newOwner",
          "type": "address"
        }
      ],
      "name": "transferOwnership",
      "outputs": [],
      "stateMutability": "nonpayable",
      "type": "function"
    },
    {
      "inputs": [
        {
          "internalType": "uint256",
          "name": "_prizePerEntry",
          "type": "uint256"
        }
      ],
      "name": "setPrice",
      "outputs": [],
      "stateMutability": "nonpayable",
      "type": "function"
    },
    {
      "inputs": [
        {
          "internalType": "address",
          "name": "_governance",
          "type": "address"
        }
      ],
      "name": "setGovernance",
      "outputs": [],
      "stateMutability": "nonpayable",
      "type": "function"
    },
    {
      "inputs": [
        {
          "internalType": "uint32",
          "name": "_drawNo",
          "type": "uint32"
        }
      ],
      "name": "getEntries",
      "outputs": [
        {
          "internalType": "uint64[]",
          "name": "numbers",
          "type": "uint64[]"
        }
      ],
      "stateMutability": "view",
      "type": "function",
      "constant": true
    },
    {
      "inputs": [
        {
          "internalType": "uint32",
          "name": "_drawNo",
          "type": "uint32"
        }
      ],
      "name": "getDrawState",
      "outputs": [
        {
          "internalType": "enum Lottery.LOTTERY_STATE",
          "name": "",
          "type": "uint8"
        }
      ],
      "stateMutability": "view",
      "type": "function",
      "constant": true
    },
    {
      "inputs": [
        {
          "internalType": "uint32",
          "name": "_drawNo",
          "type": "uint32"
        }
      ],
      "name": "getDrawRewards",
      "outputs": [
        {
          "internalType": "uint256",
          "name": "",
          "type": "uint256"
        }
      ],
      "stateMutability": "view",
      "type": "function",
      "constant": true
    },
    {
      "inputs": [
        {
          "internalType": "uint32",
          "name": "_drawNo",
          "type": "uint32"
        }
      ],
      "name": "getDrawNumbers",
      "outputs": [
        {
          "internalType": "uint32[]",
          "name": "",
          "type": "uint32[]"
        }
      ],
      "stateMutability": "view",
      "type": "function",
      "constant": true
    },
    {
      "inputs": [
        {
          "internalType": "uint32[]",
          "name": "numbers",
          "type": "uint32[]"
        }
      ],
      "name": "buy",
      "outputs": [],
      "stateMutability": "payable",
      "type": "function",
      "payable": true
    },
    {
      "inputs": [
        {
          "internalType": "uint32",
          "name": "_drawNo",
          "type": "uint32"
        }
      ],
      "name": "claim",
      "outputs": [
        {
          "internalType": "uint256",
          "name": "amount",
          "type": "uint256"
        }
      ],
      "stateMutability": "nonpayable",
      "type": "function"
    },
    {
      "inputs": [
        {
          "internalType": "uint32",
          "name": "_drawNo",
          "type": "uint32"
        }
      ],
      "name": "getResults",
      "outputs": [
        {
          "internalType": "uint256[]",
          "name": "results",
          "type": "uint256[]"
        }
      ],
      "stateMutability": "view",
      "type": "function",
      "constant": true
    },
    {
      "inputs": [
        {
          "internalType": "uint256",
          "name": "_duration",
          "type": "uint256"
        }
      ],
      "name": "startNewLottery",
      "outputs": [],
      "stateMutability": "nonpayable",
      "type": "function"
    },
    {
      "inputs": [
        {
          "internalType": "bytes32",
          "name": "_requestId",
          "type": "bytes32"
        }
      ],
      "name": "fulfillAlarm",
      "outputs": [],
      "stateMutability": "nonpayable",
      "type": "function"
    },
    {
      "inputs": [
        {
          "internalType": "uint256",
          "name": "_number",
          "type": "uint256"
        }
      ],
      "name": "updateDrawNumbers",
      "outputs": [],
      "stateMutability": "nonpayable",
      "type": "function"
    }
  ],
  "bytecode": "0x6080604052600160045567016345785d8a0000600d55600e8054600160a060020a031916737afe1118ea78c1eae84ca8fee5c65bc76ccf879e1790557f3466666634376333393832623462616262613661376464363934633962323034600f553480156200006c57600080fd5b5060405162002ab138038062002ab18339810160408190526200008f916200067b565b6000620000a464010000000062000483810204565b60068054600160a060020a031916600160a060020a038316908117909155604051919250906000907f8be0079c531659141344cd1fd0a4f28419497f9722a3daafe3b4186f6b6457e0908290a3506200010564010000000062000487810204565b600982905560108054600160a060020a031916600160a060020a038381169190911791829055604080517f097d73ac0000000000000000000000000000000000000000000000000000000081529051929091169163097d73ac91600480820192602092909190829003018186803b1580156200018057600080fd5b505afa15801562000195573d6000803e3d6000fd5b505050506040513d601f19601f82011682018060405250810190620001bb919062000592565b60118054600160a060020a031916600160a060020a03928316179055601054604080517fccbac9f50000000000000000000000000000000000000000000000000000000081529051919092169163ccbac9f5916004808301926020929190829003018186803b1580156200022e57600080fd5b505afa15801562000243573d6000803e3d6000fd5b505050506040513d601f19601f8201168201806040525081019062000269919062000592565b60128054600160a060020a031916600160a060020a03928316179055601154604080517fc3fe3e280000000000000000000000000000000000000000000000000000000081529051919092169163c3fe3e28916004808301926020929190829003018186803b158015620002dc57600080fd5b505afa158015620002f1573d6000803e3d6000fd5b505050506040513d601f19601f82011682018060405250810190620003179190620005b7565b60138190556011546040517ff579f882000000000000000000000000000000000000000000000000000000008152600160a060020a039091169163f579f88291620003669190600401620006aa565b6101806040518083038186803b1580156200038057600080fd5b505afa15801562000395573d6000803e3d6000fd5b505050506040513d601f19601f82011682018060405250810190620003bb9190620005d0565b60a001516014556011546013546040517ff579f882000000000000000000000000000000000000000000000000000000008152600160a060020a039092169163f579f882916200040e91600401620006aa565b6101806040518083038186803b1580156200042857600080fd5b505afa1580156200043d573d6000803e3d6000fd5b505050506040513d601f19601f82011682018060405250810190620004639190620005d0565b610100015160155550506008805463ffffffff19166001179055620006db565b3390565b6200053f73c89bd4e1632d3a43cb03aaad5262cbe4038bc571600160a060020a03166338cc48316040518163ffffffff167c010000000000000000000000000000000000000000000000000000000002815260040160206040518083038186803b158015620004f557600080fd5b505afa1580156200050a573d6000803e3d6000fd5b505050506040513d601f19601f8201168201806040525081019062000530919062000592565b64010000000062000541810204565b565b60028054600160a060020a031916600160a060020a0392909216919091179055565b8051600160a060020a03811681146200057b57600080fd5b92915050565b805180151581146200057b57600080fd5b600060208284031215620005a4578081fd5b620005b0838362000563565b9392505050565b600060208284031215620005c9578081fd5b5051919050565b6000610180808385031215620005e4578182fd5b620005ef81620006b3565b9050825181526020830151602082015260408301516040820152606083015160608201526080830151608082015260a083015160a082015260c083015160c082015260e083015160e0820152610100808401518183015250610120620006588582860162000581565b908201526101408381015190820152610160928301519281019290925250919050565b600080604083850312156200068e578081fd5b82519150620006a1846020850162000563565b90509250929050565b90815260200190565b60405181810167ffffffffffffffff81118282101715620006d357600080fd5b604052919050565b6123c680620006eb6000396000f3fe6080604052600436106101435760003560e060020a900480638da5cb5b116100ba578063d2a3f51111610073578063d2a3f51114610382578063e97e8144146103a2578063e9f8958f146103cf578063ec47997c146103fc578063f2fde38b1461040f578063f6a2a0311461042f57610143565b80638da5cb5b146102d657806391b7f5ed146102f8578063a1fd4b3414610318578063ab033ea91461032d578063b62c06aa1461034d578063c1e56a8e1461036d57610143565b806341c72bdd1161010c57806341c72bdd1461021057806345872979146102305780634edf7a951461025d5780634ee2bcaa1461027f578063715018a6146102ac57806378e97925146102c157610143565b8062a3ddea14610148578063049518911461017e5780630ae28807146101ab5780630fb5a6b4146101cd57806325777bf8146101e2575b600080fd5b34801561015457600080fd5b50610168610163366004611d24565b61045c565b6040516101759190611ef4565b60405180910390f35b34801561018a57600080fd5b5061019e610199366004611d24565b610710565b6040516101759190612319565b3480156101b757600080fd5b506101c06108dd565b6040516101759190612322565b3480156101d957600080fd5b5061019e6108e9565b3480156101ee57600080fd5b506102026101fd366004611d24565b6108ef565b604051610175929190611fd7565b34801561021c57600080fd5b5061019e61022b366004611d24565b61090e565b34801561023c57600080fd5b5061025061024b366004611c21565b610929565b6040516101759190612351565b34801561026957600080fd5b5061027d610278366004611cf4565b610996565b005b34801561028b57600080fd5b5061029f61029a366004611d24565b610b25565b6040516101759190611f38565b3480156102b857600080fd5b5061027d610bbd565b3480156102cd57600080fd5b5061019e610c4c565b3480156102e257600080fd5b506102eb610c52565b6040516101759190611db3565b34801561030457600080fd5b5061027d610313366004611cf4565b610c61565b34801561032457600080fd5b5061019e610c9e565b34801561033957600080fd5b5061027d610348366004611bb4565b610ca4565b34801561035957600080fd5b5061027d610368366004611cf4565b610d0b565b34801561037957600080fd5b5061019e610eae565b34801561038e57600080fd5b5061027d61039d366004611cf4565b610eb4565b3480156103ae57600080fd5b506103c26103bd366004611d24565b611124565b6040516101759190611fc3565b3480156103db57600080fd5b506103ef6103ea366004611bec565b61113f565b6040516101759190611fb8565b61027d61040a366004611c65565b61115f565b34801561041b57600080fd5b5061027d61042a366004611bb4565b611226565b34801561043b57600080fd5b5061044f61044a366004611d24565b6112f0565b6040516101759190611f76565b33600090815260076020908152604080832063ffffffff851684529091528120546060915b818163ffffffff1610156107095763ffffffff841660009081526016602052604090206002015415610701576000805b6014548163ffffffff1610156105a75760005b6014548163ffffffff16101561059e5763ffffffff80881660009081526016602052604090206002018054909183169081106104fc57fe5b600091825260208083206008830401543384526007808352604080862063ffffffff8e8116885294529094208054949093166004026101000a900481169290871690811061054657fe5b906000526020600020018363ffffffff168154811061056157fe5b6000918252602090912060048204015460039091166008026101000a900467ffffffffffffffff161415610596576001909201915b6001016104c4565b506001016104b1565b506000805b6015548163ffffffff1610156106a25760005b6015548163ffffffff1610156106995763ffffffff80891660009081526016602052604090206002018054909183169081106105f757fe5b600091825260208083206008830401543384526007808352604080862063ffffffff8f8116885294529094208054949093166004026101000a900481169290881690811061064157fe5b906000526020600020018363ffffffff168154811061065c57fe5b6000918252602090912060048204015460039091166008026101000a900467ffffffffffffffff161415610691576001909201915b6001016105bf565b506001016105ac565b5060006106af83836113e0565b905063ffffffff8116156106fd5763ffffffff80881660009081526016602052604090206001015460649183160204868563ffffffff16815181106106f057fe5b6020026020010181815250505b5050505b600101610481565b5050919050565b60008063ffffffff831660009081526016602052604090205460ff16600281111561073757fe5b146107605760405160e560020a62461bcd0281526004016107579061204c565b60405180910390fd5b336000908152600c6020908152604080832060085463ffffffff16845290915290205460ff161515600114156107ab5760405160e560020a62461bcd028152600401610757906121f1565b60606107b68361045c565b905060008151116107dc5760405160e560020a62461bcd028152600401610757906121ba565b60005b81518163ffffffff161015610843576064828263ffffffff168151811061080257fe5b6020026020010151601660008763ffffffff1663ffffffff16815260200190815260200160002060010154028161083557fe5b0492909201916001016107df565b50604051339083156108fc029084906000818181858888f19350505050158015610871573d6000803e3d6000fd5b50336000818152600c6020908152604080832063ffffffff8816845290915290819020805460ff19166001179055517ff2084191b01c03730d7c553c24eeefee4958ca9bb48ce1d687466c35de3bf1cf916108cf9186908690611e2c565b60405180910390a150919050565b60085463ffffffff1681565b600a5481565b6016602052600090815260409020805460019091015460ff9091169082565b63ffffffff1660009081526016602052604090206001015490565b6007602052836000526040600020602052826000526040600020828154811061094e57fe5b90600052602060002001818154811061096357fe5b90600052602060002090600491828204019190066008029350935050509054906101000a900467ffffffffffffffff1681565b61099e6114d5565b600654600160a060020a039081169116146109ce5760405160e560020a62461bcd02815260040161075790612185565b60085463ffffffff1660009081526016602052604081205460ff1660028111156109f457fe5b14610a145760405160e560020a62461bcd028152600401610757906122e2565b60085463ffffffff166000908152601660205260409020805460ff19166001179055610a3e611a74565b600f54610a6c90307fb62c06aa000000000000000000000000000000000000000000000000000000006114d9565b600a83905542600b81905560408051808201909152600581527f756e74696c0000000000000000000000000000000000000000000000000000006020820152919250610abb91839185016114fe565b600e54600d54610ad691600160a060020a031690839061151c565b50600854600a54600b546040517f4f140cda2ccb7e98fc2df63fb64d9143ce40c30f3331da47c9bae150d9dec9e993610b199363ffffffff909116929091612333565b60405180910390a15050565b63ffffffff8116600090815260166020908152604091829020600201805483518184028101840190945280845260609392830182828015610bb157602002820191906000526020600020906000905b82829054906101000a900463ffffffff1663ffffffff1681526020019060040190602082600301049283019260010382029150808411610b745790505b50505050509050919050565b610bc56114d5565b600654600160a060020a03908116911614610bf55760405160e560020a62461bcd02815260040161075790612185565b600654604051600091600160a060020a0316907f8be0079c531659141344cd1fd0a4f28419497f9722a3daafe3b4186f6b6457e0908390a36006805473ffffffffffffffffffffffffffffffffffffffff19169055565b600b5481565b600654600160a060020a031690565b610c696114d5565b600654600160a060020a03908116911614610c995760405160e560020a62461bcd02815260040161075790612185565b600955565b600d5481565b610cac6114d5565b600654600160a060020a03908116911614610cdc5760405160e560020a62461bcd02815260040161075790612185565b6010805473ffffffffffffffffffffffffffffffffffffffff1916600160a060020a0392909216919091179055565b6000818152600560205260409020548190600160a060020a03163314610d465760405160e560020a62461bcd02815260040161075790612285565b600081815260056020526040808220805473ffffffffffffffffffffffffffffffffffffffff191690555182917f7cc135e0cebb02c3480ae5d74d377283180a2601f8f644edf7987b009316c63a91a2600160085463ffffffff1660009081526016602052604090205460ff166002811115610dbe57fe5b14610dde5760405160e560020a62461bcd028152600401610757906122e2565b6008805463ffffffff90811660009081526016602052604090819020805460ff19166002179055601254925490517fb37217a4000000000000000000000000000000000000000000000000000000008152600160a060020a039093169263b37217a492610e579230319116434201010190600401612319565b602060405180830381600087803b158015610e7157600080fd5b505af1158015610e85573d6000803e3d6000fd5b505050506040513d601f19601f82011682018060405250810190610ea99190611d0c565b505050565b60095481565b601060009054906101000a9004600160a060020a0316600160a060020a031663ccbac9f56040518163ffffffff1660e060020a02815260040160206040518083038186803b158015610f0557600080fd5b505afa158015610f19573d6000803e3d6000fd5b505050506040513d601f19601f82011682018060405250810190610f3d9190611bd0565b600160a060020a031633600160a060020a031614610f705760405160e560020a62461bcd028152600401610757906120e0565b600260085463ffffffff1660009081526016602052604090205460ff166002811115610f9857fe5b14610fb85760405160e560020a62461bcd02815260040161075790612228565b60008111610fdb5760405160e560020a62461bcd0281526004016107579061214e565b6008805463ffffffff908116600090815260166020526040808220805460ff19169055925490911681529081203031600191909101555b6014548163ffffffff1610156110895760085463ffffffff1660009081526016602052604090206002016064838254600181018455600093845260209093206008840401805460079094166004026101000a63ffffffff818102199095169390920690931602179055606482049150600101611012565b5060005b6015548163ffffffff1610156111045760085463ffffffff1660009081526016602052604090206002016064838254600181018455600093845260209093206008840401805460079094166004026101000a63ffffffff81810219909516939092069093160217905560648204915060010161108d565b50506008805463ffffffff8082166001011663ffffffff19909116179055565b63ffffffff1660009081526016602052604090205460ff1690565b600c60209081526000928352604080842090915290825290205460ff1681565b6009543410156111845760405160e560020a62461bcd02815260040161075790612117565b600160085463ffffffff1660009081526016602052604090205460ff1660028111156111ac57fe5b146111b657600080fd5b33600090815260076020908152604080832060085463ffffffff16845282528220805460018101825590835291206111f091018383611aa9565b507f45763adba85488ea16a1a3f2a5f44c7c20080d06edf28072acde46addd934ae033348484604051610b199493929190611dc7565b61122e6114d5565b600654600160a060020a0390811691161461125e5760405160e560020a62461bcd02815260040161075790612185565b600160a060020a0381166112875760405160e560020a62461bcd02815260040161075790611fef565b600654604051600160a060020a038084169216907f8be0079c531659141344cd1fd0a4f28419497f9722a3daafe3b4186f6b6457e090600090a36006805473ffffffffffffffffffffffffffffffffffffffff1916600160a060020a0392909216919091179055565b33600090815260076020908152604080832063ffffffff8516845290915290205460609080156113da5733600090815260076020908152604080832063ffffffff8716845290915290208054600019830190811061134a57fe5b906000526020600020018054806020026020016040519081016040528092919081815260200182805480156113d257602002820191906000526020600020906000905b82829054906101000a900467ffffffffffffffff1667ffffffffffffffff168152602001906008019060208260070104928301926001038202915080841161138d5790505b505050505091505b50919050565b60008263ffffffff166007141561140c578163ffffffff16600114156114085750602361140c565b5060025b8263ffffffff1660061415611436578163ffffffff166001141561143257506001611436565b5060025b8263ffffffff1660051415611460578163ffffffff166001141561145c57506002611460565b5060075b8263ffffffff16600414801561147c57508163ffffffff166001145b156114855750600a5b8263ffffffff1660031480156114a157508163ffffffff166001145b156114aa5750600f5b8263ffffffff1660021480156114c657508163ffffffff166001145b156114cf5750601a5b92915050565b3390565b6114e1611a74565b6114e9611a74565b6114f58186868661166e565b95945050505050565b608083015161150d90836116c0565b6080830151610ea990826116d7565b600030600454604051602001611533929190611d8b565b60408051808303601f190181529181528151602092830120600454606087015260008181526005909352818320805473ffffffffffffffffffffffffffffffffffffffff1916600160a060020a038916179055905190925082917fb5e6e01e79f91267dc17b4e6314d5d4d03593d2ceee0fbb452b750bd70ea5af991a2600254600160a060020a0316634000aea085846115cc876116e7565b6040518463ffffffff1660e060020a0281526004016115ed93929190611ecc565b602060405180830381600087803b15801561160757600080fd5b505af115801561161b573d6000803e3d6000fd5b505050506040513d601f19601f8201168201806040525081019061163f9190611cd4565b61165e5760405160e560020a62461bcd02815260040161075790612083565b6004805460010190559392505050565b611676611a74565b6116868560800151610100611790565b5050918352600160a060020a031660208301527bffffffffffffffffffffffffffffffffffffffffffffffffffffffff1916604082015290565b6116cd82600383516117ca565b610ea9828261189d565b6116e3826000836117ca565b5050565b6060634042994660e060020a026000808460000151856020015186604001518760600151600189608001516000015160405160240161172d989796959493929190611e53565b60408051601f198184030181529190526020810180517bffffffffffffffffffffffffffffffffffffffffffffffffffffffff167bffffffffffffffffffffffffffffffffffffffffffffffffffffffff19909316929092179091529050919050565b611798611b66565b60208206156117ad5760208206602003820191505b506020828101829052604080518085526000815290920101905290565b601781116117ec576117e68360ff8481166020021683176118be565b50610ea9565b60ff811161181457611807836018602060ff861602176118be565b506117e6838260016118d6565b61ffff811161183d57611830836019602060ff861602176118be565b506117e6838260026118d6565b63ffffffff81116118685761185b83601a602060ff861602176118be565b506117e6838260046118d6565b67ffffffffffffffff8111610ea95761188a83601b602060ff861602176118be565b50611897838260086118d6565b50505050565b6118a5611b66565b6118b7838460000151518485516118f7565b9392505050565b6118c6611b66565b6118b783846000015151846119a3565b6118de611b66565b6118ef8485600001515185856119ee565b949350505050565b6118ff611b66565b825182111561190d57600080fd5b84602001518285011115611937576119378561192f8760200151878601611a4c565b600202611a5d565b6000808651805187602083010193508088870111156119565787860182525b505050602084015b6020841061197d5780518252601f19909301926020918201910161195e565b51815160001960208690036101000a019081169019919091161790525083949350505050565b6119ab611b66565b836020015183106119c7576119c7848560200151600202611a5d565b8351805160208583010184815350808514156119e4576001810182525b5093949350505050565b6119f6611b66565b84602001518483011115611a1357611a1385858401600202611a5d565b60006001836101000a039050855183868201018583198251161781525080518487011115611a415783860181525b509495945050505050565b6000818311156113da5750816114cf565b8151611a698383611790565b50611897838261189d565b6040805160a081018252600080825260208201819052918101829052606081019190915260808101611aa4611b66565b905290565b82805482825590600052602060002090600301600490048101928215611b565791602002820160005b83821115611b2057833563ffffffff1683826101000a81548167ffffffffffffffff021916908363ffffffff1602179055509260200192600801602081600701049283019260010302611ad2565b8015611b545782816101000a81549067ffffffffffffffff0219169055600801602081600701049283019260010302611b20565b505b50611b62929150611b80565b5090565b604051806040016040528060608152602001600081525090565b5b80821115611b6257805467ffffffffffffffff19168155600101611b81565b803563ffffffff811681146114cf57600080fd5b600060208284031215611bc5578081fd5b81356118b781612366565b600060208284031215611be1578081fd5b81516118b781612366565b60008060408385031215611bfe578081fd5b8235611c0981612366565b9150611c188460208501611ba0565b90509250929050565b60008060008060808587031215611c36578182fd5b8435611c4181612366565b9350611c508660208701611ba0565b93969395505050506040820135916060013590565b60008060208385031215611c77578182fd5b823567ffffffffffffffff80821115611c8e578384fd5b818501915085601f830112611ca1578384fd5b813581811115611caf578485fd5b8660208083028501011115611cc2578485fd5b60209290920196919550909350505050565b600060208284031215611ce5578081fd5b815180151581146118b7578182fd5b600060208284031215611d05578081fd5b5035919050565b600060208284031215611d1d578081fd5b5051919050565b600060208284031215611d35578081fd5b81356118b78161237e565b60008151808452815b81811015611d6557602081850181015186830182015201611d49565b81811115611d765782602083870101525b50601f01601f19169290920160200192915050565b600160a060020a03929092166c01000000000000000000000000028252601482015260340190565b600160a060020a0391909116815260200190565b600160a060020a038516815260208082018590526060604083018190528201839052600090849060808401835b86811015611e1f578335611e078161237e565b63ffffffff1682529282019290820190600101611df4565b5098975050505050505050565b600160a060020a0393909316835263ffffffff919091166020830152604082015260600190565b6000610100600160a060020a03808c1684528a60208501528960408501528089166060850152507bffffffffffffffffffffffffffffffffffffffffffffffffffffffff19871660808401528560a08401528460c08401528060e0840152611ebd81840185611d40565b9b9a5050505050505050505050565b6000600160a060020a0385168252836020830152606060408301526114f56060830184611d40565b6020808252825182820181905260009190848201906040850190845b81811015611f2c57835183529284019291840191600101611f10565b50909695505050505050565b6020808252825182820181905260009190848201906040850190845b81811015611f2c57835163ffffffff1683529284019291840191600101611f54565b6020808252825182820181905260009190848201906040850190845b81811015611f2c57835167ffffffffffffffff1683529284019291840191600101611f92565b901515815260200190565b6020810160038310611fd157fe5b91905290565b6040810160038410611fe557fe5b9281526020015290565b60208082526026908201527f4f776e61626c653a206e6577206f776e657220697320746865207a65726f206160408201527f6464726573730000000000000000000000000000000000000000000000000000606082015260800190565b60208082526012908201527f647261772d69732d6e6f742d636c6f7365640000000000000000000000000000604082015260600190565b60208082526023908201527f756e61626c6520746f207472616e73666572416e6443616c6c20746f206f726160408201527f636c650000000000000000000000000000000000000000000000000000000000606082015260800190565b6020808252600f908201527f696e76616c69642d616464726573730000000000000000000000000000000000604082015260600190565b6020808252600f908201527f6e6565642d6d6f72652d65746865720000000000000000000000000000000000604082015260600190565b6020808252600c908201527f77726f6e672d6e756d6265720000000000000000000000000000000000000000604082015260600190565b6020808252818101527f4f776e61626c653a2063616c6c6572206973206e6f7420746865206f776e6572604082015260600190565b60208082526006908201527f6e6f2d77696e0000000000000000000000000000000000000000000000000000604082015260600190565b6020808252600f908201527f616c72656164792d636c61696d65640000000000000000000000000000000000604082015260600190565b60208082526021908201527f6c6f74746572792d6e6f742d67657474696e672d72616e646f6d2d6e756d626560408201527f7200000000000000000000000000000000000000000000000000000000000000606082015260800190565b60208082526028908201527f536f75726365206d75737420626520746865206f7261636c65206f662074686560408201527f2072657175657374000000000000000000000000000000000000000000000000606082015260800190565b60208082526010908201527f6c6f74746572792d6e6f742d6f70656e00000000000000000000000000000000604082015260600190565b90815260200190565b63ffffffff91909116815260200190565b63ffffffff9390931683526020830191909152604082015260600190565b67ffffffffffffffff91909116815260200190565b600160a060020a038116811461237b57600080fd5b50565b63ffffffff8116811461237b57600080fdfea2646970667358221220adbfe6aa0c8a3416a1edf0934dfa4c1b5f47d28a21b23594ec517d80defc032c64736f6c634300060c0033",
  "immutableReferences": {},
  "source": "// SPDX-License-Identifier: UNLICENSED\npragma experimental ABIEncoderV2;\npragma solidity 0.6.12;\n\nimport \"@chainlink/contracts/src/v0.6/ChainlinkClient.sol\";\nimport \"@openzeppelin/contracts/access/Ownable.sol\";\n\ninterface IMagayoOracle {\n  function game() external view returns (bytes32);\n\n  function duration() external view returns (uint256);\n\n  function games(bytes32 _game) external view returns (Game memory);\n\n  struct Game {\n    bytes32 name;\n    bytes32 country;\n    bytes32 state;\n    uint256 mainMin;\n    uint256 mainMax;\n    uint256 mainDrawn;\n    uint256 bonusMin;\n    uint256 bonusMax;\n    uint256 bonusDrawn;\n    bool sameBalls;\n    uint256 digits;\n    uint256 drawn;\n  }\n}\n\ninterface IRandomNumber {\n  function getRandomNumber(uint256 userProvidedSeed)\n    external\n    returns (bytes32 requestId);\n}\n\ninterface IGovernance {\n  function randomNumber() external view returns (address);\n\n  function magayoOracle() external view returns (address);\n}\n\ncontract Lottery is ChainlinkClient, Ownable {\n  mapping(address => mapping(uint32 => uint64[][])) public entries;\n  uint32 public drawNo;\n  uint256 public prizePerEntry;\n  uint256 public duration;\n  uint256 public startTime;\n  enum LOTTERY_STATE {CLOSED, OPEN, GETTING_RANDOMNUMBER}\n  //  mapping (address => mapping(uint16 => Reward[])) results;\n\n  mapping(address => mapping(uint32 => bool)) public claims;\n\n  // Rinkeby\n  uint256 public ORACLE_PAYMENT = 0.1 * 10**18;\n  address CHAINLINK_ALARM_ORACLE = 0x7AFe1118Ea78C1eae84ca8feE5C65Bc76CcF879e;\n  bytes32 CHAINLINK_ALARM_JOB_ID = \"4fff47c3982b4babba6a7dd694c9b204\";\n  IGovernance iGovernance;\n  IMagayoOracle iMagayoOracle;\n  IRandomNumber iRandomNumber;\n  bytes32 game;\n  uint256 mainDrawn;\n  uint256 bonusDrawn;\n\n  struct Draw {\n    LOTTERY_STATE state;\n    uint256 rewards;\n    uint32[] numbers;\n  }\n\n  mapping(uint32 => Draw) public draws;\n\n  event LogBuy(address currentUser, uint256 eValue, uint32[] numbers);\n  event LogClaim(address currentUser, uint32 drawNo, uint256 reward);\n  event LogNewLottery(uint32 drawNo, uint256 duration, uint256 startTime);\n\n  constructor(uint256 _prizePerEntry, address _governance) public {\n    setPublicChainlinkToken();\n    prizePerEntry = _prizePerEntry;\n    iGovernance = IGovernance(_governance);\n    iMagayoOracle = IMagayoOracle(iGovernance.magayoOracle());\n    iRandomNumber = IRandomNumber(iGovernance.randomNumber());\n    game = iMagayoOracle.game();\n    mainDrawn = iMagayoOracle.games(game).mainDrawn;\n    bonusDrawn = iMagayoOracle.games(game).bonusDrawn;\n    drawNo = 1;\n  }\n\n  function setPrice(uint256 _prizePerEntry) external onlyOwner {\n    prizePerEntry = _prizePerEntry;\n  }\n\n  function setGovernance(address _governance) external onlyOwner {\n    iGovernance = IGovernance(_governance);\n  }\n\n  function getEntries(uint32 _drawNo) external view returns(uint64[] memory numbers){\n    // Due to nested array limitation we only return the last entry\n    uint256 length = entries[msg.sender][_drawNo].length;\n    if(length > 0){\n      numbers = entries[msg.sender][_drawNo][length - 1];\n    }\n  }\n\n  function getDrawState(uint32 _drawNo) external view returns(LOTTERY_STATE){\n    return draws[_drawNo].state;\n  }\n\n  function getDrawRewards(uint32 _drawNo) external view returns(uint256){\n    return draws[_drawNo].rewards;\n  }\n\n  function getDrawNumbers(uint32 _drawNo) external view returns(uint32[] memory){\n    return draws[_drawNo].numbers;\n  }\n\n  function buy(uint32[] calldata numbers) external payable {\n    require(msg.value >= prizePerEntry, \"need-more-ether\");\n    require(draws[drawNo].state == LOTTERY_STATE.OPEN);\n    entries[msg.sender][drawNo].push(numbers);\n    emit LogBuy(msg.sender, msg.value, numbers);\n  }\n\n  function claim(uint32 _drawNo) external returns(uint256 amount) {\n    require (draws[_drawNo].state == LOTTERY_STATE.CLOSED, \"draw-is-not-closed\");\n    require (claims[msg.sender][drawNo] != true, \"already-claimed\");\n    uint256[] memory results = getResults(_drawNo);\n    require(results.length > 0, \"no-win\");\n    for(uint32 i = 0; i < results.length; i++){\n      amount += draws[_drawNo].rewards * results[i] / 100;\n    }\n    msg.sender.transfer(amount);\n    claims[msg.sender][_drawNo] = true;\n    emit LogClaim(msg.sender, _drawNo, amount);\n  }\n\n  function getResults(uint32 _drawNo) public view returns (uint256[] memory results){\n    uint256 tickets = entries[msg.sender][_drawNo].length;\n    for (uint32 i = 0; i < tickets; i++){\n      if(draws[_drawNo].numbers.length > 0){\n        uint32 mainWinning = 0;\n        for (uint32 j = 0; j < mainDrawn; j++){\n          for(uint32 k = 0; k < mainDrawn; k++){\n            if(entries[msg.sender][_drawNo][i][j] == draws[_drawNo].numbers[k]){\n              mainWinning++;\n            }\n          }\n        }\n        uint32 bonusWinning = 0;\n        for (uint32 j = 0; j < bonusDrawn; j++){\n          for(uint32 k = 0; k < bonusDrawn; k++){\n            if(entries[msg.sender][_drawNo][i][j] == draws[_drawNo].numbers[k]){\n              bonusWinning++;\n            }\n          }\n        }\n        uint32 prizeDistribution = calculatePrize(mainWinning, bonusWinning);\n        if(prizeDistribution > 0){\n          results[i] = prizeDistribution * draws[_drawNo].rewards / 100;\n        }\n      }\n    }\n  }\n\n  function calculatePrize(uint32 mainWinning, uint32 bonusWinning) internal view returns(uint32 prizeDistribution){\n    if(mainWinning == 7){\n      if(bonusWinning == 1){\n        prizeDistribution = 35;\n      }\n      else{\n        prizeDistribution = 2;\n      }\n    }\n    if(mainWinning == 6){\n      if(bonusWinning == 1){\n        prizeDistribution = 1;\n      }\n      else{\n        prizeDistribution = 2;\n      }\n    }\n    if(mainWinning == 5){\n      if(bonusWinning == 1){\n        prizeDistribution = 2;\n      }\n      else{\n        prizeDistribution = 7;\n      }\n    }\n    if(mainWinning == 4 && bonusWinning == 1){\n      prizeDistribution = 10;\n    }\n    if(mainWinning == 3 && bonusWinning == 1){\n      prizeDistribution = 15;\n    }\n    if(mainWinning == 2 && bonusWinning == 1){\n      prizeDistribution = 26;\n    }\n  }\n\n  function startNewLottery(uint256 _duration) external onlyOwner {\n    require(draws[drawNo].state == LOTTERY_STATE.CLOSED, \"lottery-not-open\");\n    draws[drawNo].state = LOTTERY_STATE.OPEN;\n    Chainlink.Request memory req = buildChainlinkRequest(\n      CHAINLINK_ALARM_JOB_ID,\n      address(this),\n      this.fulfillAlarm.selector\n    );\n    // Using custom duration for easy testing\n    // uint256 duration = iMagayoOracle.duration();\n    duration = _duration;\n    startTime = now;\n    req.addUint(\"until\", now + duration);\n    sendChainlinkRequestTo(CHAINLINK_ALARM_ORACLE, req, ORACLE_PAYMENT);\n    emit LogNewLottery(drawNo, duration, startTime);\n  }\n\n  function fulfillAlarm(bytes32 _requestId)\n    external\n    recordChainlinkFulfillment(_requestId)\n  {\n    require(draws[drawNo].state == LOTTERY_STATE.OPEN, \"lottery-not-open\");\n    draws[drawNo].state = LOTTERY_STATE.GETTING_RANDOMNUMBER;\n    iRandomNumber.getRandomNumber(\n      now + block.number + drawNo + address(this).balance\n    );\n  }\n\n  function updateDrawNumbers(uint256 _number) external {\n    require(msg.sender == iGovernance.randomNumber(), \"invalid-address\");\n    require(\n      draws[drawNo].state == LOTTERY_STATE.GETTING_RANDOMNUMBER,\n      \"lottery-not-getting-random-number\"\n    );\n    require(_number > 0, \"wrong-number\");\n    draws[drawNo].state = LOTTERY_STATE.CLOSED;\n    draws[drawNo].rewards = address(this).balance;\n    for (uint32 i = 0; i < mainDrawn; i++) {\n      draws[drawNo].numbers.push(uint32(_number % 100));\n      _number = _number / 100;\n    }\n    for (uint32 i = 0; i < bonusDrawn; i++) {\n      draws[drawNo].numbers.push(uint32(_number % 100));\n      _number = _number / 100;\n    }\n    drawNo++;\n  }\n}\n",
  "sourcePath": "/Users/leckylao/Workspaces/chainlink-hack/contracts/Lottery.sol",
  "compiler": {
    "name": "solc",
    "version": "0.6.12+commit.27d51765.Emscripten.clang"
  },
  "schemaVersion": "3.2.5",
  "updatedAt": "2020-09-26T07:30:10.893Z",
  "networkType": "ethereum",
  "devdoc": {
    "kind": "dev",
    "methods": {
      "owner()": {
        "details": "Returns the address of the current owner."
      },
      "renounceOwnership()": {
        "details": "Leaves the contract without owner. It will not be possible to call `onlyOwner` functions anymore. Can only be called by the current owner. NOTE: Renouncing ownership will leave the contract without an owner, thereby removing any functionality that is only available to the owner."
      },
      "transferOwnership(address)": {
        "details": "Transfers ownership of the contract to a new account (`newOwner`). Can only be called by the current owner."
      }
    },
    "version": 1
  },
  "userdoc": {
    "kind": "user",
    "methods": {},
    "version": 1
  }
}