{
  "contractName": "Lottery",
  "abi": [
    {
      "inputs": [
        {
          "internalType": "uint256",
          "name": "_prizePerEntry",
          "type": "uint256"
        },
        {
          "internalType": "address",
          "name": "_governance",
          "type": "address"
        }
      ],
      "stateMutability": "nonpayable",
      "type": "constructor"
    },
    {
      "anonymous": false,
      "inputs": [
        {
          "indexed": true,
          "internalType": "bytes32",
          "name": "id",
          "type": "bytes32"
        }
      ],
      "name": "ChainlinkCancelled",
      "type": "event"
    },
    {
      "anonymous": false,
      "inputs": [
        {
          "indexed": true,
          "internalType": "bytes32",
          "name": "id",
          "type": "bytes32"
        }
      ],
      "name": "ChainlinkFulfilled",
      "type": "event"
    },
    {
      "anonymous": false,
      "inputs": [
        {
          "indexed": true,
          "internalType": "bytes32",
          "name": "id",
          "type": "bytes32"
        }
      ],
      "name": "ChainlinkRequested",
      "type": "event"
    },
    {
      "anonymous": false,
      "inputs": [
        {
          "indexed": false,
          "internalType": "address",
          "name": "currentUser",
          "type": "address"
        },
        {
          "indexed": false,
          "internalType": "uint256",
          "name": "eValue",
          "type": "uint256"
        },
        {
          "indexed": false,
          "internalType": "uint32[]",
          "name": "numbers",
          "type": "uint32[]"
        }
      ],
      "name": "LogBuy",
      "type": "event"
    },
    {
      "anonymous": false,
      "inputs": [
        {
          "indexed": false,
          "internalType": "address",
          "name": "currentUser",
          "type": "address"
        },
        {
          "indexed": false,
          "internalType": "uint32",
          "name": "drawNo",
          "type": "uint32"
        },
        {
          "indexed": false,
          "internalType": "uint256",
          "name": "reward",
          "type": "uint256"
        }
      ],
      "name": "LogClaim",
      "type": "event"
    },
    {
      "anonymous": false,
      "inputs": [
        {
          "indexed": false,
          "internalType": "uint32",
          "name": "drawNo",
          "type": "uint32"
        },
        {
          "indexed": false,
          "internalType": "uint256",
          "name": "duration",
          "type": "uint256"
        },
        {
          "indexed": false,
          "internalType": "uint256",
          "name": "startTime",
          "type": "uint256"
        }
      ],
      "name": "LogNewLottery",
      "type": "event"
    },
    {
      "anonymous": false,
      "inputs": [
        {
          "indexed": true,
          "internalType": "address",
          "name": "previousOwner",
          "type": "address"
        },
        {
          "indexed": true,
          "internalType": "address",
          "name": "newOwner",
          "type": "address"
        }
      ],
      "name": "OwnershipTransferred",
      "type": "event"
    },
    {
      "inputs": [],
      "name": "ORACLE_PAYMENT",
      "outputs": [
        {
          "internalType": "uint256",
          "name": "",
          "type": "uint256"
        }
      ],
      "stateMutability": "view",
      "type": "function",
      "constant": true
    },
    {
      "inputs": [
        {
          "internalType": "address",
          "name": "",
          "type": "address"
        },
        {
          "internalType": "uint32",
          "name": "",
          "type": "uint32"
        }
      ],
      "name": "claims",
      "outputs": [
        {
          "internalType": "bool",
          "name": "",
          "type": "bool"
        }
      ],
      "stateMutability": "view",
      "type": "function",
      "constant": true
    },
    {
      "inputs": [],
      "name": "drawNo",
      "outputs": [
        {
          "internalType": "uint32",
          "name": "",
          "type": "uint32"
        }
      ],
      "stateMutability": "view",
      "type": "function",
      "constant": true
    },
    {
      "inputs": [
        {
          "internalType": "uint32",
          "name": "",
          "type": "uint32"
        }
      ],
      "name": "draws",
      "outputs": [
        {
          "internalType": "enum Lottery.LOTTERY_STATE",
          "name": "state",
          "type": "uint8"
        },
        {
          "internalType": "uint256",
          "name": "rewards",
          "type": "uint256"
        }
      ],
      "stateMutability": "view",
      "type": "function",
      "constant": true
    },
    {
      "inputs": [],
      "name": "duration",
      "outputs": [
        {
          "internalType": "uint256",
          "name": "",
          "type": "uint256"
        }
      ],
      "stateMutability": "view",
      "type": "function",
      "constant": true
    },
    {
      "inputs": [
        {
          "internalType": "address",
          "name": "",
          "type": "address"
        },
        {
          "internalType": "uint32",
          "name": "",
          "type": "uint32"
        },
        {
          "internalType": "uint256",
          "name": "",
          "type": "uint256"
        },
        {
          "internalType": "uint256",
          "name": "",
          "type": "uint256"
        }
      ],
      "name": "entries",
      "outputs": [
        {
          "internalType": "uint64",
          "name": "",
          "type": "uint64"
        }
      ],
      "stateMutability": "view",
      "type": "function",
      "constant": true
    },
    {
      "inputs": [],
      "name": "owner",
      "outputs": [
        {
          "internalType": "address",
          "name": "",
          "type": "address"
        }
      ],
      "stateMutability": "view",
      "type": "function",
      "constant": true
    },
    {
      "inputs": [],
      "name": "prizePerEntry",
      "outputs": [
        {
          "internalType": "uint256",
          "name": "",
          "type": "uint256"
        }
      ],
      "stateMutability": "view",
      "type": "function",
      "constant": true
    },
    {
      "inputs": [],
      "name": "renounceOwnership",
      "outputs": [],
      "stateMutability": "nonpayable",
      "type": "function"
    },
    {
      "inputs": [],
      "name": "startTime",
      "outputs": [
        {
          "internalType": "uint256",
          "name": "",
          "type": "uint256"
        }
      ],
      "stateMutability": "view",
      "type": "function",
      "constant": true
    },
    {
      "inputs": [
        {
          "internalType": "address",
          "name": "newOwner",
          "type": "address"
        }
      ],
      "name": "transferOwnership",
      "outputs": [],
      "stateMutability": "nonpayable",
      "type": "function"
    },
    {
      "inputs": [
        {
          "internalType": "uint256",
          "name": "_prizePerEntry",
          "type": "uint256"
        }
      ],
      "name": "setPrice",
      "outputs": [],
      "stateMutability": "nonpayable",
      "type": "function"
    },
    {
      "inputs": [
        {
          "internalType": "address",
          "name": "_governance",
          "type": "address"
        }
      ],
      "name": "setGovernance",
      "outputs": [],
      "stateMutability": "nonpayable",
      "type": "function"
    },
    {
      "inputs": [
        {
          "internalType": "uint32",
          "name": "_drawNo",
          "type": "uint32"
        }
      ],
      "name": "getEntries",
      "outputs": [
        {
          "internalType": "uint64[]",
          "name": "numbers",
          "type": "uint64[]"
        }
      ],
      "stateMutability": "view",
      "type": "function",
      "constant": true
    },
    {
      "inputs": [
        {
          "internalType": "uint32",
          "name": "_drawNo",
          "type": "uint32"
        }
      ],
      "name": "getDrawState",
      "outputs": [
        {
          "internalType": "enum Lottery.LOTTERY_STATE",
          "name": "",
          "type": "uint8"
        }
      ],
      "stateMutability": "view",
      "type": "function",
      "constant": true
    },
    {
      "inputs": [
        {
          "internalType": "uint32",
          "name": "_drawNo",
          "type": "uint32"
        }
      ],
      "name": "getDrawRewards",
      "outputs": [
        {
          "internalType": "uint256",
          "name": "",
          "type": "uint256"
        }
      ],
      "stateMutability": "view",
      "type": "function",
      "constant": true
    },
    {
      "inputs": [
        {
          "internalType": "uint32",
          "name": "_drawNo",
          "type": "uint32"
        }
      ],
      "name": "getDrawNumbers",
      "outputs": [
        {
          "internalType": "uint32[]",
          "name": "",
          "type": "uint32[]"
        }
      ],
      "stateMutability": "view",
      "type": "function",
      "constant": true
    },
    {
      "inputs": [
        {
          "internalType": "uint32[]",
          "name": "numbers",
          "type": "uint32[]"
        }
      ],
      "name": "buy",
      "outputs": [],
      "stateMutability": "payable",
      "type": "function",
      "payable": true
    },
    {
      "inputs": [
        {
          "internalType": "uint32",
          "name": "_drawNo",
          "type": "uint32"
        }
      ],
      "name": "claim",
      "outputs": [
        {
          "internalType": "uint256",
          "name": "amount",
          "type": "uint256"
        }
      ],
      "stateMutability": "nonpayable",
      "type": "function"
    },
    {
      "inputs": [
        {
          "internalType": "uint32",
          "name": "_drawNo",
          "type": "uint32"
        }
      ],
      "name": "getResults",
      "outputs": [
        {
          "internalType": "uint256[]",
          "name": "results",
          "type": "uint256[]"
        }
      ],
      "stateMutability": "view",
      "type": "function",
      "constant": true
    },
    {
      "inputs": [
        {
          "internalType": "uint256",
          "name": "_duration",
          "type": "uint256"
        }
      ],
      "name": "startNewLottery",
      "outputs": [],
      "stateMutability": "nonpayable",
      "type": "function"
    },
    {
      "inputs": [
        {
          "internalType": "bytes32",
          "name": "_requestId",
          "type": "bytes32"
        }
      ],
      "name": "fulfillAlarm",
      "outputs": [],
      "stateMutability": "nonpayable",
      "type": "function"
    },
    {
      "inputs": [
        {
          "internalType": "uint256",
          "name": "_number",
          "type": "uint256"
        }
      ],
      "name": "updateDrawNumbers",
      "outputs": [],
      "stateMutability": "nonpayable",
      "type": "function"
    }
  ],
  "bytecode": "0x6080604052600160045567016345785d8a0000600d55600e80546001600160a01b031916737afe1118ea78c1eae84ca8fee5c65bc76ccf879e1790557f3466666634376333393832623462616262613661376464363934633962323034600f553480156200006c57600080fd5b50604051620027d2380380620027d28339810160408190526200008f91620005c7565b60006200009b620003f4565b600680546001600160a01b0319166001600160a01b038316908117909155604051919250906000907f8be0079c531659141344cd1fd0a4f28419497f9722a3daafe3b4186f6b6457e0908290a350620000f3620003f8565b6009829055601080546001600160a01b0319166001600160a01b0383811691909117918290556040805163025f5ceb60e21b81529051929091169163097d73ac91600480820192602092909190829003018186803b1580156200015557600080fd5b505afa1580156200016a573d6000803e3d6000fd5b505050506040513d601f19601f82011682018060405250810190620001909190620004de565b601180546001600160a01b0319166001600160a01b039283161790556010546040805163ccbac9f560e01b81529051919092169163ccbac9f5916004808301926020929190829003018186803b158015620001ea57600080fd5b505afa158015620001ff573d6000803e3d6000fd5b505050506040513d601f19601f82011682018060405250810190620002259190620004de565b601280546001600160a01b0319166001600160a01b039283161790556011546040805163187fc7c560e31b81529051919092169163c3fe3e28916004808301926020929190829003018186803b1580156200027f57600080fd5b505afa15801562000294573d6000803e3d6000fd5b505050506040513d601f19601f82011682018060405250810190620002ba919062000503565b6013819055601154604051637abcfc4160e11b81526001600160a01b039091169163f579f88291620002f09190600401620005f6565b6101806040518083038186803b1580156200030a57600080fd5b505afa1580156200031f573d6000803e3d6000fd5b505050506040513d601f19601f820116820180604052508101906200034591906200051c565b60a00151601455601154601354604051637abcfc4160e11b81526001600160a01b039092169163f579f882916200037f91600401620005f6565b6101806040518083038186803b1580156200039957600080fd5b505afa158015620003ae573d6000803e3d6000fd5b505050506040513d601f19601f82011682018060405250810190620003d491906200051c565b610100015160155550506008805463ffffffff1916600117905562000626565b3390565b6200048b73c89bd4e1632d3a43cb03aaad5262cbe4038bc5716001600160a01b03166338cc48316040518163ffffffff1660e01b815260040160206040518083038186803b1580156200044a57600080fd5b505afa1580156200045f573d6000803e3d6000fd5b505050506040513d601f19601f82011682018060405250810190620004859190620004de565b6200048d565b565b600280546001600160a01b0319166001600160a01b0392909216919091179055565b80516001600160a01b0381168114620004c757600080fd5b92915050565b80518015158114620004c757600080fd5b600060208284031215620004f0578081fd5b620004fc8383620004af565b9392505050565b60006020828403121562000515578081fd5b5051919050565b600061018080838503121562000530578182fd5b6200053b81620005ff565b9050825181526020830151602082015260408301516040820152606083015160608201526080830151608082015260a083015160a082015260c083015160c082015260e083015160e0820152610100808401518183015250610120620005a485828601620004cd565b908201526101408381015190820152610160928301519281019290925250919050565b60008060408385031215620005da578081fd5b82519150620005ed8460208501620004af565b90509250929050565b90815260200190565b6040518181016001600160401b03811182821017156200061e57600080fd5b604052919050565b61219c80620006366000396000f3fe60806040526004361061013f5760003560e01c80638da5cb5b116100b6578063d2a3f5111161006f578063d2a3f5111461037e578063e97e81441461039e578063e9f8958f146103cb578063ec47997c146103f8578063f2fde38b1461040b578063f6a2a0311461042b5761013f565b80638da5cb5b146102d257806391b7f5ed146102f4578063a1fd4b3414610314578063ab033ea914610329578063b62c06aa14610349578063c1e56a8e146103695761013f565b806341c72bdd1161010857806341c72bdd1461020c578063458729791461022c5780634edf7a95146102595780634ee2bcaa1461027b578063715018a6146102a857806378e97925146102bd5761013f565b8062a3ddea14610144578063049518911461017a5780630ae28807146101a75780630fb5a6b4146101c957806325777bf8146101de575b600080fd5b34801561015057600080fd5b5061016461015f366004611bde565b610458565b6040516101719190611d96565b60405180910390f35b34801561018657600080fd5b5061019a610195366004611bde565b6106ed565b60405161017191906120ef565b3480156101b357600080fd5b506101bc6108b1565b60405161017191906120f8565b3480156101d557600080fd5b5061019a6108bd565b3480156101ea57600080fd5b506101fe6101f9366004611bde565b6108c3565b604051610171929190611e79565b34801561021857600080fd5b5061019a610227366004611bde565b6108e2565b34801561023857600080fd5b5061024c610247366004611adb565b6108fd565b6040516101719190612127565b34801561026557600080fd5b50610279610274366004611bae565b61096a565b005b34801561028757600080fd5b5061029b610296366004611bde565b610ac2565b6040516101719190611dda565b3480156102b457600080fd5b50610279610b5a565b3480156102c957600080fd5b5061019a610bd9565b3480156102de57600080fd5b506102e7610bdf565b6040516101719190611c67565b34801561030057600080fd5b5061027961030f366004611bae565b610bee565b34801561032057600080fd5b5061019a610c28565b34801561033557600080fd5b50610279610344366004611a6e565b610c2e565b34801561035557600080fd5b50610279610364366004611bae565b610c85565b34801561037557600080fd5b5061019a610dfb565b34801561038a57600080fd5b50610279610399366004611bae565b610e01565b3480156103aa57600080fd5b506103be6103b9366004611bde565b611064565b6040516101719190611e65565b3480156103d757600080fd5b506103eb6103e6366004611aa6565b61107f565b6040516101719190611e5a565b610279610406366004611b1f565b61109f565b34801561041757600080fd5b50610279610426366004611a6e565b611163565b34801561043757600080fd5b5061044b610446366004611bde565b61121a565b6040516101719190611e18565b33600090815260076020908152604080832063ffffffff851684529091528120546060915b818163ffffffff1610156106e6576000805b6014548163ffffffff1610156105855760005b6014548163ffffffff16101561057c5763ffffffff80881660009081526016602052604090206002018054909183169081106104da57fe5b600091825260208083206008830401543384526007808352604080862063ffffffff8e8116885294529094208054949093166004026101000a900481169290871690811061052457fe5b906000526020600020018363ffffffff168154811061053f57fe5b6000918252602090912060048204015460039091166008026101000a900467ffffffffffffffff161415610574576001909201915b6001016104a2565b5060010161048f565b506000805b6015548163ffffffff1610156106805760005b6015548163ffffffff1610156106775763ffffffff80891660009081526016602052604090206002018054909183169081106105d557fe5b600091825260208083206008830401543384526007808352604080862063ffffffff8f8116885294529094208054949093166004026101000a900481169290881690811061061f57fe5b906000526020600020018363ffffffff168154811061063a57fe5b6000918252602090912060048204015460039091166008026101000a900467ffffffffffffffff16141561066f576001909201915b60010161059d565b5060010161058a565b50600061068d83836112e2565b905063ffffffff8116156106db5763ffffffff80881660009081526016602052604090206001015460649183160204868563ffffffff16815181106106ce57fe5b6020026020010181815250505b50505060010161047d565b5050919050565b60008063ffffffff831660009081526016602052604090205460ff16600281111561071457fe5b1461073a5760405162461bcd60e51b815260040161073190611ed7565b60405180910390fd5b336000908152600c6020908152604080832060085463ffffffff16845290915290205460ff161515600114156107825760405162461bcd60e51b815260040161073190612013565b606061078d83610458565b905060008151116107b05760405162461bcd60e51b815260040161073190611ff3565b60005b81518163ffffffff161015610817576064828263ffffffff16815181106107d657fe5b6020026020010151601660008763ffffffff1663ffffffff16815260200190815260200160002060010154028161080957fe5b0492909201916001016107b3565b50604051339083156108fc029084906000818181858888f19350505050158015610845573d6000803e3d6000fd5b50336000818152600c6020908152604080832063ffffffff8816845290915290819020805460ff19166001179055517ff2084191b01c03730d7c553c24eeefee4958ca9bb48ce1d687466c35de3bf1cf916108a39186908690611ce0565b60405180910390a150919050565b60085463ffffffff1681565b600a5481565b6016602052600090815260409020805460019091015460ff9091169082565b63ffffffff1660009081526016602052604090206001015490565b6007602052836000526040600020602052826000526040600020828154811061092257fe5b90600052602060002001818154811061093757fe5b90600052602060002090600491828204019190066008029350935050509054906101000a900467ffffffffffffffff1681565b6109726113d7565b6006546001600160a01b0390811691161461099f5760405162461bcd60e51b815260040161073190611fbe565b60085463ffffffff1660009081526016602052604081205460ff1660028111156109c557fe5b146109e25760405162461bcd60e51b8152600401610731906120c5565b60085463ffffffff166000908152601660205260409020805460ff19166001179055610a0c61192e565b600f54610a219030635b16035560e11b6113db565b600a83905542600b8190556040805180820190915260058152641d5b9d1a5b60da1b6020820152919250610a589183918501611400565b600e54600d54610a73916001600160a01b031690839061141e565b50600854600a54600b546040517f4f140cda2ccb7e98fc2df63fb64d9143ce40c30f3331da47c9bae150d9dec9e993610ab69363ffffffff909116929091612109565b60405180910390a15050565b63ffffffff8116600090815260166020908152604091829020600201805483518184028101840190945280845260609392830182828015610b4e57602002820191906000526020600020906000905b82829054906101000a900463ffffffff1663ffffffff1681526020019060040190602082600301049283019260010382029150808411610b115790505b50505050509050919050565b610b626113d7565b6006546001600160a01b03908116911614610b8f5760405162461bcd60e51b815260040161073190611fbe565b6006546040516000916001600160a01b0316907f8be0079c531659141344cd1fd0a4f28419497f9722a3daafe3b4186f6b6457e0908390a3600680546001600160a01b0319169055565b600b5481565b6006546001600160a01b031690565b610bf66113d7565b6006546001600160a01b03908116911614610c235760405162461bcd60e51b815260040161073190611fbe565b600955565b600d5481565b610c366113d7565b6006546001600160a01b03908116911614610c635760405162461bcd60e51b815260040161073190611fbe565b601080546001600160a01b0319166001600160a01b0392909216919091179055565b60008181526005602052604090205481906001600160a01b03163314610cbd5760405162461bcd60e51b81526004016107319061207d565b60008181526005602052604080822080546001600160a01b03191690555182917f7cc135e0cebb02c3480ae5d74d377283180a2601f8f644edf7987b009316c63a91a2600160085463ffffffff1660009081526016602052604090205460ff166002811115610d2857fe5b14610d455760405162461bcd60e51b8152600401610731906120c5565b6008805463ffffffff90811660009081526016602052604090819020805460ff1916600217905560125492549051632cdc85e960e21b81526001600160a01b039093169263b37217a492610da4924791164342010101906004016120ef565b602060405180830381600087803b158015610dbe57600080fd5b505af1158015610dd2573d6000803e3d6000fd5b505050506040513d601f19601f82011682018060405250810190610df69190611bc6565b505050565b60095481565b601060009054906101000a90046001600160a01b03166001600160a01b031663ccbac9f56040518163ffffffff1660e01b815260040160206040518083038186803b158015610e4f57600080fd5b505afa158015610e63573d6000803e3d6000fd5b505050506040513d601f19601f82011682018060405250810190610e879190611a8a565b6001600160a01b0316336001600160a01b031614610eb75760405162461bcd60e51b815260040161073190611f46565b600260085463ffffffff1660009081526016602052604090205460ff166002811115610edf57fe5b14610efc5760405162461bcd60e51b81526004016107319061203c565b60008111610f1c5760405162461bcd60e51b815260040161073190611f98565b6008805463ffffffff908116600090815260166020526040808220805460ff191690559254909116815290812047600191909101555b6014548163ffffffff161015610fc95760085463ffffffff1660009081526016602052604090206002016064838254600181018455600093845260209093206008840401805460079094166004026101000a63ffffffff818102199095169390920690931602179055606482049150600101610f52565b5060005b6015548163ffffffff1610156110445760085463ffffffff1660009081526016602052604090206002016064838254600181018455600093845260209093206008840401805460079094166004026101000a63ffffffff818102199095169390920690931602179055606482049150600101610fcd565b50506008805463ffffffff8082166001011663ffffffff19909116179055565b63ffffffff1660009081526016602052604090205460ff1690565b600c60209081526000928352604080842090915290825290205460ff1681565b6009543410156110c15760405162461bcd60e51b815260040161073190611f6f565b600160085463ffffffff1660009081526016602052604090205460ff1660028111156110e957fe5b146110f357600080fd5b33600090815260076020908152604080832060085463ffffffff168452825282208054600181018255908352912061112d91018383611963565b507f45763adba85488ea16a1a3f2a5f44c7c20080d06edf28072acde46addd934ae033348484604051610ab69493929190611c7b565b61116b6113d7565b6006546001600160a01b039081169116146111985760405162461bcd60e51b815260040161073190611fbe565b6001600160a01b0381166111be5760405162461bcd60e51b815260040161073190611e91565b6006546040516001600160a01b038084169216907f8be0079c531659141344cd1fd0a4f28419497f9722a3daafe3b4186f6b6457e090600090a3600680546001600160a01b0319166001600160a01b0392909216919091179055565b33600090815260076020908152604080832063ffffffff8516845290915290208054606091600019820182811061124d57fe5b906000526020600020018054806020026020016040519081016040528092919081815260200182805480156112d557602002820191906000526020600020906000905b82829054906101000a900467ffffffffffffffff1667ffffffffffffffff16815260200190600801906020826007010492830192600103820291508084116112905790505b5050505050915050919050565b60008263ffffffff166007141561130e578163ffffffff166001141561130a5750602361130e565b5060025b8263ffffffff1660061415611338578163ffffffff166001141561133457506001611338565b5060025b8263ffffffff1660051415611362578163ffffffff166001141561135e57506002611362565b5060075b8263ffffffff16600414801561137e57508163ffffffff166001145b156113875750600a5b8263ffffffff1660031480156113a357508163ffffffff166001145b156113ac5750600f5b8263ffffffff1660021480156113c857508163ffffffff166001145b156113d15750601a5b92915050565b3390565b6113e361192e565b6113eb61192e565b6113f78186868661155d565b95945050505050565b608083015161140f908361159a565b6080830151610df690826115b1565b600030600454604051602001611435929190611c45565b60408051808303601f19018152918152815160209283012060045460608701526000818152600590935281832080546001600160a01b0319166001600160a01b038916179055905190925082917fb5e6e01e79f91267dc17b4e6314d5d4d03593d2ceee0fbb452b750bd70ea5af991a26002546001600160a01b0316634000aea085846114c1876115c1565b6040518463ffffffff1660e01b81526004016114df93929190611d6f565b602060405180830381600087803b1580156114f957600080fd5b505af115801561150d573d6000803e3d6000fd5b505050506040513d601f19601f820116820180604052508101906115319190611b8e565b61154d5760405162461bcd60e51b815260040161073190611f03565b6004805460010190559392505050565b61156561192e565b611575856080015161010061163d565b50509183526001600160a01b031660208301526001600160e01b031916604082015290565b6115a78260038351611677565b610df68282611751565b6115bd82600083611677565b5050565b6060634042994660e01b60008084600001518560200151866040015187606001516001896080015160000151604051602401611604989796959493929190611d07565b60408051601f198184030181529190526020810180516001600160e01b03166001600160e01b0319909316929092179091529050919050565b611645611a20565b602082061561165a5760208206602003820191505b506020828101829052604080518085526000815290920101905290565b60178111611698576116928360e0600585901b168317611772565b50610df6565b60ff81116116c2576116b5836018611fe0600586901b1617611772565b506116928382600161178a565b61ffff81116116ed576116e0836019611fe0600586901b1617611772565b506116928382600261178a565b63ffffffff811161171a5761170d83601a611fe0600586901b1617611772565b506116928382600461178a565b67ffffffffffffffff8111610df65761173e83601b611fe0600586901b1617611772565b5061174b8382600861178a565b50505050565b611759611a20565b61176b838460000151518485516117ab565b9392505050565b61177a611a20565b61176b8384600001515184611857565b611792611a20565b6117a38485600001515185856118a2565b949350505050565b6117b3611a20565b82518211156117c157600080fd5b846020015182850111156117eb576117eb856117e38760200151878601611900565b600202611917565b60008086518051876020830101935080888701111561180a5787860182525b505050602084015b602084106118315780518252601f199093019260209182019101611812565b51815160001960208690036101000a019081169019919091161790525083949350505050565b61185f611a20565b8360200151831061187b5761187b848560200151600202611917565b835180516020858301018481535080851415611898576001810182525b5093949350505050565b6118aa611a20565b846020015184830111156118c7576118c785858401600202611917565b60006001836101000a0390508551838682010185831982511617815250805184870111156118f55783860181525b509495945050505050565b6000818311156119115750816113d1565b50919050565b8151611923838361163d565b5061174b8382611751565b6040805160a08101825260008082526020820181905291810182905260608101919091526080810161195e611a20565b905290565b82805482825590600052602060002090600301600490048101928215611a105791602002820160005b838211156119da57833563ffffffff1683826101000a81548167ffffffffffffffff021916908363ffffffff160217905550926020019260080160208160070104928301926001030261198c565b8015611a0e5782816101000a81549067ffffffffffffffff02191690556008016020816007010492830192600103026119da565b505b50611a1c929150611a3a565b5090565b604051806040016040528060608152602001600081525090565b5b80821115611a1c57805467ffffffffffffffff19168155600101611a3b565b803563ffffffff811681146113d157600080fd5b600060208284031215611a7f578081fd5b813561176b8161213c565b600060208284031215611a9b578081fd5b815161176b8161213c565b60008060408385031215611ab8578081fd5b8235611ac38161213c565b9150611ad28460208501611a5a565b90509250929050565b60008060008060808587031215611af0578182fd5b8435611afb8161213c565b9350611b0a8660208701611a5a565b93969395505050506040820135916060013590565b60008060208385031215611b31578182fd5b823567ffffffffffffffff80821115611b48578384fd5b818501915085601f830112611b5b578384fd5b813581811115611b69578485fd5b8660208083028501011115611b7c578485fd5b60209290920196919550909350505050565b600060208284031215611b9f578081fd5b8151801515811461176b578182fd5b600060208284031215611bbf578081fd5b5035919050565b600060208284031215611bd7578081fd5b5051919050565b600060208284031215611bef578081fd5b813561176b81612154565b60008151808452815b81811015611c1f57602081850181015186830182015201611c03565b81811115611c305782602083870101525b50601f01601f19169290920160200192915050565b60609290921b6bffffffffffffffffffffffff19168252601482015260340190565b6001600160a01b0391909116815260200190565b6001600160a01b038516815260208082018590526060604083018190528201839052600090849060808401835b86811015611cd3578335611cbb81612154565b63ffffffff1682529282019290820190600101611ca8565b5098975050505050505050565b6001600160a01b0393909316835263ffffffff919091166020830152604082015260600190565b6001600160a01b0389811682526020820189905260408201889052861660608201526001600160e01b03198516608082015260a0810184905260c0810183905261010060e08201819052600090611d6083820185611bfa565b9b9a5050505050505050505050565b600060018060a01b0385168252836020830152606060408301526113f76060830184611bfa565b6020808252825182820181905260009190848201906040850190845b81811015611dce57835183529284019291840191600101611db2565b50909695505050505050565b6020808252825182820181905260009190848201906040850190845b81811015611dce57835163ffffffff1683529284019291840191600101611df6565b6020808252825182820181905260009190848201906040850190845b81811015611dce57835167ffffffffffffffff1683529284019291840191600101611e34565b901515815260200190565b6020810160038310611e7357fe5b91905290565b6040810160038410611e8757fe5b9281526020015290565b60208082526026908201527f4f776e61626c653a206e6577206f776e657220697320746865207a65726f206160408201526564647265737360d01b606082015260800190565b602080825260129082015271191c985dcb5a5ccb5b9bdd0b58db1bdcd95960721b604082015260600190565b60208082526023908201527f756e61626c6520746f207472616e73666572416e6443616c6c20746f206f7261604082015262636c6560e81b606082015260800190565b6020808252600f908201526e696e76616c69642d6164647265737360881b604082015260600190565b6020808252600f908201526e3732b2b216b6b7b93296b2ba3432b960891b604082015260600190565b6020808252600c908201526b3bb937b73396b73ab6b132b960a11b604082015260600190565b6020808252818101527f4f776e61626c653a2063616c6c6572206973206e6f7420746865206f776e6572604082015260600190565b602080825260069082015265373796bbb4b760d11b604082015260600190565b6020808252600f908201526e185b1c9958591e4b58db185a5b5959608a1b604082015260600190565b60208082526021908201527f6c6f74746572792d6e6f742d67657474696e672d72616e646f6d2d6e756d62656040820152603960f91b606082015260800190565b60208082526028908201527f536f75726365206d75737420626520746865206f7261636c65206f6620746865604082015267081c995c5d595cdd60c21b606082015260800190565b60208082526010908201526f3637ba3a32b93c96b737ba16b7b832b760811b604082015260600190565b90815260200190565b63ffffffff91909116815260200190565b63ffffffff9390931683526020830191909152604082015260600190565b67ffffffffffffffff91909116815260200190565b6001600160a01b038116811461215157600080fd5b50565b63ffffffff8116811461215157600080fdfea2646970667358221220e303d2be9445a003734cddba285f7eacb097dedf3816a7caf4f6ce1059647a6364736f6c634300060c0033",
  "immutableReferences": {},
  "source": "// SPDX-License-Identifier: UNLICENSED\npragma experimental ABIEncoderV2;\npragma solidity 0.6.12;\n\nimport \"@chainlink/contracts/src/v0.6/ChainlinkClient.sol\";\nimport \"@openzeppelin/contracts/access/Ownable.sol\";\n\ninterface IMagayoOracle {\n  function game() external view returns (bytes32);\n\n  function duration() external view returns (uint256);\n\n  function games(bytes32 _game) external view returns (Game memory);\n\n  struct Game {\n    bytes32 name;\n    bytes32 country;\n    bytes32 state;\n    uint256 mainMin;\n    uint256 mainMax;\n    uint256 mainDrawn;\n    uint256 bonusMin;\n    uint256 bonusMax;\n    uint256 bonusDrawn;\n    bool sameBalls;\n    uint256 digits;\n    uint256 drawn;\n  }\n}\n\ninterface IRandomNumber {\n  function getRandomNumber(uint256 userProvidedSeed)\n    external\n    returns (bytes32 requestId);\n}\n\ninterface IGovernance {\n  function randomNumber() external view returns (address);\n\n  function magayoOracle() external view returns (address);\n}\n\ncontract Lottery is ChainlinkClient, Ownable {\n  mapping(address => mapping(uint32 => uint64[][])) public entries;\n  uint32 public drawNo;\n  uint256 public prizePerEntry;\n  uint256 public duration;\n  uint256 public startTime;\n  enum LOTTERY_STATE {CLOSED, OPEN, GETTING_RANDOMNUMBER}\n  //  mapping (address => mapping(uint16 => Reward[])) results;\n\n  mapping(address => mapping(uint32 => bool)) public claims;\n\n  // Rinkeby\n  uint256 public ORACLE_PAYMENT = 0.1 * 10**18;\n  address CHAINLINK_ALARM_ORACLE = 0x7AFe1118Ea78C1eae84ca8feE5C65Bc76CcF879e;\n  bytes32 CHAINLINK_ALARM_JOB_ID = \"4fff47c3982b4babba6a7dd694c9b204\";\n  IGovernance iGovernance;\n  IMagayoOracle iMagayoOracle;\n  IRandomNumber iRandomNumber;\n  bytes32 game;\n  uint256 mainDrawn;\n  uint256 bonusDrawn;\n\n  struct Draw {\n    LOTTERY_STATE state;\n    uint256 rewards;\n    uint32[] numbers;\n  }\n\n  mapping(uint32 => Draw) public draws;\n\n  event LogBuy(address currentUser, uint256 eValue, uint32[] numbers);\n  event LogClaim(address currentUser, uint32 drawNo, uint256 reward);\n  event LogNewLottery(uint32 drawNo, uint256 duration, uint256 startTime);\n\n  constructor(uint256 _prizePerEntry, address _governance) public {\n    setPublicChainlinkToken();\n    prizePerEntry = _prizePerEntry;\n    iGovernance = IGovernance(_governance);\n    iMagayoOracle = IMagayoOracle(iGovernance.magayoOracle());\n    iRandomNumber = IRandomNumber(iGovernance.randomNumber());\n    game = iMagayoOracle.game();\n    mainDrawn = iMagayoOracle.games(game).mainDrawn;\n    bonusDrawn = iMagayoOracle.games(game).bonusDrawn;\n    drawNo = 1;\n  }\n\n  function setPrice(uint256 _prizePerEntry) external onlyOwner {\n    prizePerEntry = _prizePerEntry;\n  }\n\n  function setGovernance(address _governance) external onlyOwner {\n    iGovernance = IGovernance(_governance);\n  }\n\n  function getEntries(uint32 _drawNo) external view returns(uint64[] memory numbers){\n    // Due to nested array limitation we only return the last entry\n    uint256 length = entries[msg.sender][_drawNo].length;\n    numbers = entries[msg.sender][_drawNo][length - 1];\n  }\n\n  function getDrawState(uint32 _drawNo) external view returns(LOTTERY_STATE){\n    return draws[_drawNo].state;\n  }\n\n  function getDrawRewards(uint32 _drawNo) external view returns(uint256){\n    return draws[_drawNo].rewards;\n  }\n\n  function getDrawNumbers(uint32 _drawNo) external view returns(uint32[] memory){\n    return draws[_drawNo].numbers;\n  }\n\n  function buy(uint32[] calldata numbers) external payable {\n    require(msg.value >= prizePerEntry, \"need-more-ether\");\n    require(draws[drawNo].state == LOTTERY_STATE.OPEN);\n    entries[msg.sender][drawNo].push(numbers);\n    emit LogBuy(msg.sender, msg.value, numbers);\n  }\n\n  function claim(uint32 _drawNo) external returns(uint256 amount) {\n    require (draws[_drawNo].state == LOTTERY_STATE.CLOSED, \"draw-is-not-closed\");\n    require (claims[msg.sender][drawNo] != true, \"already-claimed\");\n    uint256[] memory results = getResults(_drawNo);\n    require(results.length > 0, \"no-win\");\n    for(uint32 i = 0; i < results.length; i++){\n      amount += draws[_drawNo].rewards * results[i] / 100;\n    }\n    msg.sender.transfer(amount);\n    claims[msg.sender][_drawNo] = true;\n    emit LogClaim(msg.sender, _drawNo, amount);\n  }\n\n  function getResults(uint32 _drawNo) public view returns (uint256[] memory results){\n    uint256 tickets = entries[msg.sender][_drawNo].length;\n    for (uint32 i = 0; i < tickets; i++){\n      uint32 mainWinning = 0;\n      for (uint32 j = 0; j < mainDrawn; j++){\n        for(uint32 k = 0; k < mainDrawn; k++){\n          if(entries[msg.sender][_drawNo][i][j] == draws[_drawNo].numbers[k]){\n            mainWinning++;\n          }\n        }\n      }\n      uint32 bonusWinning = 0;\n      for (uint32 j = 0; j < bonusDrawn; j++){\n        for(uint32 k = 0; k < bonusDrawn; k++){\n          if(entries[msg.sender][_drawNo][i][j] == draws[_drawNo].numbers[k]){\n            bonusWinning++;\n          }\n        }\n      }\n      uint32 prizeDistribution = calculatePrize(mainWinning, bonusWinning);\n      if(prizeDistribution > 0){\n        results[i] = prizeDistribution * draws[_drawNo].rewards / 100;\n      }\n    }\n  }\n\n  function calculatePrize(uint32 mainWinning, uint32 bonusWinning) internal view returns(uint32 prizeDistribution){\n    if(mainWinning == 7){\n      if(bonusWinning == 1){\n        prizeDistribution = 35;\n      }\n      else{\n        prizeDistribution = 2;\n      }\n    }\n    if(mainWinning == 6){\n      if(bonusWinning == 1){\n        prizeDistribution = 1;\n      }\n      else{\n        prizeDistribution = 2;\n      }\n    }\n    if(mainWinning == 5){\n      if(bonusWinning == 1){\n        prizeDistribution = 2;\n      }\n      else{\n        prizeDistribution = 7;\n      }\n    }\n    if(mainWinning == 4 && bonusWinning == 1){\n      prizeDistribution = 10;\n    }\n    if(mainWinning == 3 && bonusWinning == 1){\n      prizeDistribution = 15;\n    }\n    if(mainWinning == 2 && bonusWinning == 1){\n      prizeDistribution = 26;\n    }\n  }\n\n  function startNewLottery(uint256 _duration) external onlyOwner {\n    require(draws[drawNo].state == LOTTERY_STATE.CLOSED, \"lottery-not-open\");\n    draws[drawNo].state = LOTTERY_STATE.OPEN;\n    Chainlink.Request memory req = buildChainlinkRequest(\n      CHAINLINK_ALARM_JOB_ID,\n      address(this),\n      this.fulfillAlarm.selector\n    );\n    // Using custom duration for easy testing\n    // uint256 duration = iMagayoOracle.duration();\n    duration = _duration;\n    startTime = now;\n    req.addUint(\"until\", now + duration);\n    sendChainlinkRequestTo(CHAINLINK_ALARM_ORACLE, req, ORACLE_PAYMENT);\n    emit LogNewLottery(drawNo, duration, startTime);\n  }\n\n  function fulfillAlarm(bytes32 _requestId)\n    external\n    recordChainlinkFulfillment(_requestId)\n  {\n    require(draws[drawNo].state == LOTTERY_STATE.OPEN, \"lottery-not-open\");\n    draws[drawNo].state = LOTTERY_STATE.GETTING_RANDOMNUMBER;\n    iRandomNumber.getRandomNumber(\n      now + block.number + drawNo + address(this).balance\n    );\n  }\n\n  function updateDrawNumbers(uint256 _number) external {\n    require(msg.sender == iGovernance.randomNumber(), \"invalid-address\");\n    require(\n      draws[drawNo].state == LOTTERY_STATE.GETTING_RANDOMNUMBER,\n      \"lottery-not-getting-random-number\"\n    );\n    require(_number > 0, \"wrong-number\");\n    draws[drawNo].state = LOTTERY_STATE.CLOSED;\n    draws[drawNo].rewards = address(this).balance;\n    for (uint32 i = 0; i < mainDrawn; i++) {\n      draws[drawNo].numbers.push(uint32(_number % 100));\n      _number = _number / 100;\n    }\n    for (uint32 i = 0; i < bonusDrawn; i++) {\n      draws[drawNo].numbers.push(uint32(_number % 100));\n      _number = _number / 100;\n    }\n    drawNo++;\n  }\n}\n",
  "sourcePath": "/Users/leckylao/Workspaces/chainlink-hack/contracts/Lottery.sol",
  "compiler": {
    "name": "solc",
    "version": "0.6.12+commit.27d51765.Emscripten.clang"
  },
  "schemaVersion": "3.2.5",
  "updatedAt": "2020-09-25T17:19:28.946Z",
  "networkType": "ethereum",
  "devdoc": {
    "kind": "dev",
    "methods": {
      "owner()": {
        "details": "Returns the address of the current owner."
      },
      "renounceOwnership()": {
        "details": "Leaves the contract without owner. It will not be possible to call `onlyOwner` functions anymore. Can only be called by the current owner. NOTE: Renouncing ownership will leave the contract without an owner, thereby removing any functionality that is only available to the owner."
      },
      "transferOwnership(address)": {
        "details": "Transfers ownership of the contract to a new account (`newOwner`). Can only be called by the current owner."
      }
    },
    "version": 1
  },
  "userdoc": {
    "kind": "user",
    "methods": {},
    "version": 1
  }
}