{
  "contractName": "Lottery",
  "abi": [
    {
      "inputs": [
        {
          "internalType": "uint256",
          "name": "_prizePerEntry",
          "type": "uint256"
        },
        {
          "internalType": "address",
          "name": "_governance",
          "type": "address"
        }
      ],
      "stateMutability": "nonpayable",
      "type": "constructor"
    },
    {
      "anonymous": false,
      "inputs": [
        {
          "indexed": true,
          "internalType": "bytes32",
          "name": "id",
          "type": "bytes32"
        }
      ],
      "name": "ChainlinkCancelled",
      "type": "event"
    },
    {
      "anonymous": false,
      "inputs": [
        {
          "indexed": true,
          "internalType": "bytes32",
          "name": "id",
          "type": "bytes32"
        }
      ],
      "name": "ChainlinkFulfilled",
      "type": "event"
    },
    {
      "anonymous": false,
      "inputs": [
        {
          "indexed": true,
          "internalType": "bytes32",
          "name": "id",
          "type": "bytes32"
        }
      ],
      "name": "ChainlinkRequested",
      "type": "event"
    },
    {
      "anonymous": false,
      "inputs": [
        {
          "indexed": false,
          "internalType": "address",
          "name": "currentUser",
          "type": "address"
        },
        {
          "indexed": false,
          "internalType": "uint256",
          "name": "eValue",
          "type": "uint256"
        },
        {
          "indexed": false,
          "internalType": "uint32[]",
          "name": "numbers",
          "type": "uint32[]"
        }
      ],
      "name": "LogBuy",
      "type": "event"
    },
    {
      "anonymous": false,
      "inputs": [
        {
          "indexed": false,
          "internalType": "address",
          "name": "currentUser",
          "type": "address"
        },
        {
          "indexed": false,
          "internalType": "uint32",
          "name": "drawNo",
          "type": "uint32"
        },
        {
          "indexed": false,
          "internalType": "uint256",
          "name": "reward",
          "type": "uint256"
        }
      ],
      "name": "LogClaim",
      "type": "event"
    },
    {
      "anonymous": false,
      "inputs": [
        {
          "indexed": false,
          "internalType": "uint32",
          "name": "drawNo",
          "type": "uint32"
        },
        {
          "indexed": false,
          "internalType": "uint256",
          "name": "duration",
          "type": "uint256"
        },
        {
          "indexed": false,
          "internalType": "uint256",
          "name": "startTime",
          "type": "uint256"
        }
      ],
      "name": "LogNewLottery",
      "type": "event"
    },
    {
      "anonymous": false,
      "inputs": [
        {
          "indexed": true,
          "internalType": "address",
          "name": "previousOwner",
          "type": "address"
        },
        {
          "indexed": true,
          "internalType": "address",
          "name": "newOwner",
          "type": "address"
        }
      ],
      "name": "OwnershipTransferred",
      "type": "event"
    },
    {
      "inputs": [],
      "name": "ORACLE_PAYMENT",
      "outputs": [
        {
          "internalType": "uint256",
          "name": "",
          "type": "uint256"
        }
      ],
      "stateMutability": "view",
      "type": "function",
      "constant": true
    },
    {
      "inputs": [
        {
          "internalType": "address",
          "name": "",
          "type": "address"
        },
        {
          "internalType": "uint32",
          "name": "",
          "type": "uint32"
        }
      ],
      "name": "claims",
      "outputs": [
        {
          "internalType": "bool",
          "name": "",
          "type": "bool"
        }
      ],
      "stateMutability": "view",
      "type": "function",
      "constant": true
    },
    {
      "inputs": [],
      "name": "drawNo",
      "outputs": [
        {
          "internalType": "uint32",
          "name": "",
          "type": "uint32"
        }
      ],
      "stateMutability": "view",
      "type": "function",
      "constant": true
    },
    {
      "inputs": [
        {
          "internalType": "uint32",
          "name": "",
          "type": "uint32"
        }
      ],
      "name": "draws",
      "outputs": [
        {
          "internalType": "enum Lottery.LOTTERY_STATE",
          "name": "state",
          "type": "uint8"
        },
        {
          "internalType": "uint256",
          "name": "rewards",
          "type": "uint256"
        }
      ],
      "stateMutability": "view",
      "type": "function",
      "constant": true
    },
    {
      "inputs": [],
      "name": "duration",
      "outputs": [
        {
          "internalType": "uint256",
          "name": "",
          "type": "uint256"
        }
      ],
      "stateMutability": "view",
      "type": "function",
      "constant": true
    },
    {
      "inputs": [
        {
          "internalType": "address",
          "name": "",
          "type": "address"
        },
        {
          "internalType": "uint32",
          "name": "",
          "type": "uint32"
        },
        {
          "internalType": "uint256",
          "name": "",
          "type": "uint256"
        },
        {
          "internalType": "uint256",
          "name": "",
          "type": "uint256"
        }
      ],
      "name": "entries",
      "outputs": [
        {
          "internalType": "uint64",
          "name": "",
          "type": "uint64"
        }
      ],
      "stateMutability": "view",
      "type": "function",
      "constant": true
    },
    {
      "inputs": [],
      "name": "owner",
      "outputs": [
        {
          "internalType": "address",
          "name": "",
          "type": "address"
        }
      ],
      "stateMutability": "view",
      "type": "function",
      "constant": true
    },
    {
      "inputs": [],
      "name": "prizePerEntry",
      "outputs": [
        {
          "internalType": "uint256",
          "name": "",
          "type": "uint256"
        }
      ],
      "stateMutability": "view",
      "type": "function",
      "constant": true
    },
    {
      "inputs": [],
      "name": "renounceOwnership",
      "outputs": [],
      "stateMutability": "nonpayable",
      "type": "function"
    },
    {
      "inputs": [],
      "name": "startTime",
      "outputs": [
        {
          "internalType": "uint256",
          "name": "",
          "type": "uint256"
        }
      ],
      "stateMutability": "view",
      "type": "function",
      "constant": true
    },
    {
      "inputs": [
        {
          "internalType": "address",
          "name": "newOwner",
          "type": "address"
        }
      ],
      "name": "transferOwnership",
      "outputs": [],
      "stateMutability": "nonpayable",
      "type": "function"
    },
    {
      "inputs": [
        {
          "internalType": "uint256",
          "name": "_prizePerEntry",
          "type": "uint256"
        }
      ],
      "name": "setPrice",
      "outputs": [],
      "stateMutability": "nonpayable",
      "type": "function"
    },
    {
      "inputs": [
        {
          "internalType": "address",
          "name": "_governance",
          "type": "address"
        }
      ],
      "name": "setGovernance",
      "outputs": [],
      "stateMutability": "nonpayable",
      "type": "function"
    },
    {
      "inputs": [
        {
          "internalType": "uint32[]",
          "name": "numbers",
          "type": "uint32[]"
        }
      ],
      "name": "buy",
      "outputs": [],
      "stateMutability": "payable",
      "type": "function",
      "payable": true
    },
    {
      "inputs": [
        {
          "internalType": "uint32",
          "name": "_drawNo",
          "type": "uint32"
        }
      ],
      "name": "claim",
      "outputs": [
        {
          "internalType": "uint256",
          "name": "amount",
          "type": "uint256"
        }
      ],
      "stateMutability": "nonpayable",
      "type": "function"
    },
    {
      "inputs": [
        {
          "internalType": "uint32",
          "name": "_drawNo",
          "type": "uint32"
        }
      ],
      "name": "getResults",
      "outputs": [
        {
          "internalType": "uint256[]",
          "name": "results",
          "type": "uint256[]"
        }
      ],
      "stateMutability": "view",
      "type": "function",
      "constant": true
    },
    {
      "inputs": [
        {
          "internalType": "uint256",
          "name": "_duration",
          "type": "uint256"
        }
      ],
      "name": "startNewLottery",
      "outputs": [],
      "stateMutability": "nonpayable",
      "type": "function"
    },
    {
      "inputs": [
        {
          "internalType": "bytes32",
          "name": "_requestId",
          "type": "bytes32"
        }
      ],
      "name": "fulfillAlarm",
      "outputs": [],
      "stateMutability": "nonpayable",
      "type": "function"
    },
    {
      "inputs": [
        {
          "internalType": "uint256",
          "name": "_number",
          "type": "uint256"
        }
      ],
      "name": "updateDrawNumbers",
      "outputs": [],
      "stateMutability": "nonpayable",
      "type": "function"
    }
  ],
  "bytecode": "0x6080604052600160045567016345785d8a0000600d55600e80546001600160a01b031916737afe1118ea78c1eae84ca8fee5c65bc76ccf879e1790557f3466666634376333393832623462616262613661376464363934633962323034600f553480156200006c57600080fd5b5060405162002414380380620024148339810160408190526200008f9162000506565b60006200009b620003ea565b600680546001600160a01b0319166001600160a01b038316908117909155604051919250906000907f8be0079c531659141344cd1fd0a4f28419497f9722a3daafe3b4186f6b6457e0908290a3506009829055601080546001600160a01b0319166001600160a01b0383811691909117918290556040805163025f5ceb60e21b81529051929091169163097d73ac91600480820192602092909190829003018186803b1580156200014b57600080fd5b505afa15801562000160573d6000803e3d6000fd5b505050506040513d601f19601f820116820180604052508101906200018691906200041d565b601180546001600160a01b0319166001600160a01b039283161790556010546040805163ccbac9f560e01b81529051919092169163ccbac9f5916004808301926020929190829003018186803b158015620001e057600080fd5b505afa158015620001f5573d6000803e3d6000fd5b505050506040513d601f19601f820116820180604052508101906200021b91906200041d565b601280546001600160a01b0319166001600160a01b039283161790556011546040805163187fc7c560e31b81529051919092169163c3fe3e28916004808301926020929190829003018186803b1580156200027557600080fd5b505afa1580156200028a573d6000803e3d6000fd5b505050506040513d601f19601f82011682018060405250810190620002b0919062000442565b6013819055601154604051637abcfc4160e11b81526001600160a01b039091169163f579f88291620002e6919060040162000535565b6101806040518083038186803b1580156200030057600080fd5b505afa15801562000315573d6000803e3d6000fd5b505050506040513d601f19601f820116820180604052508101906200033b91906200045b565b60a00151601455601154601354604051637abcfc4160e11b81526001600160a01b039092169163f579f88291620003759160040162000535565b6101806040518083038186803b1580156200038f57600080fd5b505afa158015620003a4573d6000803e3d6000fd5b505050506040513d601f19601f82011682018060405250810190620003ca91906200045b565b610100015160155550506008805463ffffffff1916600117905562000565565b3390565b80516001600160a01b03811681146200040657600080fd5b92915050565b805180151581146200040657600080fd5b6000602082840312156200042f578081fd5b6200043b8383620003ee565b9392505050565b60006020828403121562000454578081fd5b5051919050565b60006101808083850312156200046f578182fd5b6200047a816200053e565b9050825181526020830151602082015260408301516040820152606083015160608201526080830151608082015260a083015160a082015260c083015160c082015260e083015160e0820152610100808401518183015250610120620004e3858286016200040c565b908201526101408381015190820152610160928301519281019290925250919050565b6000806040838503121562000519578081fd5b825191506200052c8460208501620003ee565b90509250929050565b90815260200190565b6040518181016001600160401b03811182821017156200055d57600080fd5b604052919050565b611e9f80620005756000396000f3fe6080604052600436106101135760003560e01c80638da5cb5b116100a0578063c1e56a8e11610064578063c1e56a8e146102f0578063d2a3f51114610305578063e9f8958f14610325578063ec47997c14610352578063f2fde38b1461036557610113565b80638da5cb5b1461025957806391b7f5ed1461027b578063a1fd4b341461029b578063ab033ea9146102b0578063b62c06aa146102d057610113565b806325777bf8116100e757806325777bf8146101b257806345872979146101e05780634edf7a951461020d578063715018a61461022f57806378e979251461024457610113565b8062a3ddea14610118578063049518911461014e5780630ae288071461017b5780630fb5a6b41461019d575b600080fd5b34801561012457600080fd5b50610138610133366004611975565b610385565b6040516101459190611b2d565b60405180910390f35b34801561015a57600080fd5b5061016e610169366004611975565b61061a565b6040516101459190611df2565b34801561018757600080fd5b506101906107de565b6040516101459190611dfb565b3480156101a957600080fd5b5061016e6107ea565b3480156101be57600080fd5b506101d26101cd366004611975565b6107f0565b604051610145929190611b7c565b3480156101ec57600080fd5b506102006101fb366004611872565b61080f565b6040516101459190611e2a565b34801561021957600080fd5b5061022d610228366004611945565b61087c565b005b34801561023b57600080fd5b5061022d6109d4565b34801561025057600080fd5b5061016e610a53565b34801561026557600080fd5b5061026e610a59565b60405161014591906119fe565b34801561028757600080fd5b5061022d610296366004611945565b610a68565b3480156102a757600080fd5b5061016e610aa2565b3480156102bc57600080fd5b5061022d6102cb366004611805565b610aa8565b3480156102dc57600080fd5b5061022d6102eb366004611945565b610aff565b3480156102fc57600080fd5b5061016e610c75565b34801561031157600080fd5b5061022d610320366004611945565b610c7b565b34801561033157600080fd5b5061034561034036600461183d565b610ede565b6040516101459190611b71565b61022d6103603660046118b6565b610efe565b34801561037157600080fd5b5061022d610380366004611805565b610fc2565b33600090815260076020908152604080832063ffffffff851684529091528120546060915b818163ffffffff161015610613576000805b6014548163ffffffff1610156104b25760005b6014548163ffffffff1610156104a95763ffffffff808816600090815260166020526040902060020180549091831690811061040757fe5b600091825260208083206008830401543384526007808352604080862063ffffffff8e8116885294529094208054949093166004026101000a900481169290871690811061045157fe5b906000526020600020018363ffffffff168154811061046c57fe5b6000918252602090912060048204015460039091166008026101000a900467ffffffffffffffff1614156104a1576001909201915b6001016103cf565b506001016103bc565b506000805b6015548163ffffffff1610156105ad5760005b6015548163ffffffff1610156105a45763ffffffff808916600090815260166020526040902060020180549091831690811061050257fe5b600091825260208083206008830401543384526007808352604080862063ffffffff8f8116885294529094208054949093166004026101000a900481169290881690811061054c57fe5b906000526020600020018363ffffffff168154811061056757fe5b6000918252602090912060048204015460039091166008026101000a900467ffffffffffffffff16141561059c576001909201915b6001016104ca565b506001016104b7565b5060006105ba8383611079565b905063ffffffff8116156106085763ffffffff80881660009081526016602052604090206001015460649183160204868563ffffffff16815181106105fb57fe5b6020026020010181815250505b5050506001016103aa565b5050919050565b60008063ffffffff831660009081526016602052604090205460ff16600281111561064157fe5b146106675760405162461bcd60e51b815260040161065e90611bda565b60405180910390fd5b336000908152600c6020908152604080832060085463ffffffff16845290915290205460ff161515600114156106af5760405162461bcd60e51b815260040161065e90611d16565b60606106ba83610385565b905060008151116106dd5760405162461bcd60e51b815260040161065e90611cf6565b60005b81518163ffffffff161015610744576064828263ffffffff168151811061070357fe5b6020026020010151601660008763ffffffff1663ffffffff16815260200190815260200160002060010154028161073657fe5b0492909201916001016106e0565b50604051339083156108fc029084906000818181858888f19350505050158015610772573d6000803e3d6000fd5b50336000818152600c6020908152604080832063ffffffff8816845290915290819020805460ff19166001179055517ff2084191b01c03730d7c553c24eeefee4958ca9bb48ce1d687466c35de3bf1cf916107d09186908690611a77565b60405180910390a150919050565b60085463ffffffff1681565b600a5481565b6016602052600090815260409020805460019091015460ff9091169082565b6007602052836000526040600020602052826000526040600020828154811061083457fe5b90600052602060002001818154811061084957fe5b90600052602060002090600491828204019190066008029350935050509054906101000a900467ffffffffffffffff1681565b61088461116e565b6006546001600160a01b039081169116146108b15760405162461bcd60e51b815260040161065e90611cc1565b60085463ffffffff1660009081526016602052604081205460ff1660028111156108d757fe5b146108f45760405162461bcd60e51b815260040161065e90611dc8565b60085463ffffffff166000908152601660205260409020805460ff1916600117905561091e6116c5565b600f546109339030635b16035560e11b611172565b600a83905542600b8190556040805180820190915260058152641d5b9d1a5b60da1b602082015291925061096a9183918501611197565b600e54600d54610985916001600160a01b03169083906111b5565b50600854600a54600b546040517f4f140cda2ccb7e98fc2df63fb64d9143ce40c30f3331da47c9bae150d9dec9e9936109c89363ffffffff909116929091611e0c565b60405180910390a15050565b6109dc61116e565b6006546001600160a01b03908116911614610a095760405162461bcd60e51b815260040161065e90611cc1565b6006546040516000916001600160a01b0316907f8be0079c531659141344cd1fd0a4f28419497f9722a3daafe3b4186f6b6457e0908390a3600680546001600160a01b0319169055565b600b5481565b6006546001600160a01b031690565b610a7061116e565b6006546001600160a01b03908116911614610a9d5760405162461bcd60e51b815260040161065e90611cc1565b600955565b600d5481565b610ab061116e565b6006546001600160a01b03908116911614610add5760405162461bcd60e51b815260040161065e90611cc1565b601080546001600160a01b0319166001600160a01b0392909216919091179055565b60008181526005602052604090205481906001600160a01b03163314610b375760405162461bcd60e51b815260040161065e90611d80565b60008181526005602052604080822080546001600160a01b03191690555182917f7cc135e0cebb02c3480ae5d74d377283180a2601f8f644edf7987b009316c63a91a2600160085463ffffffff1660009081526016602052604090205460ff166002811115610ba257fe5b14610bbf5760405162461bcd60e51b815260040161065e90611dc8565b6008805463ffffffff90811660009081526016602052604090819020805460ff1916600217905560125492549051632cdc85e960e21b81526001600160a01b039093169263b37217a492610c1e92479116434201010190600401611df2565b602060405180830381600087803b158015610c3857600080fd5b505af1158015610c4c573d6000803e3d6000fd5b505050506040513d601f19601f82011682018060405250810190610c70919061195d565b505050565b60095481565b601060009054906101000a90046001600160a01b03166001600160a01b031663ccbac9f56040518163ffffffff1660e01b815260040160206040518083038186803b158015610cc957600080fd5b505afa158015610cdd573d6000803e3d6000fd5b505050506040513d601f19601f82011682018060405250810190610d019190611821565b6001600160a01b0316336001600160a01b031614610d315760405162461bcd60e51b815260040161065e90611c49565b600260085463ffffffff1660009081526016602052604090205460ff166002811115610d5957fe5b14610d765760405162461bcd60e51b815260040161065e90611d3f565b60008111610d965760405162461bcd60e51b815260040161065e90611c9b565b6008805463ffffffff908116600090815260166020526040808220805460ff191690559254909116815290812047600191909101555b6014548163ffffffff161015610e435760085463ffffffff1660009081526016602052604090206002016064838254600181018455600093845260209093206008840401805460079094166004026101000a63ffffffff818102199095169390920690931602179055606482049150600101610dcc565b5060005b6015548163ffffffff161015610ebe5760085463ffffffff1660009081526016602052604090206002016064838254600181018455600093845260209093206008840401805460079094166004026101000a63ffffffff818102199095169390920690931602179055606482049150600101610e47565b50506008805463ffffffff8082166001011663ffffffff19909116179055565b600c60209081526000928352604080842090915290825290205460ff1681565b600954341015610f205760405162461bcd60e51b815260040161065e90611c72565b600160085463ffffffff1660009081526016602052604090205460ff166002811115610f4857fe5b14610f5257600080fd5b33600090815260076020908152604080832060085463ffffffff1684528252822080546001810182559083529120610f8c910183836116fa565b507f45763adba85488ea16a1a3f2a5f44c7c20080d06edf28072acde46addd934ae0333484846040516109c89493929190611a12565b610fca61116e565b6006546001600160a01b03908116911614610ff75760405162461bcd60e51b815260040161065e90611cc1565b6001600160a01b03811661101d5760405162461bcd60e51b815260040161065e90611b94565b6006546040516001600160a01b038084169216907f8be0079c531659141344cd1fd0a4f28419497f9722a3daafe3b4186f6b6457e090600090a3600680546001600160a01b0319166001600160a01b0392909216919091179055565b60008263ffffffff16600714156110a5578163ffffffff16600114156110a1575060236110a5565b5060025b8263ffffffff16600614156110cf578163ffffffff16600114156110cb575060016110cf565b5060025b8263ffffffff16600514156110f9578163ffffffff16600114156110f5575060026110f9565b5060075b8263ffffffff16600414801561111557508163ffffffff166001145b1561111e5750600a5b8263ffffffff16600314801561113a57508163ffffffff166001145b156111435750600f5b8263ffffffff16600214801561115f57508163ffffffff166001145b156111685750601a5b92915050565b3390565b61117a6116c5565b6111826116c5565b61118e818686866112f4565b95945050505050565b60808301516111a69083611331565b6080830151610c709082611348565b6000306004546040516020016111cc9291906119dc565b60408051808303601f19018152918152815160209283012060045460608701526000818152600590935281832080546001600160a01b0319166001600160a01b038916179055905190925082917fb5e6e01e79f91267dc17b4e6314d5d4d03593d2ceee0fbb452b750bd70ea5af991a26002546001600160a01b0316634000aea0858461125887611358565b6040518463ffffffff1660e01b815260040161127693929190611b06565b602060405180830381600087803b15801561129057600080fd5b505af11580156112a4573d6000803e3d6000fd5b505050506040513d601f19601f820116820180604052508101906112c89190611925565b6112e45760405162461bcd60e51b815260040161065e90611c06565b6004805460010190559392505050565b6112fc6116c5565b61130c85608001516101006113d4565b50509183526001600160a01b031660208301526001600160e01b031916604082015290565b61133e826003835161140e565b610c7082826114e8565b6113548260008361140e565b5050565b6060634042994660e01b6000808460000151856020015186604001518760600151600189608001516000015160405160240161139b989796959493929190611a9e565b60408051601f198184030181529190526020810180516001600160e01b03166001600160e01b0319909316929092179091529050919050565b6113dc6117b7565b60208206156113f15760208206602003820191505b506020828101829052604080518085526000815290920101905290565b6017811161142f576114298360e0600585901b168317611509565b50610c70565b60ff81116114595761144c836018611fe0600586901b1617611509565b5061142983826001611521565b61ffff811161148457611477836019611fe0600586901b1617611509565b5061142983826002611521565b63ffffffff81116114b1576114a483601a611fe0600586901b1617611509565b5061142983826004611521565b67ffffffffffffffff8111610c70576114d583601b611fe0600586901b1617611509565b506114e283826008611521565b50505050565b6114f06117b7565b61150283846000015151848551611542565b9392505050565b6115116117b7565b61150283846000015151846115ee565b6115296117b7565b61153a848560000151518585611639565b949350505050565b61154a6117b7565b825182111561155857600080fd5b84602001518285011115611582576115828561157a8760200151878601611697565b6002026116ae565b6000808651805187602083010193508088870111156115a15787860182525b505050602084015b602084106115c85780518252601f1990930192602091820191016115a9565b51815160001960208690036101000a019081169019919091161790525083949350505050565b6115f66117b7565b83602001518310611612576116128485602001516002026116ae565b83518051602085830101848153508085141561162f576001810182525b5093949350505050565b6116416117b7565b8460200151848301111561165e5761165e858584016002026116ae565b60006001836101000a03905085518386820101858319825116178152508051848701111561168c5783860181525b509495945050505050565b6000818311156116a8575081611168565b50919050565b81516116ba83836113d4565b506114e283826114e8565b6040805160a0810182526000808252602082018190529181018290526060810191909152608081016116f56117b7565b905290565b828054828255906000526020600020906003016004900481019282156117a75791602002820160005b8382111561177157833563ffffffff1683826101000a81548167ffffffffffffffff021916908363ffffffff1602179055509260200192600801602081600701049283019260010302611723565b80156117a55782816101000a81549067ffffffffffffffff0219169055600801602081600701049283019260010302611771565b505b506117b39291506117d1565b5090565b604051806040016040528060608152602001600081525090565b5b808211156117b357805467ffffffffffffffff191681556001016117d2565b803563ffffffff8116811461116857600080fd5b600060208284031215611816578081fd5b813561150281611e3f565b600060208284031215611832578081fd5b815161150281611e3f565b6000806040838503121561184f578081fd5b823561185a81611e3f565b915061186984602085016117f1565b90509250929050565b60008060008060808587031215611887578182fd5b843561189281611e3f565b93506118a186602087016117f1565b93969395505050506040820135916060013590565b600080602083850312156118c8578182fd5b823567ffffffffffffffff808211156118df578384fd5b818501915085601f8301126118f2578384fd5b813581811115611900578485fd5b8660208083028501011115611913578485fd5b60209290920196919550909350505050565b600060208284031215611936578081fd5b81518015158114611502578182fd5b600060208284031215611956578081fd5b5035919050565b60006020828403121561196e578081fd5b5051919050565b600060208284031215611986578081fd5b813561150281611e57565b60008151808452815b818110156119b65760208185018101518683018201520161199a565b818111156119c75782602083870101525b50601f01601f19169290920160200192915050565b60609290921b6bffffffffffffffffffffffff19168252601482015260340190565b6001600160a01b0391909116815260200190565b6001600160a01b038516815260208082018590526060604083018190528201839052600090849060808401835b86811015611a6a578335611a5281611e57565b63ffffffff1682529282019290820190600101611a3f565b5098975050505050505050565b6001600160a01b0393909316835263ffffffff919091166020830152604082015260600190565b6001600160a01b0389811682526020820189905260408201889052861660608201526001600160e01b03198516608082015260a0810184905260c0810183905261010060e08201819052600090611af783820185611991565b9b9a5050505050505050505050565b600060018060a01b03851682528360208301526060604083015261118e6060830184611991565b6020808252825182820181905260009190848201906040850190845b81811015611b6557835183529284019291840191600101611b49565b50909695505050505050565b901515815260200190565b6040810160038410611b8a57fe5b9281526020015290565b60208082526026908201527f4f776e61626c653a206e6577206f776e657220697320746865207a65726f206160408201526564647265737360d01b606082015260800190565b602080825260129082015271191c985dcb5a5ccb5b9bdd0b58db1bdcd95960721b604082015260600190565b60208082526023908201527f756e61626c6520746f207472616e73666572416e6443616c6c20746f206f7261604082015262636c6560e81b606082015260800190565b6020808252600f908201526e696e76616c69642d6164647265737360881b604082015260600190565b6020808252600f908201526e3732b2b216b6b7b93296b2ba3432b960891b604082015260600190565b6020808252600c908201526b3bb937b73396b73ab6b132b960a11b604082015260600190565b6020808252818101527f4f776e61626c653a2063616c6c6572206973206e6f7420746865206f776e6572604082015260600190565b602080825260069082015265373796bbb4b760d11b604082015260600190565b6020808252600f908201526e185b1c9958591e4b58db185a5b5959608a1b604082015260600190565b60208082526021908201527f6c6f74746572792d6e6f742d67657474696e672d72616e646f6d2d6e756d62656040820152603960f91b606082015260800190565b60208082526028908201527f536f75726365206d75737420626520746865206f7261636c65206f6620746865604082015267081c995c5d595cdd60c21b606082015260800190565b60208082526010908201526f3637ba3a32b93c96b737ba16b7b832b760811b604082015260600190565b90815260200190565b63ffffffff91909116815260200190565b63ffffffff9390931683526020830191909152604082015260600190565b67ffffffffffffffff91909116815260200190565b6001600160a01b0381168114611e5457600080fd5b50565b63ffffffff81168114611e5457600080fdfea2646970667358221220025496db87494b3d7d97d5ab37f1f51c59b032cea1c2346c22904faa7ea7150164736f6c634300060c0033",
  "immutableReferences": {},
  "source": "pragma solidity 0.6.12;\npragma experimental ABIEncoderV2;\n\nimport \"@chainlink/contracts/src/v0.6/ChainlinkClient.sol\";\nimport \"@openzeppelin/contracts/access/Ownable.sol\";\n\ninterface IMagayoOracle {\n  function game() external view returns (bytes32);\n\n  function duration() external view returns (uint256);\n\n  function games(bytes32 _game) external view returns (Game memory);\n\n  struct Game {\n    bytes32 name;\n    bytes32 country;\n    bytes32 state;\n    uint256 mainMin;\n    uint256 mainMax;\n    uint256 mainDrawn;\n    uint256 bonusMin;\n    uint256 bonusMax;\n    uint256 bonusDrawn;\n    bool sameBalls;\n    uint256 digits;\n    uint256 drawn;\n  }\n}\n\ninterface IRandomNumber {\n  function getRandomNumber(uint256 userProvidedSeed)\n    external\n    returns (bytes32 requestId);\n}\n\ninterface IGovernance {\n  function randomNumber() external view returns (address);\n\n  function magayoOracle() external view returns (address);\n}\n\ncontract Lottery is ChainlinkClient, Ownable {\n  mapping(address => mapping(uint32 => uint64[][])) public entries;\n  uint32 public drawNo;\n  uint256 public prizePerEntry;\n  uint256 public duration;\n  uint256 public startTime;\n  enum LOTTERY_STATE {CLOSED, OPEN, GETTING_RANDOMNUMBER}\n  //  mapping (address => mapping(uint16 => Reward[])) results;\n\n  mapping(address => mapping(uint32 => bool)) public claims;\n\n  // Rinkeby\n  uint256 public ORACLE_PAYMENT = 0.1 * 10**18;\n  address CHAINLINK_ALARM_ORACLE = 0x7AFe1118Ea78C1eae84ca8feE5C65Bc76CcF879e;\n  bytes32 CHAINLINK_ALARM_JOB_ID = \"4fff47c3982b4babba6a7dd694c9b204\";\n  IGovernance iGovernance;\n  IMagayoOracle iMagayoOracle;\n  IRandomNumber iRandomNumber;\n  bytes32 game;\n  uint256 mainDrawn;\n  uint256 bonusDrawn;\n\n  struct Draw {\n    LOTTERY_STATE state;\n    uint256 rewards;\n    uint32[] numbers;\n  }\n\n  mapping(uint32 => Draw) public draws;\n\n  event LogBuy(address currentUser, uint256 eValue, uint32[] numbers);\n  event LogClaim(address currentUser, uint32 drawNo, uint256 reward);\n  event LogNewLottery(uint32 drawNo, uint256 duration, uint256 startTime);\n\n  constructor(uint256 _prizePerEntry, address _governance) public {\n    prizePerEntry = _prizePerEntry;\n    iGovernance = IGovernance(_governance);\n    iMagayoOracle = IMagayoOracle(iGovernance.magayoOracle());\n    iRandomNumber = IRandomNumber(iGovernance.randomNumber());\n    game = iMagayoOracle.game();\n    mainDrawn = iMagayoOracle.games(game).mainDrawn;\n    bonusDrawn = iMagayoOracle.games(game).bonusDrawn;\n    drawNo = 1;\n  }\n\n  function setPrice(uint256 _prizePerEntry) external onlyOwner {\n    prizePerEntry = _prizePerEntry;\n  }\n\n  function setGovernance(address _governance) external onlyOwner {\n    iGovernance = IGovernance(_governance);\n  }\n\n  function buy(uint32[] calldata numbers) external payable {\n    require(msg.value >= prizePerEntry, \"need-more-ether\");\n    require(draws[drawNo].state == LOTTERY_STATE.OPEN);\n    entries[msg.sender][drawNo].push(numbers);\n    emit LogBuy(msg.sender, msg.value, numbers);\n  }\n\n  function claim(uint32 _drawNo) external returns(uint256 amount) {\n    require (draws[_drawNo].state == LOTTERY_STATE.CLOSED, \"draw-is-not-closed\");\n    require (claims[msg.sender][drawNo] != true, \"already-claimed\");\n    uint256[] memory results = getResults(_drawNo);\n    require(results.length > 0, \"no-win\");\n    for(uint32 i = 0; i < results.length; i++){\n      amount += draws[_drawNo].rewards * results[i] / 100;\n    }\n    msg.sender.transfer(amount);\n    claims[msg.sender][_drawNo] = true;\n    emit LogClaim(msg.sender, _drawNo, amount);\n  }\n\n  function getResults(uint32 _drawNo) public view returns (uint256[] memory results){\n    uint256 tickets = entries[msg.sender][_drawNo].length;\n    for (uint32 i = 0; i < tickets; i++){\n      uint32 mainWinning = 0;\n      for (uint32 j = 0; j < mainDrawn; j++){\n        for(uint32 k = 0; k < mainDrawn; k++){\n          if(entries[msg.sender][_drawNo][i][j] == draws[_drawNo].numbers[k]){\n            mainWinning++;\n          }\n        }\n      }\n      uint32 bonusWinning = 0;\n      for (uint32 j = 0; j < bonusDrawn; j++){\n        for(uint32 k = 0; k < bonusDrawn; k++){\n          if(entries[msg.sender][_drawNo][i][j] == draws[_drawNo].numbers[k]){\n            bonusWinning++;\n          }\n        }\n      }\n      uint32 prizeDistribution = calculatePrize(mainWinning, bonusWinning);\n      if(prizeDistribution > 0){\n        results[i] = prizeDistribution * draws[_drawNo].rewards / 100;\n      }\n    }\n  }\n\n  function calculatePrize(uint32 mainWinning, uint32 bonusWinning) internal view returns(uint32 prizeDistribution){\n    if(mainWinning == 7){\n      if(bonusWinning == 1){\n        prizeDistribution = 35;\n      }\n      else{\n        prizeDistribution = 2;\n      }\n    }\n    if(mainWinning == 6){\n      if(bonusWinning == 1){\n        prizeDistribution = 1;\n      }\n      else{\n        prizeDistribution = 2;\n      }\n    }\n    if(mainWinning == 5){\n      if(bonusWinning == 1){\n        prizeDistribution = 2;\n      }\n      else{\n        prizeDistribution = 7;\n      }\n    }\n    if(mainWinning == 4 && bonusWinning == 1){\n      prizeDistribution = 10;\n    }\n    if(mainWinning == 3 && bonusWinning == 1){\n      prizeDistribution = 15;\n    }\n    if(mainWinning == 2 && bonusWinning == 1){\n      prizeDistribution = 26;\n    }\n  }\n\n  function startNewLottery(uint256 _duration) external onlyOwner {\n    require(draws[drawNo].state == LOTTERY_STATE.CLOSED, \"lottery-not-open\");\n    draws[drawNo].state = LOTTERY_STATE.OPEN;\n    Chainlink.Request memory req = buildChainlinkRequest(\n      CHAINLINK_ALARM_JOB_ID,\n      address(this),\n      this.fulfillAlarm.selector\n    );\n    // Using custom duration for easy testing\n    // uint256 duration = iMagayoOracle.duration();\n    duration = _duration;\n    startTime = now;\n    req.addUint(\"until\", now + duration);\n    sendChainlinkRequestTo(CHAINLINK_ALARM_ORACLE, req, ORACLE_PAYMENT);\n    emit LogNewLottery(drawNo, duration, startTime);\n  }\n\n  function fulfillAlarm(bytes32 _requestId)\n    external\n    recordChainlinkFulfillment(_requestId)\n  {\n    require(draws[drawNo].state == LOTTERY_STATE.OPEN, \"lottery-not-open\");\n    draws[drawNo].state = LOTTERY_STATE.GETTING_RANDOMNUMBER;\n    iRandomNumber.getRandomNumber(\n      now + block.number + drawNo + address(this).balance\n    );\n  }\n\n  function updateDrawNumbers(uint256 _number) external {\n    require(msg.sender == iGovernance.randomNumber(), \"invalid-address\");\n    require(\n      draws[drawNo].state == LOTTERY_STATE.GETTING_RANDOMNUMBER,\n      \"lottery-not-getting-random-number\"\n    );\n    require(_number > 0, \"wrong-number\");\n    draws[drawNo].state = LOTTERY_STATE.CLOSED;\n    draws[drawNo].rewards = address(this).balance;\n    for (uint32 i = 0; i < mainDrawn; i++) {\n      draws[drawNo].numbers.push(uint32(_number % 100));\n      _number = _number / 100;\n    }\n    for (uint32 i = 0; i < bonusDrawn; i++) {\n      draws[drawNo].numbers.push(uint32(_number % 100));\n      _number = _number / 100;\n    }\n    drawNo++;\n  }\n}\n",
  "sourcePath": "/Users/leckylao/Workspaces/chainlink-hack/contracts/lottery.sol",
  "compiler": {
    "name": "solc",
    "version": "0.6.12+commit.27d51765.Emscripten.clang"
  },
  "schemaVersion": "3.2.5",
  "updatedAt": "2020-09-24T17:26:46.617Z",
  "networkType": "ethereum",
  "devdoc": {
    "kind": "dev",
    "methods": {
      "owner()": {
        "details": "Returns the address of the current owner."
      },
      "renounceOwnership()": {
        "details": "Leaves the contract without owner. It will not be possible to call `onlyOwner` functions anymore. Can only be called by the current owner. NOTE: Renouncing ownership will leave the contract without an owner, thereby removing any functionality that is only available to the owner."
      },
      "transferOwnership(address)": {
        "details": "Transfers ownership of the contract to a new account (`newOwner`). Can only be called by the current owner."
      }
    },
    "version": 1
  },
  "userdoc": {
    "kind": "user",
    "methods": {},
    "version": 1
  }
}