{
  "contractName": "MyContract",
  "abi": [
    {
      "inputs": [
        {
          "internalType": "address",
          "name": "_link",
          "type": "address"
        }
      ],
      "stateMutability": "nonpayable",
      "type": "constructor"
    },
    {
      "anonymous": false,
      "inputs": [
        {
          "indexed": true,
          "internalType": "bytes32",
          "name": "id",
          "type": "bytes32"
        }
      ],
      "name": "ChainlinkCancelled",
      "type": "event"
    },
    {
      "anonymous": false,
      "inputs": [
        {
          "indexed": true,
          "internalType": "bytes32",
          "name": "id",
          "type": "bytes32"
        }
      ],
      "name": "ChainlinkFulfilled",
      "type": "event"
    },
    {
      "anonymous": false,
      "inputs": [
        {
          "indexed": true,
          "internalType": "bytes32",
          "name": "id",
          "type": "bytes32"
        }
      ],
      "name": "ChainlinkRequested",
      "type": "event"
    },
    {
      "anonymous": false,
      "inputs": [
        {
          "indexed": true,
          "internalType": "address",
          "name": "previousOwner",
          "type": "address"
        },
        {
          "indexed": true,
          "internalType": "address",
          "name": "newOwner",
          "type": "address"
        }
      ],
      "name": "OwnershipTransferred",
      "type": "event"
    },
    {
      "inputs": [],
      "name": "data",
      "outputs": [
        {
          "internalType": "uint256",
          "name": "",
          "type": "uint256"
        }
      ],
      "stateMutability": "view",
      "type": "function"
    },
    {
      "inputs": [],
      "name": "owner",
      "outputs": [
        {
          "internalType": "address",
          "name": "",
          "type": "address"
        }
      ],
      "stateMutability": "view",
      "type": "function"
    },
    {
      "inputs": [],
      "name": "renounceOwnership",
      "outputs": [],
      "stateMutability": "nonpayable",
      "type": "function"
    },
    {
      "inputs": [
        {
          "internalType": "address",
          "name": "newOwner",
          "type": "address"
        }
      ],
      "name": "transferOwnership",
      "outputs": [],
      "stateMutability": "nonpayable",
      "type": "function"
    },
    {
      "inputs": [],
      "name": "getChainlinkToken",
      "outputs": [
        {
          "internalType": "address",
          "name": "",
          "type": "address"
        }
      ],
      "stateMutability": "view",
      "type": "function"
    },
    {
      "inputs": [
        {
          "internalType": "address",
          "name": "_oracle",
          "type": "address"
        },
        {
          "internalType": "bytes32",
          "name": "_jobId",
          "type": "bytes32"
        },
        {
          "internalType": "uint256",
          "name": "_payment",
          "type": "uint256"
        },
        {
          "internalType": "string",
          "name": "_url",
          "type": "string"
        },
        {
          "internalType": "string",
          "name": "_path",
          "type": "string"
        },
        {
          "internalType": "int256",
          "name": "_times",
          "type": "int256"
        }
      ],
      "name": "createRequestTo",
      "outputs": [
        {
          "internalType": "bytes32",
          "name": "requestId",
          "type": "bytes32"
        }
      ],
      "stateMutability": "nonpayable",
      "type": "function"
    },
    {
      "inputs": [
        {
          "internalType": "bytes32",
          "name": "_requestId",
          "type": "bytes32"
        },
        {
          "internalType": "uint256",
          "name": "_data",
          "type": "uint256"
        }
      ],
      "name": "fulfill",
      "outputs": [],
      "stateMutability": "nonpayable",
      "type": "function"
    },
    {
      "inputs": [],
      "name": "withdrawLink",
      "outputs": [],
      "stateMutability": "nonpayable",
      "type": "function"
    },
    {
      "inputs": [
        {
          "internalType": "bytes32",
          "name": "_requestId",
          "type": "bytes32"
        },
        {
          "internalType": "uint256",
          "name": "_payment",
          "type": "uint256"
        },
        {
          "internalType": "bytes4",
          "name": "_callbackFunctionId",
          "type": "bytes4"
        },
        {
          "internalType": "uint256",
          "name": "_expiration",
          "type": "uint256"
        }
      ],
      "name": "cancelRequest",
      "outputs": [],
      "stateMutability": "nonpayable",
      "type": "function"
    }
  ],
  "bytecode": "0x608060405260016004553480156200001657600080fd5b506040516200128a3803806200128a833981810160405260208110156200003c57600080fd5b505160006200004a620000c9565b600680546001600160a01b0319166001600160a01b038316908117909155604051919250906000907f8be0079c531659141344cd1fd0a4f28419497f9722a3daafe3b4186f6b6457e0908290a3506001600160a01b038116620000b757620000b1620000cd565b620000c2565b620000c28162000155565b5062000177565b3390565b6200015373c89bd4e1632d3a43cb03aaad5262cbe4038bc5716001600160a01b03166338cc48316040518163ffffffff1660e01b815260040160206040518083038186803b1580156200011f57600080fd5b505afa15801562000134573d6000803e3d6000fd5b505050506040513d60208110156200014b57600080fd5b505162000155565b565b600280546001600160a01b0319166001600160a01b0392909216919091179055565b61110380620001876000396000f3fe608060405234801561001057600080fd5b50600436106100935760003560e01c806373d4a13a1161006657806373d4a13a146102465780638da5cb5b1461024e5780638dc654a214610256578063ec65d0f81461025e578063f2fde38b1461029757610093565b8063165d35e11461009857806316ef7f1a146100bc5780634357855e14610219578063715018a61461023e575b600080fd5b6100a06102bd565b604080516001600160a01b039092168252519081900360200190f35b610207600480360360c08110156100d257600080fd5b6001600160a01b03823516916020810135916040820135919081019060808101606082013564010000000081111561010957600080fd5b82018360208201111561011b57600080fd5b8035906020019184600183028401116401000000008311171561013d57600080fd5b91908080601f016020809104026020016040519081016040528093929190818152602001838380828437600092019190915250929594936020810193503591505064010000000081111561019057600080fd5b8201836020820111156101a257600080fd5b803590602001918460018302840111640100000000831117156101c457600080fd5b91908080601f01602080910402602001604051908101604052809392919081815260200183838082843760009201919091525092955050913592506102cc915050565b60408051918252519081900360200190f35b61023c6004803603604081101561022f57600080fd5b50803590602001356103cf565b005b61023c610470565b610207610512565b6100a0610518565b61023c610527565b61023c6004803603608081101561027457600080fd5b508035906020810135906001600160e01b031960408201351690606001356106d8565b61023c600480360360208110156102ad57600080fd5b50356001600160a01b0316610742565b60006102c761083b565b905090565b60006102d661084a565b6006546001600160a01b03908116911614610326576040805162461bcd60e51b81526020600482018190526024820152600080516020611086833981519152604482015290519081900360640190fd5b61032e610fed565b61034087306321abc2af60e11b61084e565b6040805180820190915260038152621d5c9b60ea1b602082015290915061036990829087610873565b6040805180820190915260048152630e0c2e8d60e31b602082015261039090829086610873565b60408051808201909152600581526474696d657360d81b60208201526103b890829085610896565b6103c38882886108b4565b98975050505050505050565b60008281526005602052604090205482906001600160a01b031633146104265760405162461bcd60e51b81526004018080602001828103825260288152602001806110a66028913960400191505060405180910390fd5b60008181526005602052604080822080546001600160a01b03191690555182917f7cc135e0cebb02c3480ae5d74d377283180a2601f8f644edf7987b009316c63a91a25060075550565b61047861084a565b6006546001600160a01b039081169116146104c8576040805162461bcd60e51b81526020600482018190526024820152600080516020611086833981519152604482015290519081900360640190fd5b6006546040516000916001600160a01b0316907f8be0079c531659141344cd1fd0a4f28419497f9722a3daafe3b4186f6b6457e0908390a3600680546001600160a01b0319169055565b60075481565b6006546001600160a01b031690565b61052f61084a565b6006546001600160a01b0390811691161461057f576040805162461bcd60e51b81526020600482018190526024820152600080516020611086833981519152604482015290519081900360640190fd5b600061058961083b565b9050806001600160a01b031663a9059cbb33836001600160a01b03166370a08231306040518263ffffffff1660e01b815260040180826001600160a01b0316815260200191505060206040518083038186803b1580156105e857600080fd5b505afa1580156105fc573d6000803e3d6000fd5b505050506040513d602081101561061257600080fd5b5051604080516001600160e01b031960e086901b1681526001600160a01b03909316600484015260248301919091525160448083019260209291908290030181600087803b15801561066357600080fd5b505af1158015610677573d6000803e3d6000fd5b505050506040513d602081101561068d57600080fd5b50516106d5576040805162461bcd60e51b81526020600482015260126024820152712ab730b13632903a37903a3930b739b332b960711b604482015290519081900360640190fd5b50565b6106e061084a565b6006546001600160a01b03908116911614610730576040805162461bcd60e51b81526020600482018190526024820152600080516020611086833981519152604482015290519081900360640190fd5b61073c84848484610a82565b50505050565b61074a61084a565b6006546001600160a01b0390811691161461079a576040805162461bcd60e51b81526020600482018190526024820152600080516020611086833981519152604482015290519081900360640190fd5b6001600160a01b0381166107df5760405162461bcd60e51b815260040180806020018281038252602681526020018061103d6026913960400191505060405180910390fd5b6006546040516001600160a01b038084169216907f8be0079c531659141344cd1fd0a4f28419497f9722a3daafe3b4186f6b6457e090600090a3600680546001600160a01b0319166001600160a01b0392909216919091179055565b6002546001600160a01b031690565b3390565b610856610fed565b61085e610fed565b61086a81868686610b5a565b95945050505050565b60808301516108829083610b97565b60808301516108919082610b97565b505050565b60808301516108a59083610b97565b60808301516108919082610bae565b6004546040805130606090811b60208084019190915260348084018690528451808503909101815260549093018452825192810192909220908601939093526000838152600590915281812080546001600160a01b0319166001600160a01b038816179055905182917fb5e6e01e79f91267dc17b4e6314d5d4d03593d2ceee0fbb452b750bd70ea5af991a26002546001600160a01b0316634000aea0858461095c87610bd8565b6040518463ffffffff1660e01b815260040180846001600160a01b0316815260200183815260200180602001828103825283818151815260200191508051906020019080838360005b838110156109bd5781810151838201526020016109a5565b50505050905090810190601f1680156109ea5780820380516001836020036101000a031916815260200191505b50945050505050602060405180830381600087803b158015610a0b57600080fd5b505af1158015610a1f573d6000803e3d6000fd5b505050506040513d6020811015610a3557600080fd5b5051610a725760405162461bcd60e51b81526004018080602001828103825260238152602001806110636023913960400191505060405180910390fd5b6004805460010190559392505050565b60008481526005602052604080822080546001600160a01b0319811690915590516001600160a01b039091169186917fe1fe3afa0f7f761ff0a8b89086790efd5140d2907ebd5b7ff6bfcb5e075fd4c59190a260408051636ee4d55360e01b815260048101879052602481018690526001600160e01b0319851660448201526064810184905290516001600160a01b03831691636ee4d55391608480830192600092919082900301818387803b158015610b3b57600080fd5b505af1158015610b4f573d6000803e3d6000fd5b505050505050505050565b610b62610fed565b610b728560800151610100610cfc565b50509183526001600160a01b031660208301526001600160e01b031916604082015290565b610ba48260038351610d3c565b6108918282610e10565b60008112610bc757610bc282600083610d3c565b610bd4565b610bd48260018319610d3c565b5050565b6060634042994660e01b6000808460000151856020015186604001518760600151600189608001516000015160405160240180896001600160a01b03168152602001888152602001878152602001866001600160a01b03168152602001856001600160e01b031916815260200184815260200183815260200180602001828103825283818151815260200191508051906020019080838360005b83811015610c8a578181015183820152602001610c72565b50505050905090810190601f168015610cb75780820380516001836020036101000a031916815260200191505b5060408051601f198184030181529190526020810180516001600160e01b03166001600160e01b0319909d169c909c17909b5250989950505050505050505050919050565b610d04611022565b6020820615610d195760208206602003820191505b506020808301829052604080518085526000815283019091019052815b92915050565b60178111610d5d57610d578360e0600585901b168317610e31565b50610891565b60ff8111610d8757610d7a836018611fe0600586901b1617610e31565b50610d5783826001610e49565b61ffff8111610db257610da5836019611fe0600586901b1617610e31565b50610d5783826002610e49565b63ffffffff8111610ddf57610dd283601a611fe0600586901b1617610e31565b50610d5783826004610e49565b67ffffffffffffffff811161089157610e0383601b611fe0600586901b1617610e31565b5061073c83826008610e49565b610e18611022565b610e2a83846000015151848551610e6a565b9392505050565b610e39611022565b610e2a8384600001515184610f16565b610e51611022565b610e62848560000151518585610f61565b949350505050565b610e72611022565b8251821115610e8057600080fd5b84602001518285011115610eaa57610eaa85610ea28760200151878601610fbf565b600202610fd6565b600080865180518760208301019350808887011115610ec95787860182525b505050602084015b60208410610ef05780518252601f199093019260209182019101610ed1565b51815160001960208690036101000a019081169019919091161790525083949350505050565b610f1e611022565b83602001518310610f3a57610f3a848560200151600202610fd6565b835180516020858301018481535080851415610f57576001810182525b5093949350505050565b610f69611022565b84602001518483011115610f8657610f8685858401600202610fd6565b60006001836101000a039050855183868201018583198251161781525080518487011115610fb45783860181525b509495945050505050565b600081831115610fd0575081610d36565b50919050565b8151610fe28383610cfc565b5061073c8382610e10565b6040805160a08101825260008082526020820181905291810182905260608101919091526080810161101d611022565b905290565b60405180604001604052806060815260200160008152509056fe4f776e61626c653a206e6577206f776e657220697320746865207a65726f2061646472657373756e61626c6520746f207472616e73666572416e6443616c6c20746f206f7261636c654f776e61626c653a2063616c6c6572206973206e6f7420746865206f776e6572536f75726365206d75737420626520746865206f7261636c65206f66207468652072657175657374a264697066735822122038bac470294a675685bdece573a0f6a917931d5b9529ee10f54fdac31936801664736f6c634300060c0033",
  "immutableReferences": {},
  "source": "pragma solidity ^0.6;\n\nimport \"@chainlink/contracts/src/v0.6/ChainlinkClient.sol\";\nimport \"@openzeppelin/contracts/access/Ownable.sol\";\n\n/**\n * @title MyContract is an example contract which requests data from\n * the Chainlink network\n * @dev This contract is designed to work on multiple networks, including\n * local test networks\n */\ncontract MyContract is ChainlinkClient, Ownable {\n  uint256 public data;\n\n  /**\n   * @notice Deploy the contract with a specified address for the LINK\n   * and Oracle contract addresses\n   * @dev Sets the storage for the specified addresses\n   * @param _link The address of the LINK token contract\n   */\n  constructor(address _link) public {\n    if (_link == address(0)) {\n      setPublicChainlinkToken();\n    } else {\n      setChainlinkToken(_link);\n    }\n  }\n\n  /**\n   * @notice Returns the address of the LINK token\n   * @dev This is the public implementation for chainlinkTokenAddress, which is\n   * an internal method of the ChainlinkClient contract\n   */\n  function getChainlinkToken() public view returns (address) {\n    return chainlinkTokenAddress();\n  }\n\n  /**\n   * @notice Creates a request to the specified Oracle contract address\n   * @dev This function ignores the stored Oracle contract address and\n   * will instead send the request to the address specified\n   * @param _oracle The Oracle contract address to send the request to\n   * @param _jobId The bytes32 JobID to be executed\n   * @param _url The URL to fetch data from\n   * @param _path The dot-delimited path to parse of the response\n   * @param _times The number to multiply the result by\n   */\n  function createRequestTo(\n    address _oracle,\n    bytes32 _jobId,\n    uint256 _payment,\n    string memory _url,\n    string memory _path,\n    int256 _times\n  ) public onlyOwner returns (bytes32 requestId) {\n    Chainlink.Request memory req = buildChainlinkRequest(\n      _jobId,\n      address(this),\n      this.fulfill.selector\n    );\n    req.add(\"url\", _url);\n    req.add(\"path\", _path);\n    req.addInt(\"times\", _times);\n    requestId = sendChainlinkRequestTo(_oracle, req, _payment);\n  }\n\n  /**\n   * @notice The fulfill method from requests created by this contract\n   * @dev The recordChainlinkFulfillment protects this function from being called\n   * by anyone other than the oracle address that the request was sent to\n   * @param _requestId The ID that was generated for the request\n   * @param _data The answer provided by the oracle\n   */\n  function fulfill(bytes32 _requestId, uint256 _data)\n    public\n    recordChainlinkFulfillment(_requestId)\n  {\n    data = _data;\n  }\n\n  /**\n   * @notice Allows the owner to withdraw any LINK balance on the contract\n   */\n  function withdrawLink() public onlyOwner {\n    LinkTokenInterface link = LinkTokenInterface(chainlinkTokenAddress());\n    require(\n      link.transfer(msg.sender, link.balanceOf(address(this))),\n      \"Unable to transfer\"\n    );\n  }\n\n  /**\n   * @notice Call this method if no response is received within 5 minutes\n   * @param _requestId The ID that was generated for the request to cancel\n   * @param _payment The payment specified for the request to cancel\n   * @param _callbackFunctionId The bytes4 callback function ID specified for\n   * the request to cancel\n   * @param _expiration The expiration generated for the request to cancel\n   */\n  function cancelRequest(\n    bytes32 _requestId,\n    uint256 _payment,\n    bytes4 _callbackFunctionId,\n    uint256 _expiration\n  ) public onlyOwner {\n    cancelChainlinkRequest(\n      _requestId,\n      _payment,\n      _callbackFunctionId,\n      _expiration\n    );\n  }\n}\n",
  "sourcePath": "/Users/leckylao/Workspaces/chainlink-hack/contracts/MyContract.sol",
  "compiler": {
    "name": "solc",
    "version": "0.6.12+commit.27d51765.Emscripten.clang"
  },
  "schemaVersion": "3.2.5",
  "updatedAt": "2020-09-22T16:50:34.890Z",
  "devdoc": {
    "details": "This contract is designed to work on multiple networks, including local test networks",
    "kind": "dev",
    "methods": {
      "cancelRequest(bytes32,uint256,bytes4,uint256)": {
        "params": {
          "_callbackFunctionId": "The bytes4 callback function ID specified for the request to cancel",
          "_expiration": "The expiration generated for the request to cancel",
          "_payment": "The payment specified for the request to cancel",
          "_requestId": "The ID that was generated for the request to cancel"
        }
      },
      "constructor": {
        "details": "Sets the storage for the specified addresses",
        "params": {
          "_link": "The address of the LINK token contract"
        }
      },
      "createRequestTo(address,bytes32,uint256,string,string,int256)": {
        "details": "This function ignores the stored Oracle contract address and will instead send the request to the address specified",
        "params": {
          "_jobId": "The bytes32 JobID to be executed",
          "_oracle": "The Oracle contract address to send the request to",
          "_path": "The dot-delimited path to parse of the response",
          "_times": "The number to multiply the result by",
          "_url": "The URL to fetch data from"
        }
      },
      "fulfill(bytes32,uint256)": {
        "details": "The recordChainlinkFulfillment protects this function from being called by anyone other than the oracle address that the request was sent to",
        "params": {
          "_data": "The answer provided by the oracle",
          "_requestId": "The ID that was generated for the request"
        }
      },
      "getChainlinkToken()": {
        "details": "This is the public implementation for chainlinkTokenAddress, which is an internal method of the ChainlinkClient contract"
      },
      "owner()": {
        "details": "Returns the address of the current owner."
      },
      "renounceOwnership()": {
        "details": "Leaves the contract without owner. It will not be possible to call `onlyOwner` functions anymore. Can only be called by the current owner. NOTE: Renouncing ownership will leave the contract without an owner, thereby removing any functionality that is only available to the owner."
      },
      "transferOwnership(address)": {
        "details": "Transfers ownership of the contract to a new account (`newOwner`). Can only be called by the current owner."
      }
    },
    "title": "MyContract is an example contract which requests data from the Chainlink network",
    "version": 1
  },
  "userdoc": {
    "kind": "user",
    "methods": {
      "cancelRequest(bytes32,uint256,bytes4,uint256)": {
        "notice": "Call this method if no response is received within 5 minutes"
      },
      "constructor": "Deploy the contract with a specified address for the LINK and Oracle contract addresses",
      "createRequestTo(address,bytes32,uint256,string,string,int256)": {
        "notice": "Creates a request to the specified Oracle contract address"
      },
      "fulfill(bytes32,uint256)": {
        "notice": "The fulfill method from requests created by this contract"
      },
      "getChainlinkToken()": {
        "notice": "Returns the address of the LINK token"
      },
      "withdrawLink()": {
        "notice": "Allows the owner to withdraw any LINK balance on the contract"
      }
    },
    "version": 1
  }
}